:020000040800F2
:10000000F01B0020E9010008D9620008B95200087D
:10001000D56200084D1A0008419300080000000056
:10002000000000000000000000000000F966000869
:10003000111B000800000000CF660008FB660008E6
:10004000030200080302000803020008030200087C
:100050000302000803020008451B00085B1B0008A0
:10006000030200080302000803020008030200085C
:10007000030200080302000803020008030200084C
:10008000030200080302000803020008030200083C
:10009000899200080302000803020008651B00089B
:1000A000030200080302000803020008030200081C
:1000B000030200080302000803020008030200080C
:1000C00003020008030200080302000803020008FC
:1000D00003020008030200080302000803020008EC
:1000E0004F1B0008030200080302000800F002F89A
:1000F00000F06AF80AA090E8000C82448344AAF158
:100100000107DA4501D100F05FF8AFF2090EBAE855
:100110000F0013F0010F18BFFB1A43F0010318473B
:1001200064E2000084E200000A444FF0000C10F882
:10013000013B13F0070408BF10F8014B1D1108BF65
:1001400010F8015B641E05D010F8016B641E01F805
:10015000016BF9D113F0080F1EBF10F8014BAD1C55
:100160000C1B09D16D1E58BF01F801CBFAD505E073
:1001700014F8016B01F8016B6D1EF9D59142D6D3CD
:10018000704700000023002400250026103A28BFF5
:1001900078C1FBD8520728BF30C148BF0B607047F9
:1001A00066290DF0D687642900F06C800020704726
:1001B0001FB500F03FFC0400002000210CF0BCFD46
:1001C000E0601FBD10B510BD00F038FD1146FFF70F
:1001D000EFFF0AF049FB00F056FD03B4FFF7F2FF12
:1001E00003BC00F099FD000009488047094800471A
:1001F000FEE7FEE7FEE7FEE7FEE7FEE7FEE7FEE7D7
:10020000FEE7FEE704480549054A064B7047000033
:100210008D670008ED000008F0150020F01B00209D
:10022000F0170020F01700200FB41CB5074B06AAEA
:100230007B4469460090059800F0DBFB002069468E
:1002400000F0EAFB1CBC5DF814FB0000E5070000B1
:100250000FB41CB50C0007AA009001D02044401E2A
:10026000074B7B4469460190069800F0C2FB002CC6
:1002700003D06946002000F0CFFB1CBC5DF814FBE6
:10028000BD0700002DE9F0410646002410687529DD
:10029000314616A510D0AFF30080002802DA4042A4
:1002A00013A507E031688A0701D512A502E04907C6
:1002B00004D511A5012401E0AFF3008000210A223A
:1002C00006F1240709E0B0FBF2FCB0FBF2F302FBFD
:1002D0001C00303078541846491C0028F3D12346BE
:1002E0002A463046BDE8F04100F015B90000000094
:1002F0002D0000002B000000200000002DE9F04739
:100300004FF0000A89460446C0F820A02046E16864
:100310008847002876D0252806D0D4E901219047C7
:10032000206A401C2062F1E7E168204600258847EA
:10033000C4F81CA006460027C4F818A02A2E09D02D
:10034000304609F0B3F838B304EB8708303EC8F8FC
:10035000186019E059F8041B204604EB87029161EC
:10036000E1688847012F064618D1E069002820DAA5
:1003700025F020051DE0D8F8180000EB800006EB02
:1003800040003038C8F818002046E1688847064623
:1003900009F08CF80028EED1012F0AD02E2E08D1BA
:1003A0002046E16888477F1C0646022F45F020055D
:1003B000C4DBA069002803DA404245F00105A061D2
:1003C000E80701D025F01005B6B1A6F141001928C3
:1003D00002D8203645F400654A463146204625605D
:1003E0004D46FFF7DDFE58B1012806D0ED1D25F082
:1003F000070000F1080989E704E005F1040985E731
:1004000030468AE7206ABDE8F08710B5431C02E059
:1004100010F8011B71B18107FAD14FF0013202C807
:100420008C1A8C4314EAC211F9D0C01A0A0603D000
:10043000C01E10BDC01A10BD0A0401D0801E10BD20
:100440000902FCD0401E10BD10B5203AC0F00B8050
:10045000B1E81850203AA0E81850B1E81850A0E8C8
:100460001850BFF4F5AF5FEA027C24BFB1E8185022
:10047000A0E8185044BF18C918C0BDE810405FEA92
:10048000827C24BF51F8043B40F8043B08BF70470E
:10049000D20728BF31F8023B48BF11F8012B28BF13
:1004A00020F8023B48BF00F8012B70474FF00002D4
:1004B00000B5134694469646203922BFA0E80C505A
:1004C000A0E80C50B1F12001BFF4F7AF090728BF35
:1004D000A0E80C5048BF0CC05DF804EB890028BFB1
:1004E00040F8042B08BF704748BF20F8022B11F0DA
:1004F000804F18BF00F8012B704770477047704756
:1005000010B500F09BFA006810BD10B5044600F06D
:1005100095FA046010BD2DE9F0470D4699469246C4
:10052000044600F124080168880604D5E06921F03A
:100530001001216000E00120A84201DD471B00E01E
:100540000027A1697A1902EB0900081AA061207836
:10055000C00602D42046AFF30080002608E0D4E9AC
:1005600001211AF806009047206A401C761C206280
:100570004E45F4DB2078C0060AD52046AFF3008054
:1005800006E0D4E9012130209047206A401C206217
:10059000381EA7F10107F4DC07E0D4E9012118F8BF
:1005A00005009047206A401C2062281EA5F1010525
:1005B000F3DC2046AFF300802078000602D502204D
:1005C000BDE8F0870120FBE770472DE9FF4F0C469F
:1005D0001E464FF0FF378BB0D2E90001DDF8608096
:1005E0000A908A46C1F30A5505B93D4600210846DE
:1005F0004FF00000BAF1000F00F4400005DA00EB04
:1006000080004FF4400101EA50004FEA9059B9F1DF
:10061000010F00DDB9460A9850EA4A000ED044F6B0
:100620001050A5F2FF3545432F14B8F1000F1ED02E
:100630007542291E1EDDC9F100021CE0B8F1010F50
:100640004FF0000001D0302103E0F24305E02154D7
:10065000401CB042FBDB30460022002121540B99A4
:10066000C1F80880C1E900200FB0BDE8F08FBD1BC4
:100670006D1CDEE74A4600DA694206A800F068FA17
:1006800006AB93E8070003AB83E8070050460A99DE
:1006900000F049FB8DE80700A0F500501F380090DE
:1006A0000398002D0ADD42F21F014A460844002348
:1006B00003A90390684600F0B2FD09E0A0F50050E0
:1006C0004A461F38002303A90390684600F0BCFD8A
:1006D0008DE807000004000C03D04FF0FF30410804
:1006E00000E01046B8F1000F03D00022009215463A
:1006F0001EE0751E05D400F0A5F9303262556D1E5E
:10070000F9D5B3460122084302D000227F1C04E041
:100710002078302801D100227F1E002A099784D03A
:100720001DE0112D07DA00F08DF9303262556D1C95
:1007300050EA0102F5D1084302D00098C8B10EE09A
:100740000021681E05E0235C625C63542254401E55
:10075000491C8142F7DBAB46A81B401E09900020D4
:1007600004F80B000B98099AC0F80880C0E9002B28
:100770007AE711264FF0000857E72DE9F04F884639
:100780000446D21D22F0070191B0D1E90001CDE964
:100790000A0108F0D7FD02460B98C00F01D02D20AA
:1007A00007E02068810701D52B2002E0202101EA23
:1007B000C000032A099001D0072A05DB0346414601
:1007C000204600F085F90BE12078800601D5E0692C
:1007D00000E00620B8F1650F814606D0B8F1660F3B
:1007E00018D0B8F1670F70D131E00020B9F1110FC6
:1007F000009001DB112301E009F101030AAA01A91C
:100800000CA8FFF7E2FEDDE90C70002609F10105F6
:10081000834647E001204B4600904FF000470AAA6C
:1008200001A90CA8FFF7D1FEDDE90DB00C995D46DA
:10083000002610B909F101000D18B9EB050003D429
:10084000C0F1FF3609F10105A5EB09002BE0B9F174
:10085000010F01DA4FF001090020B9F1110F0090EA
:10086000484601DD112300E003460AAA01A90CA8AD
:10087000FFF7ABFEDDE90C704D460026834620787D
:1008800000070AD4AB4500DA5D4601A8012D04DD5E
:10089000411911F8011C302907D04F4502DA17F130
:1008A000040F04DA012082460FE06D1EEEE7002FF0
:1008B00002DCED1B3E4403E0781CA84200DD7D1CF9
:1008C000B81B00F1010A4FF000472078000703D45D
:1008D000AA4501DB4FF0FF3A0021B7F1004F0DF1BF
:1008E00043088DF8431024D002202B23002F01DA77
:1008F0007F422D230A21021EA0F1010000DC5FB11E
:1009000097FBF1FC97FBF1F201FB1C7C17460CF105
:10091000300C08F801CDEEE7A8F101000370218842
:10092000090501D5452100E06521A0F1010800F885
:10093000011C09980FA9A1EB0807FF1D00B10120B8
:10094000411901EBEA70A1693844081A401EA06100
:100950002078C00602D42046AFF30080099828B161
:10096000D4E901219047206A401C20622078C0060B
:1009700022D52046AFF300801EE0002E04DBB345F5
:1009800002DD01A8805D00E03020D4E9012190471C
:10099000206A401C2062761CAAF101005FEA000A6E
:1009A0000AD100F047F8C0680168405CD4E9012131
:1009B0009047206A401C2062281EA5F10105DCDC5E
:1009C00007E0D4E9012118F8010B9047206A401C88
:1009D0002062381EA7F10107F3DC2046AFF3008048
:1009E000032011B041E6000001694A1C0261087849
:1009F000704700B58FB0CDE901310021059105495F
:100A00007944CDE9031011466846FFF777FC0FB033
:100A100000BD0000E5FFFFFF0A6802F8010B0A6055
:100A20007047D1E900239A4202D2531C0B60107028
:100A30007047000000487047B0150020004870471C
:100A40009015002030B5B0F10A024FEA900E71F116
:100A500000034EEA817EB0EB0E0061EB91014FEA9C
:100A6000101E4EEA017E10EB0E0041EB11114FEA11
:100A7000102E4EEA016E10EB0E0041EB11214FEAF1
:100A8000104E4EEA014E10EB0E0041EB11414018A2
:100A900041F100014FEAD00040EA41704FEAD10134
:100AA00010EB80054FEA810444EA907444EB0104A2
:100AB0006D1944EB0404521BA3414FF0000348BFDF
:100AC0000A3200D530BD401C41F1000130BD0000AC
:100AD0002DE9F0411F46044603260168072A01F468
:100AE000006004DB08B116A505E016A503E008B117
:100AF00015A500E015A521F010002060A069C01E1A
:100B0000A0610FB1401EA0612046AFF300804FB13D
:100B1000D4E9012138469047206A401C2062C01C5D
:100B2000206206E0206AFAE7D4E9012115F8010BFA
:100B30009047761EF8D22046AFF30080BDE8F081E2
:100B40004E414E006E616E00494E4600696E660071
:100B50002DE9F047814616468AB0354878440DC8DD
:100B60008DE80D0032487844801C03AC0DC884E841
:100B70000D0041F69B300844372190FBF1F290FBC9
:100B8000F1F5A5F1800501FB12041B3C02D564427E
:100B9000012000E00020DFF898A080460027FA44FA
:100BA000AAF1BE0A0EE0E0070AD03246684607EB1B
:100BB000470101230AEB810100F046FB8DE80700A5
:100BC00064107F1C002CEED1194F7F44AE3F19E01A
:100BD000E80715D007EB04100DF1180A90E80E0095
:100BE0008AE80E00C068F04201D198190890324698
:100BF000012306A903A800F027FB03AB83E8070045
:100C00006D10641C002DE3D14FF00103324669469C
:100C1000B8F1000F03A802D000F001FB01E000F0E2
:100C200013FBC9E90001C9F808200AB0BDE8F08744
:100C30000CD8000000487047901500207546FFF75B
:100C4000F9FFAE4605006946534620F00700854689
:100C500018B020B5FFF7D6FABDE820404FF00006E7
:100C60004FF000074FF000084FF0000B21F0070194
:100C7000AC46ACE8C009ACE8C009ACE8C009ACE8D7
:100C8000C0098D46704710B50446AFF3008020467A
:100C9000BDE81040FFF7A1BA4FF0013C50F8042B1B
:100CA00051F8043B9A4221D1A2EB0C03934313EA7F
:100CB000CC1317D150F8042B51F8043B9A4215D1AC
:100CC000A2EB0C03934313EACC130BD150F8042B83
:100CD00051F8043B9A4209D1A2EB0C03934313EA67
:100CE000CC13DBD04FF00000704700BFD01A01BA20
:100CF000B1FA81F101F0180122FA01F0CB40C1F103
:100D00002001DBB2C0B2C01A2CFA01F3D11A914310
:100D100011EAC311E6D1704701491820ABBEFEE7C6
:100D20002600020070475FEA400C08BF91F0000FF8
:100D30004FEA8C234FEAC12243EA51514FEA1C503B
:100D400018BF00F5F0404FEA300018BF41F00041F5
:100D50005FEA6C5C00F02980BCF1FF3F08BF40F007
:100D600080407047130C06BF12044FF0100C4FF078
:100D7000000C130E04BF12020CF1080C130F04BF79
:100D800012010CF1040C930F04BF92000CF1020C41
:100D9000D30F04BF52000CF1010C11464FF00002BA
:100DA000A0F11F00A0EB0C00704711F0004F08BF2E
:100DB000704731F000413FF4D5AF0B0C06BF09047A
:100DC0004FF0100C4FF0000C0B0E04BF09020CF199
:100DD000080C0B0F04BF09010CF1040C8B0F04BFAE
:100DE00089000CF1020CCB0F04BF49000CF1010C7F
:100DF000CCF12003A0EB0C0022FA03F302FA0CF270
:100E000041EA030100F10100704720F07F4C80EAC5
:100E1000030023F07F47ACEB070303F57C5300F09E
:100E2000004003F1FF032DE980494FEA154B09B457
:100E30004FEA144325EA0B4E24EA03480FF2042636
:100E400006EB132749083E785FEA320203FB066788
:100E5000C7F5000707FB06F64FEA54374FEAD646B8
:100E600006F1020607FB066CCCF1005C4FEA1C475A
:100E70002CEA074C07FB06F40CFB06F504EB1546C1
:100E80004FEA961634BF00204FF000404FEAD137AA
:100E900006FB07FC4FEA1C4C0CFB0BF7D21B03FBB9
:100EA0000CF761EB07010CFB0EF7B0EB074072EBA0
:100EB00017420CFB08F734BFA2EB0742B2EB074224
:100EC00061EB17414FEA0C444FEA910706FB07FC20
:100ED0004FEA1C4C0CFB0BF7B0EBC74072EB5732E0
:100EE00003FB0CF734BFA2EBC742B2EBC74261EB86
:100EF00057310CFB0EF7B0EBC70072EB57720CFBCF
:100F000008F734BFA2EBC702B2EBC70261EB57711F
:100F1000039F4FEA816141EA921104EBCC044FEA4E
:100F2000D1374FEA826206FB07FC42EA90124FEA91
:100F300080604FEA1C4C0CFB0BF7D21B03FB0CF739
:100F400061EB07010CFB0EF7B0EB074072EB1742A9
:100F50000CFB08F734BFA2EB0742B2EB074261EB90
:100F600017414FEA8C554FEA910704EB9C2406FB8E
:100F700007FC4FEA1C4C0CFB0BF7B0EBC74072EBC5
:100F8000573203FB0CF734BFA2EBC742B2EBC742A8
:100F900061EB57310CFB0EF7B0EBC70072EB5772E9
:100FA0000CFB08F734BFA2EBC702B2EBC70261EB40
:100FB000577115EB4C254FEA816141EA92114FEAD6
:100FC00082624FEAD13742EA901206FB07FC44F1F5
:100FD00000044FEA80604FEA1C4C0CFB0BF7D21B5D
:100FE00003FB0CF761EB07010CFB0EF7B0EB0740BE
:100FF00072EB17420CFB08F734BFA2EB0742B2EBCF
:10100000074261EB174115EB1C154FEA813141EAAC
:1010100092414FEA823242EA90424FEA80304FEAF0
:101020000C7644F1000448EA03434EEA0B484FF0C3
:10103000000EB2EB080C71EB030724BF6246394681
:101040004EEB0E0E4FF0000B0018524149414BEB96
:101050000B0BB2EB080C71EB03077BF1000B24BF09
:10106000624639464EEB0E0E4FF0000B001852410F
:1010700049414BEB0B0BB2EB080C71EB03077BF117
:10108000000B24BF624639464EEB0E0E51EA0207B2
:1010900018BF46F0010616EB0E7655F1000254F12A
:1010A000000103D5BDE88901BDE80088BDE88901DC
:1010B000BDE80048B619524141EB0101A3F101031B
:1010C000704780807F7E7D7C7B7A797877767675B5
:1010D0007473727171706F6E6E6D6C6C6B6A6A692D
:1010E0006868676666656464636362616160605FC7
:1010F0005F5E5E5D5D5C5C5B5B5A5A595958585740
:1011000057565655555554545353525252515150A7
:1011100050504F4F4F4E4E4D4D4D4C4C4C4B4B4BFA
:101120004A4A4A4949494848484747474746464640
:10113000454545444444444343434342424242417B
:101140004141002B9C4630D477002BD01CB54FEA90
:10115000370703B44FF010004FF01001BAF1000F41
:1011600006D0BCF1000FDCBF40F0080040F00801E1
:101170004FF000000FBCBDE810400BF1010BBBF1BC
:10118000010F08BF5FEA170722BF12F1010211F138
:1011900001014FF0004143F1000300F0004043EA39
:1011A00000007047F9D35708D0E746EA064613F126
:1011B000400F4FEA16461FDD13F1200FDFBF164325
:1011C0000A46002120335B42BED0C3F1200746EA25
:1011D000064602FA07F74FEA164646EA0706C3F143
:1011E000200722FA03F201FA07F721FA03F14FF080
:1011F000000342EA0702A7E746EA020646EA064675
:101200004FEA164646EA0106BCBF46EA0646360CD9
:101210004FF000034FF000024FF0000194E72DE97A
:10122000804C9A46934670B491E8380007C831EA7A
:10123000400C48BF34EA430C03D5FFF7E6FDFFF747
:1012400080FFF0BCBDE8008C2DE9804C9A469346A7
:1012500070B491E8380007C810F0804F08BF13F051
:10126000804F03D100F005F8FFF76BFFF0BCBDE83D
:10127000008C20F07F4780EA030023F07F4C07EBCF
:101280000C03A3F57C5300F00040A3F1FE0392F0A1
:10129000000F00F0B38095F0000F00F077802DE98B
:1012A00001494FEA11404FEA144621EA004800FB89
:1012B00006FC24EA064708FB06F607FB08F800FBD5
:1012C00007F718EB06484CEB164C4FEA124B18EB9D
:1012D00007484FEA15464CEB174022EA0B4E0BFB32
:1012E00006FC25EA06470EFB06F607FB0EFE0BFB87
:1012F00007F71EEB064E4CEB164C4FF000061EEBAC
:10130000074E4CEB174B18EB0B0840F1000018EBA5
:101310000E0B58EB000840F100008F1A4FF000014F
:101320003CBFC943661B14BFB5EB040C00213CBF96
:10133000C943F61B4FEA17444EEA8E0E27EA0445CE
:101340004FEA1C4704FB07622CEA074C05FB07F732
:101350000CFB05F604FB0CFC16EB074642EB1742B0
:1013600016EB0C4642EB1C421BEB060658EB020246
:10137000414146EA9E0601D5BDE80189B6195241B0
:1013800041EB0101A3F10103BDE801894FEA1445D6
:101390004FEA114724EA054621EA074C05FB07F40A
:1013A00006FB07F70CFB06F105FB0CFC11EB0741F4
:1013B00044EB17444FEA124711EB0C4144EB1C4439
:1013C00022EA074C05FB07F206FB07F70CFB06F6C3
:1013D00005FB0CFC16EB074642EB174216EB0C46DE
:1013E00042EB1C456A1854F1000148BF7047B6191A
:1013F000524141EB0101A3F10103704795F0000F49
:1014000037D04FEA11424FEA144721EA024624EA54
:10141000074C02FB07F106FB07F70CFB06F402FB87
:101420000CFC14EB074441EB17414FEA154714EB52
:101430000C4441EB1C4125EA074C02FB07F506FB77
:1014400007F70CFB06F602FB0CFC16EB074645EB18
:10145000174516EB0C4645EB1C42121951F10001E1
:1014600048BF7047B619524141EB0101A3F1010396
:1014700070474FEA14454FEA114724EA054621EA2E
:10148000074C05FB07F106FB07F70CFB06F24FF0D4
:10149000000605FB0CFC12EB074241EB174112EB77
:1014A0000C4251EB1C4148BF7047921841EB0101BF
:1014B000A3F10103704770B50446002520688068D9
:1014C00000F0010018B32068806820F00100216856
:1014D000886001F055FA054613E001F051FA401B0F
:1014E00002280ED92068806800F0010048B1A06A87
:1014F00040F01000A062E06A40F00100E0620120CC
:1015000070BD2068806800F001000028E5D100204F
:10151000F6E7000038B5044600250020009020685A
:10152000806800F0010078BB2068806840F001000E
:1015300021688860194800681949B0FBF1F00090F3
:1015400002E00098401E009000980028F9D101F0B8
:1015500017FA054619E001F013FA401B022814D9C6
:101560002068806800F0010078B9A06A40F010009F
:10157000A062E06A40F00100E06200BF002084F851
:10158000240000BF012038BD05E02068806800F01D
:1015900001000028DFD00020F5E700008C010020CA
:1015A00040420F002DE9F04F89B04FF0030A50463A
:1015B00000F03AFBFE4908600022FE4B10464FF057
:1015C000804109F0F5FCCDE90401FB4800880BF0EF
:1015D00083FE8046DDE904230BF0B2FC06460F468D
:1015E000F6490A68F6490988501A0BF05EFE324641
:1015F0003B46CDE906010BF0BFFE04460BF0F8FDBB
:10160000F04908600A68F049B1F9001050180BF071
:101610004CFE06460F460022EC4B10464FF0804130
:1016200009F0C6FC80468946E948B0F900000BF095
:101630003CFE42464B46CDE904010BF09DFE32468E
:101640003B46CDE906010BF07BFC04460BF0D0FDD8
:10165000E0490860DB48006809680844DE49086022
:1016600008460068A0F57A60DC4908600022D74B84
:1016700010464FF0804109F09BFC04460D460022C5
:10168000D74B1046D90209F093FC80468946D349CE
:10169000096801FB01F00BF008FE42464B46CDE91C
:1016A00000010BF04DFCCDE90201CE48B0F900007D
:1016B0000BF0FBFD0646DDE902230BF05DFE224642
:1016C0002B46CDE904010BF03BFCCDE906010BF004
:1016D0008FFDBC4908600022BC4B10464FF0804192
:1016E00009F066FC06460F46BF49B1F90010BB4A37
:1016F000126801FB02F00BF0D8FD804632463B46F3
:101700000BF01EFC04460BF073FDB2490860AD48B7
:10171000006809680844B5490860B549B1F9001086
:10172000B24A126802EB810101FA0AF1881CC11762
:1017300000EB91718910AF4A11600022AE4B104648
:10174000590309F035FC06460F46AC49B1F90010C3
:10175000A24A126801FB02F00BF0A7FD8046324658
:101760003B460BF0EDFB04460BF042FD954908604B
:101770000022A34B10464FF0804109F019FC0022D3
:10178000974BCDE904011046D90209F011FCCDE9CF
:1017900002019249096801FB01F00BF086FDCDE9D9
:1017A0000001DDE902230BF0CBFB06460F4695480E
:1017B000B0F900000BF079FD804632463B460BF055
:1017C000DBFD0446DDE904230BF0BAFBCDE906019D
:1017D0000BF00EFD7F49086000224FF08043104659
:1017E000194609F0E5FB8046894676490968794A39
:1017F00012681144881C0BF058FD064642464B46C1
:101800000BF09EFB04460BF0F3FC784908600022C5
:10181000684B10464FF0804109F0CAFB06460F4660
:1018200079490988714A126802F5004201FB02F009
:101830000BF052FD804632463B460BF081FB0446DE
:101840000BF006FD7149086059480068694909684C
:10185000401A4CF2503141FA0AF148436C49086091
:1018600008460068B0F1004F0CD2084600684000FE
:1018700066490968B0FBF1F420460CF0AFFA6549FF
:1018800008600BE06248006860490968B0FBF1F04D
:10189000440020460CF0A2FA5E49086000225E4B2C
:1018A0001046590209F084FB04460D465948006869
:1018B0000CF0CCF8064622462B460BF041FB804646
:1018C00089460022544B1046590209F071FB044628
:1018D0000D46504800680CF0B9F8064622462B46E3
:1018E0000BF02EFB42464B46CDE904010BF044FDC4
:1018F000CDE906010BF07CFC324908600022404B28
:1019000010464FF0804109F053FB804689462D492F
:10191000096840F6DE3201FB02F00BF0C6FC064619
:1019200042464B460BF00CFB04460BF061FC25498C
:1019300008600022324B10464FF0804109F038FB1E
:1019400006460F463348016834480CF08FFA834648
:101950000CF07CF8804632463B460BF0F1FA044628
:101960000BF046FC1B49086000222D4B10469902E3
:1019700009F01EFB8046894612490968154A12681B
:10198000114401F6CF600BF090FC42464B46CDE986
:1019900002010BF0D5FACDE904011E4800680CF0F5
:1019A00055F80646DDE904230BF00EFA044639E04B
:1019B0002000002000002E40080000203C000020F5
:1019C0000A0000202400002014000020000026400F
:1019D00012000020280000202C00002030000020F1
:1019E000000028400E0000200200002034000020EB
:1019F000000000203800002000002A4004000020E1
:101A0000000030400C0000200600002040000020B4
:101A100044000020480000200000204000E8E5C508
:101A20000000104007480CC820460BF0A5FCCDE98B
:101A300006010BF097F9044908600846006809B0F0
:101A4000BDE8F08F180000204800002000BFFEE72E
:101A50000346042B15D007DC7BB1012B0ED0022BE3
:101A60000DD0032B12D10BE0202B0BD0212B0AD051
:101A7000222B09D0232B09D107E008E007E006E07C
:101A800005E004E003E002E001E000E000BF00BF89
:101A9000002070470020704710B500220449054817
:101AA00005F091F90449034805F086F9002010BDBE
:101AB0009C0C0020F0030020B408002070B5044600
:101AC0000D462146034805F077F9024805F050F924
:101AD000002070BDF00300202DE9F04104460D46C2
:101AE00000260A48D0F8B872D7F8140210B10120C5
:101AF000BDE8F0812A462146044805F064F9034810
:101B000005F0E5F906463046F2E70000F003002054
:101B10007047000001B5094800680949B0FBF1F0C1
:101B20000921B0FBF1F000994843009000BF0098F4
:101B3000411E00910028FAD108BD00008C01002050
:101B400040420F0010B5012000F06EFD10BD10B531
:101B50004FF4006000F068FD10BD10B5022000F0E9
:101B600063FD10BD10B5802000F05EFD10BD72B6A3
:101B700000BFFEE72DE9F04F87B04FF4FA7007F091
:101B800005FD1449088808F081FA01900BF05EFF0A
:101B900080460022104B0BF0D3F9104A104BCDE9D0
:101BA00002010BF0E9FB06460E4A0F4B0BF0C8F999
:101BB00004460E4A0E4B0BF0DFFB00224FF0804331
:101BC000CDE904010BF0BCF982460BF0CBF807B06D
:101BD000BDE8F08F5600002000408F400AD7A37068
:101BE0003D0AF73FA019C40776FC473F643BDF4F2F
:101BF0008D97F23F70B50A480468001D0568001D06
:101C00000668344454B108220649204604F07EF99F
:101C1000042204491031284604F078F970BD000010
:101C2000E8F7FF1F5601002010B586B004463420A7
:101C300000EB8410C0B20590002004904FF47A703D
:101C4000012105AA0B46CDE900210290F422EE21E4
:101C50001B4801F099FB34B1012C08D0022C0AD0AA
:101C6000032C10D10BE0052000F09EFB0BE00820B8
:101C700000F09AFB07E00E2000F096FB03E01A202C
:101C800000F092FB00BF00BF4FF47A70032104AA5A
:101C90000123CDE900210290F622EE21084801F04F
:101CA000C1F99DF8100000049DF8111000EB01200F
:101CB0009DF812100844C4F10801084106B010BD97
:101CC00054030020F8B5044600260020009000BF11
:101CD00094F82400012801D10220F8BD012084F8E5
:101CE000240000BF2046FFF7E6FB0646002E6CD11D
:101CF000A06A20F4885040F00200A062022002F0A6
:101D000033FC35490968B1FBF0F04000009002E077
:101D10000098401E009000980028F9D12046FFF757
:101D2000F9FB2068806840F008002168886000F0B6
:101D300027FE054616E000F023FE401B0A2811D9B5
:101D40002068806800F0080060B1A06A20F00200FE
:101D500040F01000A06200BF002084F8240000BF03
:101D60000120BAE72068806800F008000028E2D16E
:101D70002068806840F004002168886000F000FE60
:101D8000054616E000F0FCFD401B0A2811D920682A
:101D9000806800F0040060B1A06A20F0020040F00A
:101DA0001000A06200BF002084F8240000BF0120C2
:101DB00093E72068806800F004000028E2D1A06A60
:101DC00020F0020040F00100A06200BF002084F873
:101DD000240000BF304680E78C01002038B5024661
:101DE00000230020009000BF92F82400012801D1B8
:101DF000022038BD012082F8240000BF486807286F
:101E000012D21068406B0C79641E04EB84051F2409
:101E1000AC40A0430D796D1E05EB85050C68AC4008
:101E200020431468606327E048680D2812D21068C8
:101E3000006B0C79E41F04EB84051F24AC40A04325
:101E40000D79ED1F05EB85050C68AC402043146847
:101E5000206311E01068C06A0C790D3C04EB840526
:101E60001F24AC40A0430D790D3D05EB85050C68A2
:101E7000AC4020431468E06208680A2812D3106856
:101E8000C0680C780A3C04EB44050724AC40A0432E
:101E90000D780A3D05EB45058C68AC40204314687D
:101EA000E0600FE0106800690C7804EB440507243B
:101EB000AC40A0430D7805EB45058C68AC40204351
:101EC000146820610868102802D00868112827D1FA
:101ED000174C1068A0421ED11068806800F4000002
:101EE000F0B91068806840F400001468A0600868C9
:101EF000102815D10F4800680F4CB0FBF4F000EB30
:101F000080004000009002E00098401E0090009881
:101F10000028F9D104E0906A40F02000906201238B
:101F200000BF002082F8240000BF184661E70000CF
:101F3000002401408C01002040420F000146086847
:101F4000C06C70472DE9F0410446002700250026AB
:101F5000A84614B90120BDE8F081A06810B1207D29
:101F600000B100BFA06A30B90020E06284F824000C
:101F7000204600F089F82046FFF79DFA0746A06A40
:101F800000F01000002873D1002F71D1A06A20F456
:101F9000885040F00200A062E16960680843217B3C
:101FA00040EA41000643A068B0F5807F02D0A068F7
:101FB000012802D14FF4807000E000200543207D0D
:101FC000012811D1207B38B9A069401E4FF400616F
:101FD00041EA4030054307E0A06A40F02000A062DB
:101FE000E06A40F00100E0622068406820F4694047
:101FF00028432168486020688068214908403043B0
:1020000021688860A068B0F5807F02D0A0680128B0
:1020100002D14FF4807000E00020B0F5807F03D142
:10202000208A401E4FEA00582068C06A20F47000E1
:1020300040EA08002168C8622068806811490840A9
:10204000B04208D10020E062A06A20F0020040F017
:102050000100A06211E0A06A20F0020040F0100030
:10206000A062E06A40F00100E062012705E0FFE7BE
:10207000A06A40F01000A062012738466BE700001C
:10208000FDF7E1FFFE0E1FFF10B586B004460020ED
:10209000029003900490059014492068884222D150
:1020A00000BF1348806940F40070114988610846F8
:1020B000806900F40070019000BF00BF00BF0846B7
:1020C000806940F0040088610846806900F00400DF
:1020D000019000BF00BF072002900320039002A9D7
:1020E000044800F0AFFA06B010BD00000024014023
:1020F0000010024000080140F8B504460D460026D5
:1021000000200090002700F03BFC06462068806815
:1021100000F4807050B1A06A40F02000A06200BFBF
:10212000002084F8240000BF0120F8BD206840682A
:1021300000F4807020BB2068C06A00F47000F8B919
:1021400017E0681CA8B125B100F01AFC801BA8425A
:102150000FD92068006800F0020050B9A06A40F072
:102160000400A06200BF002084F8240000BF032008
:10217000DBE72068006800F002000028E1D053E0AF
:10218000022002F0F1F938490968B1FBF0F021684A
:102190000969364A114091B92168C9689211114004
:1021A00069B921680969324A114031B92168C968A1
:1021B0009211114009B9142117E0292115E0216875
:1021C00009692B4A114021B92168C968921111404F
:1021D00041B121680969274A114029B92168C968B4
:1021E000114009B9542100E0FC2100FB01F718E07F
:1021F000681C98B125B100F0C3FB801BA8420DD923
:102200000098B8420AD2A06A40F00400A06200BF61
:10221000002084F8240000BF032086E70098401CBB
:1022200000900098B842E3D36FF012002168086074
:10223000A06A40F40070A0622068806800F460200A
:10224000B0F5602F0DD1207B58B9A06A20F48070C2
:10225000A062A06A00F4805018B9A06A40F00100A2
:10226000A062002061E700008C0100202449922434
:10227000922449124992240070B50446002500BFFB
:1022800094F82400012801D1022070BD012084F8B7
:10229000240000BF2046FFF73DF90546002D77D109
:1022A000A06A40F20121884340F48070A0623C495A
:1022B0002068884208D13B48006800F4702008B9C3
:1022C000012002E0002000E0012078B1A06A20F4A3
:1022D0008010A0622068406800F4806000B3A06AAB
:1022E00020F4005040F48050A06219E0A06A40F44D
:1022F0008010A0622B49091F2068884203D028491A
:102300002068884204D12748006800F4806000E01B
:10231000002028B1A06A20F4005040F48050A06250
:10232000A06A00F4805020B1E06A20F00600E0626C
:1023300001E00020E06200BF002084F8240000BF1C
:10234000C01E216808602068806800F46020B0F535
:10235000602F16D112492068884208D111480068C0
:1023600000F4702008B9012002E0002000E0012004
:1023700038B12068806840F4A000216888600CE0D3
:1023800006E02068806840F480102168886004E0DE
:1023900000BF002084F8240000BF284675E7000035
:1023A000002801400424014070B5044600F0E8FA1A
:1023B00006462546681C10B104480078054400BF55
:1023C00000F0DEFA801BA842FAD370BD880100201D
:1023D0002DE9F04102460B4600207FE001278740AF
:1023E00007EA0301002978D0404F4FEA900C57F8D4
:1023F0002C4087074FEA177C0F2707FA0CF73C4061
:102400003B4FBA4201D100270FE03A4FBA4201D107
:1024100001270AE0384FBA4201D1022705E0374FC1
:10242000BA4201D1032700E004274FEA807C4FEA3B
:102430001C7C07FA0CF7A74230D187074FEA177CBC
:102440000F2707FA0CF4294F4FEA900C57F82C701D
:10245000A743DFF898C04FEA90084CF82870284F3F
:102460003F688F43DFF898C0CCF800700CF1040788
:102470003F688F430CF1040CCCF800700CF104079A
:102480003F688F430CF1040CCCF800700CF104078A
:102490003F688F430CF1040CCCF80070FF2901D881
:1024A000174600E0171D3D46FF2901D8870002E0CE
:1024B000A0F10807BF003E462F684FF00F0C0CFA42
:1024C00006FC27EA0C074FF0040C0CFA06FC47EA5E
:1024D0000C072F60D7688F43D760401C23FA00F7A2
:1024E000002F7FF47BAFBDE8F081000008000140C1
:1024F00000080140000C01400010014000140140A0
:102500000004014010B504463A480078092803D079
:1025100038480078072859D1002037490870802CA6
:1025200007D18021354800F01DFA10B90120324949
:102530000870012C07D10121314800F013FA10B9BD
:1025400002202D490870022C07D102212C4800F0EE
:1025500009FA10B903202849087000202949087099
:10256000062001F06DF8072001F06AF8172001F04D
:1025700067F8282001F064F801202349087000F072
:10258000FFF922490968401A2149086000F0F8F96A
:102590001E4908601F4800780A280EDA00F0F0F99A
:1025A0001D490968401A1D491A4A127841F822004B
:1025B00018480078401C17490870B4F5006F05D121
:1025C00004200D49087001200E4908700948007860
:1025D0000C280DD107F01CF8802C09D11048006898
:1025E000401C0F4908600F480068401C0D490860F6
:1025F00010BD0000510000206500002000080140CF
:10260000000C01408E0000208D0000206C00002096
:10261000680000206600002060000020C802002042
:10262000A0000020B400002010B504460448006853
:10263000204020B1024804602046FFF763FF10BD30
:10264000140401402DE9F8470346002294466EE148
:102650004FF0010808FA02F4D1F8008008EA0400FB
:10266000A0427DD1DFF8DCA2D1F80480A8EB0A09F2
:10267000D0453AD014DCB8F1030F50D009DCB8F1E2
:10268000000F31D0B8F1010F1CD0B8F1020F49D1C1
:1026900020E0B8F1110F18D0B8F1120F42D11EE0AE
:1026A000B9F5881F25D006DCB9F5803F20D0B9F5F3
:1026B000801F37D11AE0B9F5001F18D0B9F5041FF3
:1026C00030D117E0D1F80CC02DE0D1F80C8008F122
:1026D000040C28E0D1F80C8008F1080C23E0D1F8B4
:1026E0000C8008F10C0C1EE000BF00BF00BF00BF53
:1026F00000BF00BFD1F80880B8F1000F02D14FF041
:10270000040C0BE0D1F80880B8F1010F03D14FF0B1
:10271000080C1C6102E04FF0080C5C6103E04FF014
:10272000000C00E000BF00BFFF2801D8984601E080
:1027300003F104084646FF2802D84FEA820803E066
:10274000A2F108084FEA88084746D6F800804FF003
:102750000F0909FA07F928EA09080CFA07F900E055
:1027600088E048EA0908C6F80080D1F8048008F03B
:102770008058B8F1805F7DD100BFDFF8CC81D8F8F8
:10278000188048F00108DFF8C091C9F81880C846E1
:10279000D8F8188008F00108CDF8008000BF00BF0D
:1027A0004FEAB9384FEA920958F829504FEA82782F
:1027B0004FEA18794FF00F0808FA09F825EA0805DA
:1027C000DFF88881434502D14FF0000816E0DFF8BA
:1027D0008081434502D14FF001080FE0DFF874819A
:1027E000434502D14FF0020808E0DFF86C81434511
:1027F00002D14FF0030801E04FF004084FEA82795C
:102800004FEA197908FA09F848EA0505DFF84C811A
:102810004FEA920948F82950D1F8048008F480382A
:10282000B8F5803F0AD1DFF83881D8F8008048EA4F
:102830000008DFF82C91C9F8008009E0DFF820815A
:10284000D8F8008028EA0008DFF81491C9F8008061
:10285000D1F8048008F40038B8F5003F10D1DFF853
:10286000008108F10408D8F8008048EA0008DFF881
:10287000F09000E05AE009F10409C9F800800DE089
:10288000DFF8DC8008F10408D8F8008028EA0008A6
:10289000DFF8CC9009F10409C9F80080D1F8048070
:1028A00008F48018B8F5801F0ED1DFF8B48008F165
:1028B0000808D8F8008048EA0008DFF8A49009F179
:1028C0000809C9F800800DE0DFF8948008F10808D5
:1028D000D8F8008028EA0008DFF8849009F1080998
:1028E000C9F80080D1F8048008F40018B8F5001F7A
:1028F0000ED1DFF86C8008F10C08D8F8008048EAA7
:102900000008DFF85C9009F10C09C9F800800DE0BF
:10291000DFF84C8008F10C08D8F8008028EA00089D
:10292000DFF83C9009F10C09C9F80080521CD1F87D
:10293000008028FA02F8B8F1000F7FF489AEBDE8F4
:10294000F88700000000111000100240000801404C
:10295000000C01400010014000140140080001403B
:1029600000040140024693680B400BB1012000E0D7
:10297000002070470AB1016101E00B040361704758
:1029800001480068704700008001002070B50446CF
:102990000CB9012070BD94F83D0028B9002084F8DE
:1029A0003C00204600F0A2FD242084F83D00206871
:1029B000006820F00100216808602068006840F489
:1029C0000040216808602068006820F40040216809
:1029D000086001F0B9FF05465C496068884206D886
:1029E0005B48854201D2012007E0002005E05948FC
:1029F000854201D2012000E00020012800D1C9E772
:102A00005548B5FBF0F62068406820F03F003043A1
:102A1000216848604D496068884201D8701C07E011
:102A20004FF4967070434FF47A71B0FBF1F0401C94
:102A30002168096A21F03F0108432168086243497F
:102A40006068884214D8681E61684900B0FBF1F0E4
:102A5000401CC0F30B00042801D204203DE0681E96
:102A600061684900B0FBF1F0401CC0F30B0034E09A
:102A7000A06838B9681E616801EB4101B0FBF1F054
:102A8000401C0AE0681E616801EBC10202EB011103
:102A9000B0FBF1F0401C40F48040C0F30B0008B9DB
:102AA00001201AE0A06848B9681E616801EB410185
:102AB000B0FBF1F0401CC0F30B000CE0681E616835
:102AC00001EBC10202EB0111B0FBF1F0401CC0F3BD
:102AD0000B0040F4804040F400402168C9694CF686
:102AE000FF72914308432168C861D4E90701084394
:102AF0002168096821F0C001084321680860D4E911
:102B0000031008432168896848F2FF329143084363
:102B100021688860D4E9050108432168C96821F06B
:102B2000FF0108432168C8602068006840F0010088
:102B30002168086000202064202084F83D000020E7
:102B4000206384F83E0000BF24E70000A086010057
:102B500080841E0000093D0040420F002DE9FC4723
:102B600004468946174698460A9E00200190FFF7C2
:102B700007FF054694F83D0020286FD11923012254
:102B8000C8492046009502F0E5FF10B10220BDE8DB
:102B9000FC8700BF94F83C00012801D10220F6E731
:102BA000012084F83C0000BF2068006800F00100AC
:102BB00028B92068006840F001002168086020689A
:102BC000006820F4006021680860222084F83D003D
:102BD000102084F83E00002020646762A4F82A8058
:102BE000608D2085B048E0622B463246494620463B
:102BF00002F066FD08B10120C9E7208D88B900BF49
:102C00000020009020684069009020688069009052
:102C100000BF00BF2068006840F4007021680860B1
:102C20004BE0208D01281AD12068006820F48060D4
:102C30002168086072B600BF0020009020684069DB
:102C4000009020688069009000BF00BF2068006885
:102C500040F400702168086062B62EE020E1208D0B
:102C6000022819D12068006840F4006021680860DB
:102C700072B600BF00200090206840690090206874
:102C80008069009000BF00BF2068006820F4806069
:102C90002168086062B610E02068006840F4806037
:102CA0002168086000BF0020009020684069009003
:102CB00020688069009000BF00BFE2E0208D0328FB
:102CC0007ED8208D012815D12A463146204602F0B3
:102CD000E6FF08B101205AE720680069616A0870C0
:102CE000606A401C6062208D401E2085608D401E01
:102CF0006085C6E0208D02282CD1334600226B4926
:102D00002046009502F026FF08B101203FE772B689
:102D10002068006840F4007021680860206800693D
:102D2000616A0870606A401C6062208D401E2085C8
:102D3000608D401E608562B620680069616A087017
:102D4000606A401C6062208D401E2085608D401EA0
:102D5000608596E03346002254492046009502F0F3
:102D6000F9FE08B1012012E72068006820F48060B5
:102D70002168086072B620680069616A0870606A3C
:102D8000401C6062208D401E2085608D401E608545
:102D9000474800681921B0FBF1F04FF47A71B0FB9D
:102DA000F1F0C0EBC00000EB8000019000BF019883
:102DB000401E01900198A8B900202063202000E067
:102DC00038E084F83D00002084F83E00206C40F09C
:102DD0002000206462B600BF002084F83C0000BFE1
:102DE0000120D4E620684069C0F380000028DED0CE
:102DF0002068006840F4007021680860206800695D
:102E0000616A0870606A401C6062208D401E2085E7
:102E1000608D401E608562B620680069616A087036
:102E2000606A401C6062208D401E2085608D401EBF
:102E3000608526E02A463146204602F030FF08B180
:102E40000120A4E620680069616A0870606A401C7D
:102E50006062208D401E2085608D401E6085206848
:102E60004069C0F3800060B120680069616A087041
:102E7000606A401C6062208D401E2085608D401E6F
:102E80006085208D00287FF419AF202084F83D0054
:102E9000002084F83E0000BF84F83C0000BF76E6C6
:102EA000022074E6020010000000FFFF0400010091
:102EB0008C0100202DE9F8430446894616461F463A
:102EC000DDF82080FFF75CFD054694F83D002028E2
:102ED0007ED11923012251492046009502F03AFE85
:102EE00010B10220BDE8F88300BF94F83C0001282F
:102EF00001D10220F6E7012084F83C0000BF2068E1
:102F0000006800F0010028B92068006840F0010066
:102F1000216808602068006820F40060216808606B
:102F2000212084F83D00102084F83E000020206419
:102F300066626785608D20853948E0622B4642468F
:102F40004946204602F058FC08B10120CAE700BFFC
:102F500000200090206840690090206880690090FF
:102F600000BF00BF44E02A464146204602F0D7FE9B
:102F700050B1206C042805D12068006840F400702E
:102F8000216808600120ADE7606A00782168086167
:102F9000606A401C6062608D401E6085208D401E0E
:102FA000208520684069C0F3800070B1208D60B139
:102FB000606A007821680861606A401C6062608D08
:102FC000401E6085208D401E20852A46414600E037
:102FD00022E0204602F090FD50B1206C042805D17B
:102FE0002068006840F4007021680860012079E7DB
:102FF000208D0028B7D12068006840F40070216857
:103000000860202084F83D00002084F83E0000BFC6
:1030100084F83C0000BF65E7022063E7020010006F
:103020000000FFFF2DE9FE4F04460F4690469946EB
:10303000DDE90CAB0E9E00200290FFF7A1FC0546D7
:1030400094F83D00202872D119230122CA49204654
:10305000009502F07FFD10B10220BDE8FE8F00BF99
:1030600094F83C00012801D10220F6E7012084F801
:103070003C0000BF2068006800F0010028B920680B
:10308000006840F00100216808602068006820F4B2
:10309000006021680860222084F83D00402084F808
:1030A0003E0000202064C4F824A0A4F82AB0608D5B
:1030B0002085B248E0624B46424639462046CDE97B
:1030C000006502F0F9FB08B10120C6E7208D88B940
:1030D00000BF00200190206840690190206880694D
:1030E000019000BF00BF2068006840F400702168B4
:1030F00008604BE0208D01281AD12068006820F478
:1031000080602168086072B600BF002001902068CE
:103110004069019020688069019000BF00BF20686D
:10312000006840F400702168086062B62EE020E17B
:10313000208D022819D12068006840F400602168C1
:10314000086072B600BF00200190206840690190BD
:1031500020688069019000BF00BF2068006820F4EB
:1031600080602168086062B610E02068006840F462
:1031700080602168086000BF0020019020684069DD
:10318000019020688069019000BF00BFE2E0208DBF
:1031900003287DD8208D012815D12A4631462046A6
:1031A00002F07DFD08B1012057E720680069616ADF
:1031B0000870606A401C6062208D401E2085608D12
:1031C000401E6085C6E0208D02282CD133460022A7
:1031D0006B492046009502F0BDFC08B101203CE798
:1031E00072B62068006840F40070216808602068AA
:1031F0000069616A0870606A401C6062208D401E30
:103200002085608D401E608562B620680069616A15
:103210000870606A401C6062208D401E2085608DB1
:10322000401E608596E033460022554920460095B1
:1032300002F090FC08B101200FE72068006820F43C
:1032400080602168086072B620680069616A087051
:10325000606A401C6062208D401E2085608D401E8B
:103260006085484800681921B0FBF1F04FF47A718D
:10327000B0FBF1F0C0EBC00000EB8000029000BF9B
:103280000298401E02900298A8B90020206300E036
:1032900039E0202084F83D00002084F83E00206CB6
:1032A00040F02000206462B600BF002084F83C009B
:1032B00000BF0120D1E620684069C0F380000028EB
:1032C000DED02068006840F4007021680860206843
:1032D0000069616A0870606A401C6062208D401E4F
:1032E0002085608D401E608562B620680069616A35
:1032F0000870606A401C6062208D401E2085608DD1
:10330000401E608526E02A463146204602F0C7FC72
:1033100008B10120A1E620680069616A0870606A4E
:10332000401C6062208D401E2085608D401E60859F
:1033300020684069C0F3800060B120680069616A5C
:103340000870606A401C6062208D401E2085608D80
:10335000401E6085208D00287FF419AF202084F85E
:103360003D00002084F83E0000BF84F83C0000BF10
:1033700073E6022071E60000020010000000FFFF6B
:10338000040001008C0100202DE9FC5F04460F467B
:1033900090469946DDE90CAB0E9EFFF7F1FA054623
:1033A00094F83D0020287DD1192301224D49204663
:1033B000009502F0CFFB10B10220BDE8FC9F00BFDA
:1033C00094F83C00012801D10220F6E7012084F89E
:1033D0003C0000BF2068006800F0010028B92068A8
:1033E000006840F00100216808602068006820F44F
:1033F000006021680860212084F83D00402084F8A6
:103400003E0000202064C4F824A0A4F82AB0608DF7
:1034100020853548E0624B46424639462046CDE994
:10342000006502F0F9FA08B10120C6E731E02A464A
:103430003146204602F073FC50B1206C042805D1BF
:103440002068006840F40070216808600120B4E73B
:10345000606A007821680861606A401C6062208DA3
:10346000401E2085608D401E608520684069C0F345
:10347000800070B1208D60B1606A007821680861B9
:10348000606A401C6062208D401E2085608D401E59
:103490006085208D0028CAD12A463146204602F098
:1034A0002BFB00E01CE050B1206C042805D1206803
:1034B000006840F400702168086001207DE7206802
:1034C000006840F4007021680860202084F83D0006
:1034D000002084F83E0000BF84F83C0000BF6CE789
:1034E00002206AE7020010000000FFFF10B586B05E
:1034F000044600200290039004900590154920682E
:10350000884225D100BF1448806940F00800124964
:1035100088610846806900F00800019000BF00BF84
:10352000C0200290122003900320059002A90B48AE
:10353000FFF788F800BF0848C06940F4001006494A
:10354000C8610846C06900F40010019000BF00BFC8
:1035500006B010BD0054004000100240000C0140B5
:103560000348006803490978084401490860704726
:10357000800100208801002010B50848006840F054
:10358000100006490860032000F0CAF80F2000F080
:1035900007F800F02BF8002010BD000000200240CA
:1035A00070B504460E4800784FF47A71B1FBF0F024
:1035B0000C490968B1FBF0F5284601F061FC08B13F
:1035C000012070BD102C07D200222146501E00F0B1
:1035D00069F80548046001E00120F2E70020F0E707
:1035E000880100208C0100208401002008B500BF64
:1035F0001148806940F001000F49886108468069E0
:1036000000F00100009000BF00BF00BF0846C06985
:1036100040F08050C8610846C06900F080500090BA
:1036200000BF00BF00BF0549486820F0E06040F0DF
:103630000070486000BF08BD00100240000001405B
:1036400010B501460846002817DB00F01F030122D1
:103650009A400B4B440943F8242000BF00BF00BF31
:10366000BFF34F8F00BF00BF00BF00BF00BF00BF50
:10367000BFF36F8F00BF00BF00BF00BF10BD0000D1
:1036800080E100E001460846002809DB00F01F0346
:1036900001229A4043099B0003F1E023C3F8002173
:1036A00000BF70472DE9F05F80460D4616460027A3
:1036B00005F06AFE074639462A46334601F0070000
:1036C000C0F1070ABAF1040F02D94FF0040A01E071
:1036D000C0F1070AD14600F1040ABAF1070F02D27D
:1036E0004FF0000A01E0A0F1030AD4464FF0010AAE
:1036F0000AFA09FAAAF1010A0AEA020A0AFA0CFA13
:103700004FF0010B0BFA0CFBABF1010B0BEA030BB7
:103710004AEA0B042146404605F03EFEBDE8F09F14
:1037200000BF00F00702064B19684FF6FF0319406F
:10373000044B0B4343EA0221014B196000BF704761
:103740000CED00E00000FA0570B505460C4604F0EB
:103750008000802808D104F0070000EB800605F106
:10376000280000EBC60105E004EB840605F5B47003
:1037700000EBC6011AB900200873CB8004E00120D9
:1037800008730B81180C4881002070BD704770B51C
:1037900004460D4605EB850304F1280101EBC30146
:1037A0004A692946D4F8E80203F0A0FE70BD70B55E
:1037B00004460D4605EB850304F5B47101EBC30126
:1037C0004A692946D4F8E80203F010FF70BD70B5CD
:1037D00004460E4606F0800080280AD106F0070055
:1037E00000EB800104F1280000EBC10501206870A6
:1037F00009E006F0070000EB800104F5B47000EB6F
:10380000C1050020687006F00700287000BF94F81A
:10381000A802012801D1022070BD012084F8A8026D
:1038200000BF2946206804F069FD00BF002084F82D
:10383000A80200BF00BFEFE770B504460E4606F0D1
:103840000F006168884201D9012070BD06F0800038
:1038500080280AD106F0070000EB800104F128005F
:1038600000EBC1050120687009E006F0070000EBDD
:10387000800104F5B47000EBC105002068700020E1
:10388000A87006F00700287000BF94F8A80201286D
:1038900001D10220D9E7012084F8A80200BF2946FF
:1038A000206804F087FE00BF002084F8A80200BF53
:1038B00000BFCAE72DE9F04105460C46174607F45C
:1038C0008040002850D02868B0F85010207801EBD4
:1038D000C000801C296801F5806131F81000C0F338
:1038E0000906A069B04203D3A069801BA06101E072
:1038F0000020A061A069A8B900BF22785200296801
:1039000031F812104BF68F7201EA020080F4005079
:1039100040F4004141F0800123785B002A6822F8DE
:10392000131000BF07F04000A8B100BF00BF22780D
:103930005200296831F8121048F68F7201EA02002D
:1039400040F4004141F0C00123785B002A6822F86E
:10395000131000BF00BF002E55D022896169334685
:10396000286805F09DFC4EE02868B0F850102078DB
:1039700001EBC000801D296801F5806131F810005D
:10398000C0F30906A069B04203D3A069801BA061FF
:1039900001E00020A061A069A8B900BF2278520010
:1039A000296831F812104BF68F7201EA020080F498
:1039B000005040F4004141F0800123785B002A6808
:1039C00022F8131000BF07F04000A8B900BF00BFE5
:1039D00022785200296831F8121048F68F7201EAF5
:1039E000020040F4004141F0C00123785B002A68E6
:1039F00022F8131000BF00BF2EB1628961693346FF
:103A0000286805F04DFC3046BDE8F0812DE9F0470F
:103A100005460C46904608F04000002871D0286802
:103A2000B0F85010207801EBC000801C296801F527
:103A3000806131F81000C0F30907A069B84203D9CA
:103A4000A069C01BA06101E00020A061A06900285E
:103A50007ED100BF6078C8B900BF29682A68B2F873
:103A6000502011442278022303EBC20201F5806347
:103A700003EB420000BF028848F2FF331A40028085
:103A8000028842F40042028000BF13E060780128FF
:103A900010D100BF28682A68B2F85020104422785C
:103AA000022303EBC20200F5806303EB4201002214
:103AB0000A8000BF00BF00BF2968607810BB00BF4C
:103AC0002B68D5F800C0BCF850C0634494F800C01F
:103AD0004FF0060909EBCC0C03F5806909EB4C00AB
:103AE00000BFB0F800C048F2FF390CEA090CA0F89A
:103AF00000C0B0F800C04CF4004CA0F800C000BFFB
:103B000011E0C0E0607801280DD12868B0F85000BD
:103B100001442078062303EBC00001F5806303EB2A
:103B200040020020108000BF21782846FFF72FFEBA
:103B300008F48040002816D000BF00BF2278520051
:103B4000296831F8121048F68F7201EA020000E08D
:103B50000AE040F4004141F4814123785B002A6887
:103B600022F8131000BFCAE108F48040A8B100BFDA
:103B700000BF22785200296831F8121048F68F727F
:103B800001EA020040F4004141F4814223785B00E5
:103B9000296821F8132000BF00BF94F824000128F1
:103BA000E1D1606938446061E0693844E0612169CD
:103BB000206A884204D32669206A801B20620BE0B9
:103BC000206A20B93E46002084F8240004E000204A
:103BD00084F82400266A206200BF6078B8BB00BF6A
:103BE0002A682968B1F850100A442178022303EBAF
:103BF000C10102F5806303EB4101084600BF56B9DD
:103C0000038848F2FF3C03EA0C030380038843F473
:103C10000043038019E03E2E0BD800BF710806F068
:103C2000010303B1491C4FF6FF7303EA81230380AC
:103C30000BE000BF710906F01F0303B9491E4FF4E2
:103C4000004343EA8123038000BF00BF13E0FFE786
:103C5000607801280FD100BF28682A68B2F8502088
:103C600010442278022303EBC20200F5806303EBC9
:103C700042010E8000BF00BFB3B22289616928688B
:103C800005F03DFB3BE12868B0F85010207801EBCF
:103C9000C000801D296801F5806131F81000C0F373
:103CA0000907A069B84203D3A069C01BA06101E065
:103CB0000020A061A06900287DD100BF6078C8B94C
:103CC00000BF29682A68B2F85020114422780223E4
:103CD00003EBC20201F5806303EB420000BF0288E0
:103CE00048F2FF331A400280028842F40042028008
:103CF00000BF13E06078012810D100BF28682A684F
:103D0000B2F8502010442278022303EBC20200F5DF
:103D1000806303EB420100220A8000BF00BF00BFA6
:103D20002968607808BB00BF2B68D5F800C0BCF8D4
:103D300050C0634494F800C04FF0060909EBCC0C66
:103D400003F5806909EB4C0000BFB0F800C048F2F1
:103D5000FF390CEA090CA0F800C0B0F800C04CF420
:103D6000004CA0F800C000BF10E0607801280DD121
:103D70002868B0F8500001442078062303EBC00007
:103D800001F5806303EB40020020108000BF217822
:103D90002846FFF7FCFC08F48040002816D100BF3D
:103DA00000BF22785200296831F8121048F68F724D
:103DB00001EA020000E00AE040F4004141F48141E0
:103DC00023785B002A6822F8131000BF97E008F4FC
:103DD0008040A8B900BF00BF22785200296831F89E
:103DE000121048F68F7201EA020040F4004141F4DB
:103DF000814123785B002A6822F8131000BF00BFBE
:103E000094F8240001287AD1606938446061E0693F
:103E10003844E0612169206A884204D32669206A17
:103E2000801B20620BE0206A20B93E46002084F807
:103E3000240004E0266A0020206284F8240000BFE9
:103E40002A68607890BB00BFD5F800C02968B1F837
:103E500050108C4421784FF0060909EBC1010CF594
:103E6000806909EB4101084600BF76B9B0F80090BF
:103E700048F2FF3A09EA0A09A0F80090B0F8009069
:103E800049F40049A0F8009020E03E2E0FD800BF72
:103E9000710806F00109B9F1000F00D0491C4FF676
:103EA000FF7909EA8129A0F800900FE010E000BF37
:103EB000710906F01F09B9F1000F00D1491E4FF436
:103EC000004949EA8129A0F8009000BF00BF0FE037
:103ED000607801280CD12868B0F85000024420789E
:103EE000062101EBC00002F5806101EB40031E805A
:103EF00000BFB3B262896169286805F000FA00BFAB
:103F000022785200296831F8121048F6BF7201EA8F
:103F1000020080F0100080F0200040F4004141F0E9
:103F2000800123785B002A6822F8131000BF00206C
:103F3000BDE8F087024601F0070000EB800302F5C0
:103F4000B47000EBC300C06970472DE9F047054627
:103F50000E4690461F464FF0000906F0800080286C
:103F60000AD106F0070000EB800105F1280000EB04
:103F7000C1040120607009E006F0070000EB800139
:103F800005F5B47000EBC1040020607006F0070076
:103F90002070C4F81080E770607808B12078E08164
:103FA000022F01D10020207100BF95F8A80201283E
:103FB00002D10220BDE8F087012085F8A80200BFE9
:103FC0002146286803F070FF00BF002085F8A80292
:103FD00000BF4846EEE72DE9F04105460E4617467C
:103FE000984606F0070000EB800105F5B47000EB81
:103FF000C1046761C4F818800020E061607006F0B9
:104000000700207006F0070020B92146286804F058
:104010006CFB03E02146286804F067FB0020BDE844
:10402000F08170B504460D4605F0070061688842CE
:1040300001D9012070BD05F0800080280AD105F06B
:10404000070000EB800104F1280000EBC10601200D
:10405000707007E005EB850104F5B47000EBC10654
:10406000002070700120B07005F00700307000BFB4
:1040700094F8A802012801D10220DBE7012084F88E
:10408000A80200BF3146206804F001FB05F00700DC
:1040900020B904F52C71206804F089FA00BF0020D3
:1040A00084F8A80200BF00BFC4E72DE9F04105462F
:1040B0000E4690461F4606F0070000EB800105F112
:1040C000280000EBC104C4F81480A761012084F823
:1040D000240027620020E0610120607006F00700E4
:1040E000207006F0070020B92146286804F0FDFA88
:1040F00003E02146286804F0F8FA0020BDE8F081CA
:104100007FB50446206805F0C7F800F40040B0F51C
:10411000004F02D1204602F0E1F8206805F0BCF81B
:1041200000F48060B0F5806F0FD12068B0F84400D3
:104130004FF6FF3108402168A1F84400204600F006
:104140009FF90021204600F0BBF9206805F0A4F893
:1041500000F48040B0F5804F08D12068B0F84400EA
:104160004BF6FF7108402168A1F84400206805F073
:1041700093F800F40050B0F5005F08D12068B0F863
:1041800044004DF6FF7108402168A1F84400206802
:1041900005F082F800F48050B0F5805F1DD12068F2
:1041A000B0F840004FF6FB7108402168A1F84000CC
:1041B0002068B0F840004FF6F77108402168A1F878
:1041C0004000204600F06EF92068B0F844004EF63A
:1041D000FF7108402168A1F84400206805F05CF8F0
:1041E00000F40060B0F5006F55D1002507E06900CC
:1041F000206830F811002DF81500681CC5B2082D94
:10420000F5D32068B0F8400040F001002168A1F823
:1042100040002068B0F840004FF6FE710840216869
:10422000A1F8400000BF2068B0F8440000F48060AE
:104230000028F8D02068B0F844004FF6FF3108405D
:104240002168A1F84400002507E03DF815006A0048
:10425000216821F81200681CC5B2082DF5D320682A
:10426000B0F8400040F008002168A1F84000206844
:10427000B0F844004FF2FF7108402168A1F84400F3
:104280002068B0F8400040F004002168A1F8400028
:10429000204600F057F9206804F0FEFF00F400709B
:1042A000B0F5007F0BD12068B0F844004FF6FF5105
:1042B00008402168A1F84400204600F0FAF8206880
:1042C00004F0EAFF00F48070B0F5807F08D1206828
:1042D000B0F844004FF6FF6108402168A1F844009F
:1042E0007FBD30B585B0044614B9012005B030BD9E
:1042F00094F8A90228B9002084F8A802204600F00A
:104300009DF8032084F8A902206804F046F91422DD
:1043100004F110016846FCF797F894E80F0003F0E9
:10432000E9FF20B1022084F8A9020120DEE7002184
:10433000206804F0DAFF002531E0012105EB850259
:1043400004F1280000EBC200417005EB850104F187
:10435000280000F8315005EB850100EBC100C58154
:10436000002105EB850204F1280000EBC200C170BA
:1043700005EB850204F1280000EBC200016105EBAA
:10438000850204F1280000EBC200416105EB8502C3
:1043900004F1280000EBC2008161681CC5B26068AE
:1043A000A842CAD800252AE0002105EB850204F5C1
:1043B000B47000EBC200417005EB850104F5B470E8
:1043C00000F83150002105EB850200EBC200C170FE
:1043D00005EB850204F5B47000EBC200016105EB4A
:1043E000850204F5B47000EBC200416105EB850263
:1043F00004F5B47000EBC2008161681CC5B260684E
:10440000A842D1D8142204F110016846FCF71CF828
:1044100094E80F0004F0B6F820B1022084F8A90255
:10442000012063E7002084F82400012084F8A90219
:10443000206804F0A4F8002058E7000038B50446CE
:104440000D492068884215D100BF0C48C06940F46E
:1044500000000A49C8610846C06900F400000090E5
:1044600000BF00BF002211461420FFF71BF91420E3
:10447000FFF708F938BD0000005C00400010024062
:1044800070B504460125A068022801D0FDF76FFB36
:104490002946D4F8E80203F0DDF9D4F8E80203F085
:1044A0008FF970BD10B50446D4F8E80203F0B6F9F0
:1044B00010BD10B50446D4F8E80203F0BAF910BDF7
:1044C00070B504460D4600BF94F8A802012801D13A
:1044D000022070BD012084F8A80200BF84F8245097
:1044E0002946206804F004FF00BF002084F8A802D9
:1044F00000BF00BFEDE710B5044604F52C71D4F8F9
:10450000E80203F0BEF910BD10B5044600BF94F8F0
:10451000A802012801D1022010BD012084F8A802C0
:1045200000BF206804F0A6FE01212046FFF72EF907
:10453000206804F021F800BF002084F8A80200BF22
:1045400000BFE9E710B50446D4F8E80203F0F2F939
:10455000A06928B10348006840F0060001490860DE
:1045600010BD000010ED00E02DE9F04385B00646D7
:104570003BA30FCB01AC0FC43DA0006800904FF0EF
:104580000008002500270024A146012E30D0022E6D
:1045900055D0102E5ED137484468006800F0807016
:1045A00000B301A8C4F38341475C04F4803070B1C8
:1045B00030484068C0F340401DF8008004F480306B
:1045C00040B12D48B0FBF8F000FB07F502E02B48A6
:1045D00007FB00F52748406800F48000B0F5800F25
:1045E00001D1A94603E068000321B0FBF1F932E0F4
:1045F0002048046A04F44070B0F5807F05D104F0CF
:10460000020010B14FF4004918E004F44070B0F516
:10461000007F07D11748406A00F0020010B149F648
:1046200040490BE004F44070B0F5407F06D11148DA
:10463000006800F4003008B14FF224490BE000F0AC
:1046400093F90C494968C1F38131491C4900B0FB19
:10465000F1F900E000BF00BF484605B0BDE8F083B7
:1046600002030405060708090A0B0C0D0E0F1010B3
:10467000010200000010024000127A0000093D0013
:10468000F8B5044600260025207800F00100002837
:104690006BD000274348C06900F0805070B900BF5C
:1046A0004048C06940F080503E49C8610846C06932
:1046B00000F08050009000BF00BF01273A4800681A
:1046C00000F48070B0B93848006840F48070364912
:1046D0000860FEF755F9064606E0FEF751F9801B23
:1046E000642801D90320F8BD2F48006800F48070C9
:1046F0000028F2D02B48006A00F440752DB3A08842
:1047000000F44070A84220D02648006A20F440758A
:10471000012026490860002008602248056205F053
:10472000010090B1FEF72CF9064608E0FEF728F9E3
:10473000801B41F28831884201D90320D3E7194810
:10474000006A00F002000028F0D01648006A20F449
:1047500040706168084313490862012F04D108467C
:10476000C06920F08050C86100BF207800F00200CE
:10477000022807D10B48406820F44040A168084354
:1047800008494860207800F01000102807D105483B
:10479000406820F48000E168084302494860002036
:1047A000A1E70000001002400070004040044242B7
:1047B00070B504460D460CB9012070BD5A4800681A
:1047C00000F00700A8420ED25748006820F007000A
:1047D0002843554908600846006800F00700A842D1
:1047E00001D00120E9E7207800F0020002281DD165
:1047F000207800F00400042805D14C48406840F4BB
:10480000E0604A494860207800F00800082805D197
:104810004648406840F46050444948604348406816
:1048200020F0F000A168084340494860207800F07B
:10483000010078B36068012806D13C48006800F4A4
:10484000003090B90120B8E76068022806D13748E7
:10485000006800F0007040B90120AEE733480068FE
:1048600000F0020008B90120A7E73048406820F0B6
:104870000300616808432D494860FEF781F8064649
:1048800009E0FEF77DF8801B41F28831884202D9A9
:10489000032092E707E02548406800F00C006168BB
:1048A000B0EB810FEDD12048006800F00700A8426E
:1048B0000ED91D48006820F0070028431A490860F7
:1048C0000846006800F00700A84201D0012074E704
:1048D000207800F00400042807D11448406820F430
:1048E000E060E168084311494860207800F0080062
:1048F000082808D10D48406820F46050216940EA3A
:10490000C1000A49486000F03FF808494968C1F30E
:104910000311074A515CC840064908600648006810
:10492000FEF73EFE002048E7002002400010024053
:1049300046E200088C010020840100200148006844
:10494000704700008C01002000B5FFF7F7FF044915
:104950004968C1F30221034A515CC84000BD000010
:104960000010024056E2000800B5FFF7E7FF0449D7
:104970004968C1F3C221034A515CC84000BD000030
:104980000010024056E20008F0B585B00FF26C0C42
:104990009CE8E01001A8A0E8E0101CA52D68009597
:1049A00000210022002300240020194D696801F035
:1049B0000C05F5B1042D02D0082D19D101E01548E0
:1049C00019E001ADC1F38346AC5D01F4803555B10A
:1049D0000F4D6D68C5F340451DF805200D4D65432D
:1049E000B5FBF2F302E00C4D04FB05F3184602E0C0
:1049F00000BF084800BF00BF05B0F0BD02030405BA
:104A0000060708090A0B0C0D0E0F1010010200001A
:104A10000010024000127A0000093D00F8B504467B
:104A20000CB90120F8BD207800F00100002878D0F2
:104A3000F848406800F00C0004280CD0F5484068A5
:104A400000F00C00082811D1F248406800F48030D2
:104A5000B0F5803F0AD1EF48006800F4003000282C
:104A60005FD0606800285CD10120DBE700BF606890
:104A7000B0F5803F06D1E748006840F48030E54952
:104A8000086028E0606858B9E248006820F4803087
:104A9000E04908600846006820F4802008601AE0B9
:104AA0006068B0F5A02F0BD1DA48006840F4802090
:104AB000D84908600846006840F4803008600AE081
:104AC000D448006820F48030D24908600846006865
:104AD00020F48020086000BF606888B1FDF750FFB7
:104AE000054606E0FDF74CFF401B642801D9032072
:104AF00098E7C848006800F400300028F2D010E0C1
:104B0000FDF73EFF054606E0FDF73AFF401B64282F
:104B100001D9032086E7BF48006800F40030002870
:104B2000F2D1207800F00200022857D1B94840683D
:104B300000F00C0050B1B748406800F00C000828A5
:104B400018D1B448406800F4803098B9B148006882
:104B500000F0020020B12069012801D0012061E7A6
:104B6000AC48006820F0F800616940EAC100A9493A
:104B7000086033E02069E8B10120A7490860FDF72B
:104B8000FFFE054606E0FDF7FBFE401B022801D9AB
:104B9000032047E79F48006800F002000028F2D099
:104BA0009C48006820F0F800616940EAC10099491A
:104BB000086013E0002098490860FDF7E1FE054613
:104BC00006E0FDF7DDFE401B022801D9032029E79E
:104BD0009048006800F002000028F2D1207800F030
:104BE000080008282DD1A069B8B101208B490860C0
:104BF000FDF7C6FE054606E0FDF7C2FE401B022893
:104C000001D903200EE78348406A00F00200002823
:104C1000F2D0012001F05CFD13E000207F49086024
:104C2000FDF7AEFE054606E0FDF7AAFE401B022892
:104C300001D90320F6E67748406A00F00200002818
:104C4000F2D1207800F00400042873D100277148C5
:104C5000C06900F0805070B900BF6E48C06940F074
:104C600080506C49C8610846C06900F080500090CF
:104C700000BF00BF01276A48006800F48070B0B927
:104C80006748006840F4807065490860FDF778FE69
:104C9000054606E0FDF774FE401B642801D9032099
:104CA000C0E65F48006800F480700028F2D000BFC2
:104CB000E068012806D15748006A40F001005549D4
:104CC000086227E0E06858B95248006A20F0010005
:104CD000504908620846006A20F00400086219E0A2
:104CE000E06805280BD14B48006A40F004004949B0
:104CF00008620846006A40F0010008620AE0454880
:104D0000006A20F00100434908620846006A20F06A
:104D10000400086200BFE068A0B1FDF731FE05465F
:104D200009E0FDF72DFE401B41F28831884202D98F
:104D3000032077E622E03748006A00F002000028EE
:104D4000EFD012E0FDF71CFE054608E0FDF718FE67
:104D5000401B41F28831884201D9032062E62D4888
:104D6000006A00F002000028F0D1012F05D1294887
:104D7000C06920F080502749C86100BFE069C8B30E
:104D80002448406800F00C00082860D0E069022840
:104D900048D1002020490866FDF7F2FD054606E0EF
:104DA000FDF7EEFD401B022801D903203AE6194821
:104DB000006800F000700028F2D1206AB0F5803F52
:104DC00007D11448406820F40030A1680843114915
:104DD0004860D4E9080108430E49496821F4741178
:104DE00008430C49486001200B490866FDF7C8FDDF
:104DF000054607E03DE0FDF7C3FD401B022801D951
:104E000003200FE60348006800F000700028F2D08D
:104E10002FE00000001002400000424280044242A5
:104E200000700040002014490866FDF7A9FD054602
:104E300006E0FDF7A5FD401B022801D90320F1E59E
:104E40000E48006800F000700028F2D111E0E0691F
:104E5000012800D1E6E50948466806F48031206A59
:104E6000814204D106F47011606A814201D00120B0
:104E7000D8E50020D6E500000000424200100240C4
:104E800070B504462546681EB0F1807F01D301202D
:104E90000FE0681E4FF0E02148610F214FF0FF3016
:104EA00004F07AFA00204FF0E021886107200861C1
:104EB000002070BD10B50346002200BF93F83C00EF
:104EC000012801D1022010BD012083F83C0000BF61
:104ED00022F0FF00CC6840EA040222F440708C68A3
:104EE00040EA040222F480604C6840EA040222F4A2
:104EF00000600C6840EA040222F480500C6940EA29
:104F0000040222F400504C6940EA040222F480407A
:104F1000CC6940EA04021868426400BF002083F8AC
:104F20003C0000BF00BFCEE730B502460B4600BFD5
:104F300092F83C00012801D1022030BD012082F806
:104F40003C0000BF022082F83D00106844681068F1
:104F5000816824F070041868044310684460104DA0
:104F60001068A8420BD01068B0F1804F07D00D4DEB
:104F70001068A84203D00C4D1068A84205D121F05A
:104F800080015868014310688160012082F83D006B
:104F900000BF002082F83C0000BF00BFCDE700004A
:104FA000002C0140000400400008004010B586B00D
:104FB0000446002002900390049005900E4920685A
:104FC000884216D100BF0D48806940F004000B49AB
:104FD00088610846806900F00400019000BF00BFAE
:104FE0008815029002200390059002A90448FDF75D
:104FF00029FB06B010BD0000002C0140001002404B
:105000000008014070B504460D46164600BF94F8EE
:105010003C00012801D1022070BD012084F83C0031
:1050200000BF36B1042E1BD0082E31D00C2E5ED11D
:1050300045E02946206801F0CBFC2068806940F0FB
:105040000800216888612068806920F004002168D8
:10505000886120688069296908432168886147E080
:105060002946206801F0E4FC2068806940F4006073
:10507000216888612068806920F4806021688861E7
:1050800020688069296940EA0120216888612FE051
:105090002946206801F000FD2068C06940F0080042
:1050A0002168C8612068C06920F004002168C861D7
:1050B0002068C069296908432168C86118E0294649
:1050C000206801F01DFD2068C06940F4006021687F
:1050D000C8612068C06920F480602168C8612068C8
:1050E000C069296940EA01202168C86100E000BF69
:1050F00000BF00BF002084F83C0000BF00BF8BE76A
:1051000010B504460CB9012010BD94F83D0028B933
:10511000002084F83C00204600F026F8022084F8A5
:105120003D00211D206801F007FC012084F84600A5
:1051300000BF84F83E0001213F2001554020015569
:105140004120015500BF00BF012084F842004320E8
:105150000155442001554520015500BF012084F828
:105160003D000020D0E7000008B5094A01689142DF
:105170000DD100BF0749896941F40061054A916179
:105180001146896901F40061009100BF00BF08BDAC
:10519000002C01400010024070B504460D4615B9C0
:1051A00094F83E000BE0042D02D13F20005D06E0A4
:1051B000082D02D14020005D01E04120005D012862
:1051C00001D0012070BD1DB9022084F83E000EE020
:1051D000042D03D102213F20015508E0082D03D101
:1051E00002214020015502E002214120015535B144
:1051F000042D0BD0082D10D00C2D1CD114E02068EC
:10520000C06840F002002168C86015E02068C068EE
:1052100040F004002168C8600EE02068C06840F0DB
:1052200008002168C86007E02068C06840F01000EE
:105230002168C86000E000BF00BF01222946206845
:1052400001F0B4FB19492068884201D1012000E037
:10525000002028B12068406C40F400402168486478
:105260001249206888420BD02068B0F1804F07D0E7
:105270000F492068884203D00E49206888420CD12B
:105280002068806800F00706062E0CD020680068B1
:1052900040F001002168086005E02068006840F0E7
:1052A00001002168086000208CE70000002C01400C
:1052B000000400400008004000BFFEE72DE9FC4765
:1052C000E2480078012811D101228103E048FDF76E
:1052D00051FB00224FF40051DD48FDF74BFB00224B
:1052E0004FF48051DA48FDF745FB29E0D7480078B4
:1052F000022810D100224103D548FDF73BFB0122D3
:105300005103D348FDF736FB00224FF48051D048BB
:10531000FDF730FB14E0CD480078032810D10022BF
:105320004FF48041CA48FDF725FB00224FF400519D
:10533000C748FDF71FFB01221103C548FDF71AFB03
:1053400000258021C148007805F042F9044608F0A4
:1053500045FDBE490978491EBE4A42F82100BE48B3
:105360000078BA49097888427ED104F093FBFDF7B2
:1053700007FB04460020B84908709BE0FDF700FBDE
:10538000001B14D0FDF7FCFA001B40F2EE2188420E
:105390000DD0FDF7F5FA001B40F2DC51884206D033
:1053A000FDF7EEFA001B40F6CA0188420AD101223D
:1053B0009103A748FDF7DEFA00224FF44051A448BC
:1053C000FDF7D8FAFDF7DCFA001BFA2813D0FDF739
:1053D000D7FA001BB0F57A7F0DD0FDF7D1FA001B8C
:1053E00040F2D661884206D0FDF7CAFA001B40F6AB
:1053F000C41188420AD1012251039548FDF7BAFA37
:1054000000224FF4A0419248FDF7B4FAFDF7B8FA34
:10541000001BB0F5FA7F0CD0FDF7B2FA001B40F28A
:10542000E241884205D0FDF7ABFA001BB0F5FA6FF8
:105430000AD100224FF4C0418548FDF79BFA0122B2
:1054400011038348FDF796FA04F024FB82480078A4
:10545000042805D0804800787C490978884226D104
:1054600001257D48007800E04FE0784909788842BE
:105470001CD1012291037648FDF77CFA01225103E9
:105480007348FDF777FA012211037148FDF772FAAC
:105490004FF42F70FCF788FF80216C48007805F0EE
:1054A00097F8064608F09AFC6C4908600AE000206C
:1054B00069490870FDF764FA001B40F6C411884280
:1054C000FFF45CAF00BFFDB9012291036048FDF716
:1054D00051FA012251035E48FDF74CFA01221103F3
:1054E0005B48FDF747FA80215848007805F070F8CE
:1054F000064608F073FC55490978491E584A42F897
:10550000210000205449087000BF504A1278521EF2
:10551000534B53F822104D4A1278521E4D4B53F8FC
:10552000220008F0A1FD49490978491E494A42F87C
:10553000210046480078401E494A52F8201047484A
:10554000006808F091FD06463146464808F018FB11
:1055500004463E480078401E3E4A52F8201020463D
:1055600008F084FC39490978491E3A4A42F821007A
:1055700036490978491E52F8210008F067FA0646B4
:105580000022134607F0BCFE0DD230480078401EC2
:10559000304951F8200080F000412C480078401E2E
:1055A0002C4A42F8201029490978491E294A52F804
:1055B000210008F04BFA804600222B4B07F0C0FC7C
:1055C000064607F0CFFB21490978491E214A42F8D7
:1055D00021001E490978491E52F8210008F036FAC8
:1055E000CDE9000119480078401C00EBC00101EB37
:1055F00000101E49097801EB80021DA11F48FAF72F
:1056000013FE1E48FAF701FF84B221461B48FCF73F
:1056100063FA0E490978491E0E4A52F8210004F037
:1056200071F80D48007809490978884206D00A487F
:10563000007818B10848007804490870002006492D
:10564000087004F027FABDE8FC870000E80000209D
:10565000000C0140A402002065000020F0000020A2
:10566000B002002000809743008059405100002084
:1056700023256423252E3466230A0000F00200202F
:10568000014608684069C0F38020B0B16FF48060C3
:105690000A68506100200863202081F83D00002046
:1056A00081F83E00086C40F00400086400BF002050
:1056B00081F83C0000BF012070470020FCE700009B
:1056C0002DE9F84304460D4690461E46E76A2068D9
:1056D000006840F4806021680860082F04D0012F22
:1056E00002D017F5803F06D12068006840F4807032
:1056F0002168086008E0206B112805D12068006847
:1057000040F4807021680860434600224FF0011188
:105710002046009600F01EFA60B12068006800F490
:105720008070B0F5807F02D14FF4007020640320B8
:10573000BDE8F8832069B0F5804F05D1E8B240F0AC
:1057400001002168086149E005F44070F02141EA58
:10575000E01021680861334642462649204600F0A1
:105760003CFA08B10120E3E7E8B22168086133465A
:1057700042462049891F204600F02FFA08B1012037
:10578000D6E700BF002000902068406900902068A4
:105790008069009000BF00BF2068006840F48070FE
:1057A00021680860434600224FF001112046009610
:1057B00000F0D0F958B12068006800F48070B0F5AE
:1057C000807F02D14FF4007020640320B0E705F41D
:1057D0004070F12141EAE0102168086133464246F9
:1057E0000449891F204600F0F8F908B101209FE71D
:1057F00000209DE7080001002DE9F84304460D460E
:1058000017469846E66A082E04D0012E02D016F5F7
:10581000803F06D12068006840F4807021680860ED
:1058200008E0206B122805D12068006840F48070E1
:10583000216808603B4600224FF001112046CDF858
:10584000008000F087F960B12068006800F4807083
:10585000B0F5807F02D14FF4007020640320BDE8D2
:10586000F8832069B0F5804F04D105F0FE0021686F
:10587000086112E005F44070F02141EAE01021686F
:10588000086143463A460B49204600F0A6F908B1A4
:105890000120E4E7E8B22168086143463A46054939
:1058A000891F204600F099F908B10120D7E70020B0
:1058B000D5E70000080001002DE9F84304460F4633
:1058C00015469946DDE908862068006840F4806046
:1058D000216808602068006840F4807021680860D2
:1058E000434600224FF001112046009600F032F9A5
:1058F00060B12068006800F48070B0F5807F02D14C
:105900004FF4007020640320BDE8F88307F0FE0028
:1059100021680861334642463E49204600F05DF961
:1059200008B10120F0E700BF002000902068406926
:10593000009020688069009000BF00BF3246414659
:10594000204600F0ECF950B1206C042805D1206805
:10595000006840F40070216808600120D4E7B9F1C4
:10596000010F03D1E8B22168086117E0C5F30720F1
:105970002168086132464146204600F0D0F950B116
:10598000206C042805D12068006840F4007021686C
:1059900008600120B8E7E8B2216808613246414654
:1059A000204600F0BCF950B1206C042805D12068D5
:1059B000006840F40070216808600120A4E72068B6
:1059C000006840F4807021680860434600224FF070
:1059D00001112046009600F0BDF858B1206800681B
:1059E00000F48070B0F5807F02D14FF40070206425
:1059F000032089E7F8B240F00100216808613346CE
:105A000042460449204600F0E8F808B101207BE74F
:105A1000002079E7020001002DE9F843044688469A
:105A200015469946DDE908672068006840F48070F3
:105A300021680860334600224FF00111204600978C
:105A400000F088F860B12068006800F48070B0F55C
:105A5000807F02D14FF4007020640320BDE8F883FA
:105A600008F0FE00216808613B4632462149204685
:105A700000F0B3F808B10120F0E700BF002000906B
:105A800020684069009020688069009000BF00BFD6
:105A90003A463146204600F042F950B1206C0428C5
:105AA00005D12068006840F400702168086001207A
:105AB000D4E7B9F1010F03D1E8B22168086117E01A
:105AC000C5F30720216808613A463146204600F0B8
:105AD00026F950B1206C042805D12068006840F4F4
