:020000040800F2
:10000000401B0020E9010008D7480008FB3E00081B
:10001000D5480008B9170008AB64000800000000CC
:10002000000000000000000000000000EF4B00088E
:100030002D18000800000000ED4B0008F14B0008EF
:10004000030200080302000803020008030200087C
:100050000302000803020008591800086718000886
:10006000030200080302000803020008030200085C
:10007000030200080302000803020008030200084C
:10008000030200080302000803020008030200083C
:100090003564000803020008030200086D18000818
:1000A00003020008754C0008030200080302000860
:1000B000030200080302000803020008030200080C
:1000C00003020008030200080302000803020008FC
:1000D00003020008030200080302000803020008EC
:1000E0005F180008030200080302000800F002F88D
:1000F00000F06AF80AA090E8000C82448344AAF158
:100100000107DA4501D100F05FF8AFF2090EBAE855
:100110000F0013F0010F18BFFB1A43F0010318473B
:1001200034990000549900000A444FF0000C10F874
:10013000013B13F0070408BF10F8014B1D1108BF65
:1001400010F8015B641E05D010F8016B641E01F805
:10015000016BF9D113F0080F1EBF10F8014BAD1C55
:100160000C1B09D16D1E58BF01F801CBFAD505E073
:1001700014F8016B01F8016B6D1EF9D59142D6D3CD
:10018000704700000023002400250026103A28BFF5
:1001900078C1FBD8520728BF30C148BF0B607047F9
:1001A000662909F0FC82642900F06C800020704709
:1001B0001FB500F03FFC04000020002108F066F9A4
:1001C000E0601FBD10B510BD00F038FD1146FFF70F
:1001D000EFFF07F0B3F900F056FD03B4FFF7F2FFAD
:1001E00003BC00F099FD000009488047094800471A
:1001F000FEE7FEE7FEE7FEE7FEE7FEE7FEE7FEE7D7
:10020000FEE7FEE704480549054A064B7047000033
:10021000714C0008ED00000840150020401B002034
:1002200040170020401700200FB41CB5074B06AA4A
:100230007B4469460090059800F0DBFB002069468E
:1002400000F0EAFB1CBC5DF814FB0000E5070000B1
:100250000FB41CB50C0007AA009001D02044401E2A
:10026000074B7B4469460190069800F0C2FB002CC6
:1002700003D06946002000F0CFFB1CBC5DF814FBE6
:10028000BD0700002DE9F0410646002410687529DD
:10029000314616A510D0AFF30080002802DA4042A4
:1002A00013A507E031688A0701D512A502E04907C6
:1002B00004D511A5012401E0AFF3008000210A223A
:1002C00006F1240709E0B0FBF2FCB0FBF2F302FBFD
:1002D0001C00303078541846491C0028F3D12346BE
:1002E0002A463046BDE8F04100F015B90000000094
:1002F0002D0000002B000000200000002DE9F04739
:100300004FF0000A89460446C0F820A02046E16864
:100310008847002876D0252806D0D4E901219047C7
:10032000206A401C2062F1E7E168204600258847EA
:10033000C4F81CA006460027C4F818A02A2E09D02D
:10034000304606F05BF938B304EB8708303EC8F856
:10035000186019E059F8041B204604EB87029161EC
:10036000E1688847012F064618D1E069002820DAA5
:1003700025F020051DE0D8F8180000EB800006EB02
:1003800040003038C8F818002046E1688847064623
:1003900006F034F90028EED1012F0AD02E2E08D114
:1003A0002046E16888477F1C0646022F45F020055D
:1003B000C4DBA069002803DA404245F00105A061D2
:1003C000E80701D025F01005B6B1A6F141001928C3
:1003D00002D8203645F400654A463146204625605D
:1003E0004D46FFF7DDFE58B1012806D0ED1D25F082
:1003F000070000F1080989E704E005F1040985E731
:1004000030468AE7206ABDE8F08710B5431C02E059
:1004100010F8011B71B18107FAD14FF0013202C807
:100420008C1A8C4314EAC211F9D0C01A0A0603D000
:10043000C01E10BDC01A10BD0A0401D0801E10BD20
:100440000902FCD0401E10BD10B5203AC0F00B8050
:10045000B1E81850203AA0E81850B1E81850A0E8C8
:100460001850BFF4F5AF5FEA027C24BFB1E8185022
:10047000A0E8185044BF18C918C0BDE810405FEA92
:10048000827C24BF51F8043B40F8043B08BF70470E
:10049000D20728BF31F8023B48BF11F8012B28BF13
:1004A00020F8023B48BF00F8012B70474FF00002D4
:1004B00000B5134694469646203922BFA0E80C505A
:1004C000A0E80C50B1F12001BFF4F7AF090728BF35
:1004D000A0E80C5048BF0CC05DF804EB890028BFB1
:1004E00040F8042B08BF704748BF20F8022B11F0DA
:1004F000804F18BF00F8012B704770477047704756
:1005000010B500F09BFA006810BD10B5044600F06D
:1005100095FA046010BD2DE9F0470D4699469246C4
:10052000044600F124080168880604D5E06921F03A
:100530001001216000E00120A84201DD471B00E01E
:100540000027A1697A1902EB0900081AA061207836
:10055000C00602D42046AFF30080002608E0D4E9AC
:1005600001211AF806009047206A401C761C206280
:100570004E45F4DB2078C0060AD52046AFF3008054
:1005800006E0D4E9012130209047206A401C206217
:10059000381EA7F10107F4DC07E0D4E9012118F8BF
:1005A00005009047206A401C2062281EA5F1010525
:1005B000F3DC2046AFF300802078000602D502204D
:1005C000BDE8F0870120FBE770472DE9FF4F0C469F
:1005D0001E464FF0FF378BB0D2E90001DDF8608096
:1005E0000A908A46C1F30A5505B93D4600210846DE
:1005F0004FF00000BAF1000F00F4400005DA00EB04
:1006000080004FF4400101EA50004FEA9059B9F1DF
:10061000010F00DDB9460A9850EA4A000ED044F6B0
:100620001050A5F2FF3545432F14B8F1000F1ED02E
:100630007542291E1EDDC9F100021CE0B8F1010F50
:100640004FF0000001D0302103E0F24305E02154D7
:10065000401CB042FBDB30460022002121540B99A4
:10066000C1F80880C1E900200FB0BDE8F08FBD1BC4
:100670006D1CDEE74A4600DA694206A800F068FA17
:1006800006AB93E8070003AB83E8070050460A99DE
:1006900000F049FB8DE80700A0F500501F380090DE
:1006A0000398002D0ADD42F21F014A460844002348
:1006B00003A90390684600F0B2FD09E0A0F50050E0
:1006C0004A461F38002303A90390684600F0BCFD8A
:1006D0008DE807000004000C03D04FF0FF30410804
:1006E00000E01046B8F1000F03D00022009215463A
:1006F0001EE0751E05D400F0A5F9303262556D1E5E
:10070000F9D5B3460122084302D000227F1C04E041
:100710002078302801D100227F1E002A099784D03A
:100720001DE0112D07DA00F08DF9303262556D1C95
:1007300050EA0102F5D1084302D00098C8B10EE09A
:100740000021681E05E0235C625C63542254401E55
:10075000491C8142F7DBAB46A81B401E09900020D4
:1007600004F80B000B98099AC0F80880C0E9002B28
:100770007AE711264FF0000857E72DE9F04F884639
:100780000446D21D22F0070191B0D1E90001CDE964
:100790000A0105F08BFE02460B98C00F01D02D20F8
:1007A00007E02068810701D52B2002E0202101EA23
:1007B000C000032A099001D0072A05DB0346414601
:1007C000204600F085F90BE12078800601D5E0692C
:1007D00000E00620B8F1650F814606D0B8F1660F3B
:1007E00018D0B8F1670F70D131E00020B9F1110FC6
:1007F000009001DB112301E009F101030AAA01A91C
:100800000CA8FFF7E2FEDDE90C70002609F10105F6
:10081000834647E001204B4600904FF000470AAA6C
:1008200001A90CA8FFF7D1FEDDE90DB00C995D46DA
:10083000002610B909F101000D18B9EB050003D429
:10084000C0F1FF3609F10105A5EB09002BE0B9F174
:10085000010F01DA4FF001090020B9F1110F0090EA
:10086000484601DD112300E003460AAA01A90CA8AD
:10087000FFF7ABFEDDE90C704D460026834620787D
:1008800000070AD4AB4500DA5D4601A8012D04DD5E
:10089000411911F8011C302907D04F4502DA17F130
:1008A000040F04DA012082460FE06D1EEEE7002FF0
:1008B00002DCED1B3E4403E0781CA84200DD7D1CF9
:1008C000B81B00F1010A4FF000472078000703D45D
:1008D000AA4501DB4FF0FF3A0021B7F1004F0DF1BF
:1008E00043088DF8431024D002202B23002F01DA77
:1008F0007F422D230A21021EA0F1010000DC5FB11E
:1009000097FBF1FC97FBF1F201FB1C7C17460CF105
:10091000300C08F801CDEEE7A8F101000370218842
:10092000090501D5452100E06521A0F1010800F885
:10093000011C09980FA9A1EB0807FF1D00B10120B8
:10094000411901EBEA70A1693844081A401EA06100
:100950002078C00602D42046AFF30080099828B161
:10096000D4E901219047206A401C20622078C0060B
:1009700022D52046AFF300801EE0002E04DBB345F5
:1009800002DD01A8805D00E03020D4E9012190471C
:10099000206A401C2062761CAAF101005FEA000A6E
:1009A0000AD100F047F8C0680168405CD4E9012131
:1009B0009047206A401C2062281EA5F10105DCDC5E
:1009C00007E0D4E9012118F8010B9047206A401C88
:1009D0002062381EA7F10107F3DC2046AFF3008048
:1009E000032011B041E6000001694A1C0261087849
:1009F000704700B58FB0CDE901310021059105495F
:100A00007944CDE9031011466846FFF777FC0FB033
:100A100000BD0000E5FFFFFF0A6802F8010B0A6055
:100A20007047D1E900239A4202D2531C0B60107028
:100A300070470000004870470015002000487047CC
:100A4000E014002030B5B0F10A024FEA900E71F1C7
:100A500000034EEA817EB0EB0E0061EB91014FEA9C
:100A6000101E4EEA017E10EB0E0041EB11114FEA11
:100A7000102E4EEA016E10EB0E0041EB11214FEAF1
:100A8000104E4EEA014E10EB0E0041EB11414018A2
:100A900041F100014FEAD00040EA41704FEAD10134
:100AA00010EB80054FEA810444EA907444EB0104A2
:100AB0006D1944EB0404521BA3414FF0000348BFDF
:100AC0000A3200D530BD401C41F1000130BD0000AC
:100AD0002DE9F0411F46044603260168072A01F468
:100AE000006004DB08B116A505E016A503E008B117
:100AF00015A500E015A521F010002060A069C01E1A
:100B0000A0610FB1401EA0612046AFF300804FB13D
:100B1000D4E9012138469047206A401C2062C01C5D
:100B2000206206E0206AFAE7D4E9012115F8010BFA
:100B30009047761EF8D22046AFF30080BDE8F081E2
:100B40004E414E006E616E00494E4600696E660071
:100B50002DE9F047814616468AB0354878440DC8DD
:100B60008DE80D0032487844801C03AC0DC884E841
:100B70000D0041F69B300844372190FBF1F290FBC9
:100B8000F1F5A5F1800501FB12041B3C02D564427E
:100B9000012000E00020DFF898A080460027FA44FA
:100BA000AAF1BE0A0EE0E0070AD03246684607EB1B
:100BB000470101230AEB810100F046FB8DE80700A5
:100BC00064107F1C002CEED1194F7F44AE3F19E01A
:100BD000E80715D007EB04100DF1180A90E80E0095
:100BE0008AE80E00C068F04201D198190890324698
:100BF000012306A903A800F027FB03AB83E8070045
:100C00006D10641C002DE3D14FF00103324669469C
:100C1000B8F1000F03A802D000F001FB01E000F0E2
:100C200013FBC9E90001C9F808200AB0BDE8F08744
:100C3000DC8E000000487047E01400207546FFF786
:100C4000F9FFAE4605006946534620F00700854689
:100C500018B020B5FFF7D6FABDE820404FF00006E7
:100C60004FF000074FF000084FF0000B21F0070194
:100C7000AC46ACE8C009ACE8C009ACE8C009ACE8D7
:100C8000C0098D46704710B50446AFF3008020467A
:100C9000BDE81040FFF7A1BA4FF0013C50F8042B1B
:100CA00051F8043B9A4221D1A2EB0C03934313EA7F
:100CB000CC1317D150F8042B51F8043B9A4215D1AC
:100CC000A2EB0C03934313EACC130BD150F8042B83
:100CD00051F8043B9A4209D1A2EB0C03934313EA67
:100CE000CC13DBD04FF00000704700BFD01A01BA20
:100CF000B1FA81F101F0180122FA01F0CB40C1F103
:100D00002001DBB2C0B2C01A2CFA01F3D11A914310
:100D100011EAC311E6D1704701491820ABBEFEE7C6
:100D20002600020070475FEA400C08BF91F0000FF8
:100D30004FEA8C234FEAC12243EA51514FEA1C503B
:100D400018BF00F5F0404FEA300018BF41F00041F5
:100D50005FEA6C5C00F02980BCF1FF3F08BF40F007
:100D600080407047130C06BF12044FF0100C4FF078
:100D7000000C130E04BF12020CF1080C130F04BF79
:100D800012010CF1040C930F04BF92000CF1020C41
:100D9000D30F04BF52000CF1010C11464FF00002BA
:100DA000A0F11F00A0EB0C00704711F0004F08BF2E
:100DB000704731F000413FF4D5AF0B0C06BF09047A
:100DC0004FF0100C4FF0000C0B0E04BF09020CF199
:100DD000080C0B0F04BF09010CF1040C8B0F04BFAE
:100DE00089000CF1020CCB0F04BF49000CF1010C7F
:100DF000CCF12003A0EB0C0022FA03F302FA0CF270
:100E000041EA030100F10100704720F07F4C80EAC5
:100E1000030023F07F47ACEB070303F57C5300F09E
:100E2000004003F1FF032DE980494FEA154B09B457
:100E30004FEA144325EA0B4E24EA03480FF2042636
:100E400006EB132749083E785FEA320203FB066788
:100E5000C7F5000707FB06F64FEA54374FEAD646B8
:100E600006F1020607FB066CCCF1005C4FEA1C475A
:100E70002CEA074C07FB06F40CFB06F504EB1546C1
:100E80004FEA961634BF00204FF000404FEAD137AA
:100E900006FB07FC4FEA1C4C0CFB0BF7D21B03FBB9
:100EA0000CF761EB07010CFB0EF7B0EB074072EBA0
:100EB00017420CFB08F734BFA2EB0742B2EB074224
:100EC00061EB17414FEA0C444FEA910706FB07FC20
:100ED0004FEA1C4C0CFB0BF7B0EBC74072EB5732E0
:100EE00003FB0CF734BFA2EBC742B2EBC74261EB86
:100EF00057310CFB0EF7B0EBC70072EB57720CFBCF
:100F000008F734BFA2EBC702B2EBC70261EB57711F
:100F1000039F4FEA816141EA921104EBCC044FEA4E
:100F2000D1374FEA826206FB07FC42EA90124FEA91
:100F300080604FEA1C4C0CFB0BF7D21B03FB0CF739
:100F400061EB07010CFB0EF7B0EB074072EB1742A9
:100F50000CFB08F734BFA2EB0742B2EB074261EB90
:100F600017414FEA8C554FEA910704EB9C2406FB8E
:100F700007FC4FEA1C4C0CFB0BF7B0EBC74072EBC5
:100F8000573203FB0CF734BFA2EBC742B2EBC742A8
:100F900061EB57310CFB0EF7B0EBC70072EB5772E9
:100FA0000CFB08F734BFA2EBC702B2EBC70261EB40
:100FB000577115EB4C254FEA816141EA92114FEAD6
:100FC00082624FEAD13742EA901206FB07FC44F1F5
:100FD00000044FEA80604FEA1C4C0CFB0BF7D21B5D
:100FE00003FB0CF761EB07010CFB0EF7B0EB0740BE
:100FF00072EB17420CFB08F734BFA2EB0742B2EBCF
:10100000074261EB174115EB1C154FEA813141EAAC
:1010100092414FEA823242EA90424FEA80304FEAF0
:101020000C7644F1000448EA03434EEA0B484FF0C3
:10103000000EB2EB080C71EB030724BF6246394681
:101040004EEB0E0E4FF0000B0018524149414BEB96
:101050000B0BB2EB080C71EB03077BF1000B24BF09
:10106000624639464EEB0E0E4FF0000B001852410F
:1010700049414BEB0B0BB2EB080C71EB03077BF117
:10108000000B24BF624639464EEB0E0E51EA0207B2
:1010900018BF46F0010616EB0E7655F1000254F12A
:1010A000000103D5BDE88901BDE80088BDE88901DC
:1010B000BDE80048B619524141EB0101A3F101031B
:1010C000704780807F7E7D7C7B7A797877767675B5
:1010D0007473727171706F6E6E6D6C6C6B6A6A692D
:1010E0006868676666656464636362616160605FC7
:1010F0005F5E5E5D5D5C5C5B5B5A5A595958585740
:1011000057565655555554545353525252515150A7
:1011100050504F4F4F4E4E4D4D4D4C4C4C4B4B4BFA
:101120004A4A4A4949494848484747474746464640
:10113000454545444444444343434342424242417B
:101140004141002B9C4630D477002BD01CB54FEA90
:10115000370703B44FF010004FF01001BAF1000F41
:1011600006D0BCF1000FDCBF40F0080040F00801E1
:101170004FF000000FBCBDE810400BF1010BBBF1BC
:10118000010F08BF5FEA170722BF12F1010211F138
:1011900001014FF0004143F1000300F0004043EA39
:1011A00000007047F9D35708D0E746EA064613F126
:1011B000400F4FEA16461FDD13F1200FDFBF164325
:1011C0000A46002120335B42BED0C3F1200746EA25
:1011D000064602FA07F74FEA164646EA0706C3F143
:1011E000200722FA03F201FA07F721FA03F14FF080
:1011F000000342EA0702A7E746EA020646EA064675
:101200004FEA164646EA0106BCBF46EA0646360CD9
:101210004FF000034FF000024FF0000194E72DE97A
:10122000804C9A46934670B491E8380007C831EA7A
:10123000400C48BF34EA430C03D5FFF7E6FDFFF747
:1012400080FFF0BCBDE8008C2DE9804C9A469346A7
:1012500070B491E8380007C810F0804F08BF13F051
:10126000804F03D100F005F8FFF76BFFF0BCBDE83D
:10127000008C20F07F4780EA030023F07F4C07EBCF
:101280000C03A3F57C5300F00040A3F1FE0392F0A1
:10129000000F00F0B38095F0000F00F077802DE98B
:1012A00001494FEA11404FEA144621EA004800FB89
:1012B00006FC24EA064708FB06F607FB08F800FBD5
:1012C00007F718EB06484CEB164C4FEA124B18EB9D
:1012D00007484FEA15464CEB174022EA0B4E0BFB32
:1012E00006FC25EA06470EFB06F607FB0EFE0BFB87
:1012F00007F71EEB064E4CEB164C4FF000061EEBAC
:10130000074E4CEB174B18EB0B0840F1000018EBA5
:101310000E0B58EB000840F100008F1A4FF000014F
:101320003CBFC943661B14BFB5EB040C00213CBF96
:10133000C943F61B4FEA17444EEA8E0E27EA0445CE
:101340004FEA1C4704FB07622CEA074C05FB07F732
:101350000CFB05F604FB0CFC16EB074642EB1742B0
:1013600016EB0C4642EB1C421BEB060658EB020246
:10137000414146EA9E0601D5BDE80189B6195241B0
:1013800041EB0101A3F10103BDE801894FEA1445D6
:101390004FEA114724EA054621EA074C05FB07F40A
:1013A00006FB07F70CFB06F105FB0CFC11EB0741F4
:1013B00044EB17444FEA124711EB0C4144EB1C4439
:1013C00022EA074C05FB07F206FB07F70CFB06F6C3
:1013D00005FB0CFC16EB074642EB174216EB0C46DE
:1013E00042EB1C456A1854F1000148BF7047B6191A
:1013F000524141EB0101A3F10103704795F0000F49
:1014000037D04FEA11424FEA144721EA024624EA54
:10141000074C02FB07F106FB07F70CFB06F402FB87
:101420000CFC14EB074441EB17414FEA154714EB52
:101430000C4441EB1C4125EA074C02FB07F506FB77
:1014400007F70CFB06F602FB0CFC16EB074645EB18
:10145000174516EB0C4645EB1C42121951F10001E1
:1014600048BF7047B619524141EB0101A3F1010396
:1014700070474FEA14454FEA114724EA054621EA2E
:10148000074C05FB07F106FB07F70CFB06F24FF0D4
:10149000000605FB0CFC12EB074241EB174112EB77
:1014A0000C4251EB1C4148BF7047921841EB0101BF
:1014B000A3F101037047000070B50446006881681D
:1014C000C943C90717D1816821F00101816000F08B
:1014D00051FE05460AE000BF00F04CFE401B02280A
:1014E00004D920688068C043C00706D0206880689F
:1014F000C043C007F0D0002070BDA06A40F01000CB
:10150000A062E06A40F00100E062012070BD0000CE
:10151000F8B500260446009600688168C943C907EB
:101520002DD0816841F0010181601648164900689C
:10153000B0FBF1F000E0401E00900028FBD100F06D
:1015400019FE054616E000BF00F014FE401B0228FD
:1015500010D920688068C043C0070BD0A06A40F053
:101560001000A062E06A40F00100E06284F82460AC
:101570000120F8BD20688068C043C007E4D1002086
:10158000F8BD0000F000002040420F002DE9F05FA0
:10159000032000F077F97E4C8146A061208907F096
:1015A00081FA00227B4B07F075F806460D466189EB
:1015B000606B401A07F05FFA32462B4607F0C2FA1A
:1015C00007F0FCF90546B4F91400284407F053FA73
:1015D00007460E46B4F9120007F04DFA00226E4B92
:1015E00007F0B0FA3A46334607F054F807F0E6F948
:1015F00005446562A5F57A6505FB05F00746A56219
:1016000007F039FADFF894A10022534607F042F8B8
:1016100006468846B4F90E0007F02DFA32464346D6
:1016200007F090FA00225C4B07F034F807F0C6F997
:101630000646B4F90200684307F01DFA0022564B33
:1016400007F028F807F0BAF9B4F90010304400EBBD
:101650008100C000801CC11700EB917082102263D2
:10166000B4F904009046684307F005FA00224C4B99
:1016700007F010F807F0A2F90646E061DFF824B1A0
:10168000384607F0F8F90022534607F003F80746FA
:101690000D46B4F90C0007F0EEF93A462B4607F078
:1016A00051FA414D00222B4606F0F4FF07F086F96F
:1016B00020623044801C07F0DEF900223B4B06F02C
:1016C000E9FF07F07BF90146E062E08801F500419F
:1016D000484307F0E7F900222E4B06F0DBFF07F046
:1016E0009DF9A9EB080141F66A025143B1F1004F9F
:1016F000C4E90E0103D24900B1FBF0F002E0B1FBF6
:10170000F0F0400007F0F6FE2064214C206C824689
:1017100007F082FD894606460022254B06F0BAFFF7
:1017200002460B4607F00EFA07F048F940F6DE31A4
:10173000D846484307F09FF900222B4606F0AAFF3F
:1017400007F03CF90746E0611A49504607F0E6FE0B
:1017500007F062FD00222B4606F09CFF07F02EF9F1
:101760002062384400F6CF6007F085F90022434636
:1017700006F090FF32464B4606F0D0FED4E9122325
:1017800007F0E0F906F098FE2064BDE8F09F000045
:10179000000000200000E0400000A0400000B04039
:1017A0000000C040000030400000F0400000104049
:1017B0000000704000E8E5C5FEE70020704700200B
:1017C0007047000010B500220449054803F080FB73
:1017D0000449034803F076FB002010BDEC0B002009
:1017E000400300200408002010B50146034803F020
:1017F00069FB024803F04AFB002010BD40030020B3
:10180000094A10B5D2F8B822D2F814220AB1012040
:1018100010BD0A460146044803F05AFBBDE81040DB
:10182000014803F0B3BB00004003002070470000F4
:1018300001B5074807490068B0FBF1F0009948433B
:101840000090411E009101D30846FAE708BD000050
:10185000F000002040548900012000F085BB4FF4C7
:10186000006000F081BB022000F07EBB10B580203C
:1018700000F07AFBBDE810404FF4807000F074BBBC
:1018800072B6FEE730B585B00446342000EB841014
:101890008DF8100000200390012004A9CDE900106C
:1018A0004FF47A750346F4220295EE21164801F0B2
:1018B0000BF834B1012C06D0022C21D0032C05D119
:1018C00020E0052000E0082000F074FA032003A9BE
:1018D000CDE900100123F6220295EE210A4800F01E
:1018E000CBFE9DF80C009DF80D10000400EB0120CC
:1018F0009DF80E1005B00844C4F10801C84030BD81
:101900000E20E1E71A20DFE7A4020020F8B500244A
:10191000009490F824202546012A12D0012280F854
:1019200024204A681F23072A0DD20668776B521EAF
:1019300002EB820293409F430B6893401F437763FF
:1019400019E00220F8BD06680D2A0AD2376BD21FB3
:1019500002EB820293409F430B6893401F4337631F
:1019600009E0F76A0D3A02EB820293409F430B684D
:1019700093401F43F7620A68072306680A2A0AD3BE
:10198000F7680A3A02EB420293409F438B68934008
:101990001F43F76008E0376902EB420293409F4320
:1019A0008B6893401F4337610A68102A01D0112ABF
:1019B00020D1124B02689A4217D193681B0219D4A6
:1019C000936843F4000393600968102912D10C490D
:1019D0000C4A0968B1FBF2F101EB8101490000E01A
:1019E000491E00910029FBD104E0816A41F02001E9
:1019F0008162012480F824502046F8BD0024014073
:101A0000F000002040420F000068C06C70470000EA
:101A10002DE9F0414FF0000704003D467ED0A06A5A
:101A2000002628B9E66284F82460204600F07EF89B
:101A30002046FFF741FDA16AC90600D420B1A06A83
:101A400040F01000A06269E0A16A21F4885141F0E1
:101A50000201A1626268E169237B0A4347EA43010C
:101A60000A43A1684FF48077B94209D0012907D011
:101A70005FF0000194F814C0BCF1010F02D00AE03D
:101A80003946F7E7F3B1A36A43F02003A362E36AA0
:101A900043F00103E3622368D3F804C02CF4694CDB
:101AA0004CEA010CC3F804C021688B68DFF870C0F1
:101AB00003EA0C0313438B60A168B9420BD00129E0
:101AC00009D00CE0DFF85CC0A3690CEB43330B4397
:101AD00043F40061DFE7218A0D05A5F58015216833
:101AE000CB6A23F470032B43CB62216889680E4BC9
:101AF0001940914208D1E662A16A21F0020141F049
:101B00000101A162BDE8F081A06A20F0020040F06E
:101B10001000A062E06A40F00100E0620120F1E7FD
:101B2000FDF7E1FF00E0FFFFFE0E1FFF00B585B0EF
:101B30000021009101910291039100680E498842B1
:101B400018D10E48816941F400718161816901F405
:101B500000710491816941F00401816180696946E5
:101B600000F0040004900720009003200190044836
:101B700000F006FA05B000BD00240140001002404C
:101B8000000801402DE9F84300270D460446009760
:101B900000F0F0FA804620688168C90508D5A06A7F
:101BA00040F02000A06284F824700120BDE8F88392
:101BB0004168C90503D4C06A10F4700F2AD002200E
:101BC00001F0BEFC3B490968B1FBF0F620680369EF
:101BD00039490B424FEA61014FEAA1121FD1C36894
:101BE0004FEA611C13EA0C0F19D103690B4225D18E
:101BF000C068104222D1142023E0681C0AD02DB105
:101C000000F0B8FAA0EB0800A84203D920680068E9
:101C1000800725D5206800688007EED52DE0036990
:101C20000B4202D1C168114206D0026923490A421F
:101C300006D1C068084203D1542002E0292000E008
:101C4000FC204643009816E0681C11D02DB100F02E
:101C500091FAA0EB0800A8420AD90098B04207D236
:101C6000A06A40F00400A06284F8247003209DE77D
:101C70000098401C0090B042E6D321686FF012003B
:101C80000860A06A40F40070A06220688068C0F319
:101C9000424007280CD1207B50B9A06A20F4807004
:101CA000A062A06AC00403D4A06A40F00100A06250
:101CB00000207BE7F0000020244992244992240070
:101CC00070B5044690F8240001280DD0012084F856
:101CD00024002046FFF71CFC02004FF0000005D056
:101CE00084F82400104670BD022070BDA16A40F245
:101CF0000123994341F48071A1621F4D23681F495C
:101D0000AB4218D10E6816F4702F14D0A66A46F4B0
:101D10008016A6620E68760505D5A66A26F40056DA
:101D200046F48056A662A66AF6040AD5E66A26F04C
:101D30000606E66206E0A66A26F48016A6625E68DB
:101D4000E9E7E06284F824006FF002001860206880
:101D50008368C3F34243072B05D1A84208D1096821
:101D600011F4702F04D0816841F480118160B9E7CB
:101D7000816841F4A001F9E70028014004240140F2
:101D800010B5044690F82400012807D0012084F8FB
:101D900024002046FFF790FB10B107E0022010BDA1
:101DA000A16A21F4885141F00101A162002184F867
:101DB000241010BD70B5044600F0DCF90546601C27
:101DC00002D004480078044400F0D4F9401BA0423B
:101DD000FAD370BDE40000202DE9F0430023374F13
:101DE0000F2566E001229A400A4060D023F00304E8
:101DF000E619D6F808809C074FEA147C05FA0CF91E
:101E000009EA0804DFF8B880404502D14FF0000825
:101E100016E0DFF8B080404502D14FF001080FE036
:101E2000DFF8A480404502D14FF0020808E0DFF857
:101E30009C80404502D14FF0030801E04FF00408B8
:101E400008FA0CF8A04515D1D6F808C02CEA090C00
:101E5000C6F808C01E4E346894433460341D2668AA
:101E600096432660241D266896432660241D266816
:101E700096432660FF2A01D8064601E000F10406D9
:101E80004FEA830401D9A4F12004D6F800C005FA72
:101E900004F82CEA080C4FF0040808FA04F84CEA9D
:101EA000080CC6F800C0C46824EA0204C46003F148
:101EB000010331FA03F295D1BDE8F083000001403F
:101EC00000080140000C01400010014000140140D6
:101ED0000004014070B5224C0546B0F5807F09D062
:101EE000002020710126802D08D0012D08D0022D60
:101EF00008D009E0606A401C606270BD267103E092
:101F0000022100E0032121712072062000F0FAFD79
:101F1000072000F0F7FD172000F0F4FD282000F066
:101F2000F1FDE67100F026F9E169401AA06100F0C8
:101F300021F9E06160790A280AD200F01BF9616991
:101F40006279401A074941F822006079401C6071AB
:101F5000B5F5006FD1D104202071267270BD00004C
:101F6000500000202C020020044910B50A680242EB
:101F700002D00860FFF7AEFF10BD0000140401405E
:101F80002DE9F84FDFF8B891002409F1040A0AF1AD
:101F9000040B23460F270BF1040EC9E00125A540D1
:101FA0002A40AA427DD1674ED1F804C0ACEB0608A6
:101FB000B44532D014DCBCF1030F3AD009DCBCF1DB
:101FC000000F2AD0BCF1010F1CD0BCF1020F31D19F
:101FD0001DE0BCF1110F17D0BCF1120F2AD119E08E
:101FE000B8F5881F19D006DCB8F5803F15D0B8F5D4
:101FF000801F1FD111E0B8F5001F0ED0B8F5041FE7
:1020000018D10AE0CB6815E0CB681B1D12E0CB6845
:1020100008330FE0CB680C330CE08B682BB1012B3D
:102020004FF0080303D0456104E0042302E005619A
:1020300000E00023FF2A01D8064601E000F1040673
:102040004FEA840501D9A5F12005D6F8008007FAEA
:1020500005FC28EA0C0803FA05F548EA0508C6F865
:1020600000804D68ED0062D5374DAE6946F001063F
:10207000AE61AD6924F0030605F001050095334D0E
:1020800006EB050CDCF80850A607360F07FA06F831
:1020900025EA0805DFF8B880404503D14FF0000875
:1020A00017E044E0DFF8AC80404502D14FF0010872
:1020B0000FE0DFF8A480404502D14FF0020808E0AD
:1020C000DFF89880404502D14FF0030801E04FF05F
:1020D000040808FA06F848EA0508CCF808804D68B4
:1020E000D9F80060ED034D4601D5164300E0964354
:1020F0002E604D68DAF80060AD03554601D51643F1
:1021000000E096432E604D68DBF80060ED025D460E
:1021100001D5164300E096432E604D68DEF800605E
:10212000AD02754601D5164300E096432E60641C4F
:102130000D682A46E5407FF431AFBDE8F88F000016
:102140000004014000001110001002400000014096
:1021500000080140000C0140001001400014014043
:102160008068084000D0012070470AB101617047C3
:102170000904FBE70148806870470000E400002084
:1021800070B5040025D094F83D00002520B984F8EE
:102190003C50204600F030FC242084F83D002068AC
:1021A000016821F0010101602068016841F40041EB
:1021B00001602068016821F40041016001F030FBFA
:1021C0004D4A6168914201D84C4900E04C4988422F
:1021D00001D2012070BD4B492368B0FBF1F15E686C
:1021E00026F03F060E435E606368934206D94FF4C3
:1021F000967359434FF47A73B1FBF3F12368491C8A
:102200001E6A26F03F06314319626168914210D878
:102210004900401EB0FBF1F2521CC2F30B02042A2B
:1022200001D2042022E0B0FBF1F0401CC0F30B000F
:102230001CE0A268F2B301EBC10303EB0116431EDD
:10224000B3FBF6F35B1C43F480431B0549D092B308
:1022500001EBC10202EB0111401EB0FBF1F0401C8A
:10226000C0F30B0040F4804040F400402168CA698C
:102270004CF6FF739A431043C861D4E90710014339
:102280002068026822F0C00211430160D4E9030112
:1022900001432068826848F2FF339A43114381600A
:1022A000D4E9050108432168CA6822F0FF021043FF
:1022B000C86001E00EE016E02068016841F001010D
:1022C00001602564202084F83D00256384F83E5099
:1022D000002070BD01EB4106431EB3FBF6F35B1C0F
:1022E000B3E70120C2E701EB4101401EB0FBF1F072
:1022F000401CC0F30B00B7E7A086010080841E00DD
:1023000000093D0040420F002DE9F84F0025DDF89F
:102310002890984617468A4604460095FFF72AFFFC
:10232000064694F83D0020287AD1192301228349DA
:102330002046009602F05CF80028F5D194F83C00A5
:1023400001286DD0012084F83C0020680168C9078D
:1023500003D1016841F0010101602068016821F4A6
:1023600000610160222084F83D00102084F83E00C6
:1023700025646762A4F82A80608D20857048E06239
:1023800033464A465146204601F076FE00287DD16C
:10239000208DDFF8B081202768B1012814D00228F1
:1023A000206801681ED041F48061016020684169A5
:1023B00080690090B5E020684169816900910168F9
:1023C00041F400710160ACE02068016821F4806193
:1023D000016072B62068416981690091016841F429
:1023E00000710AE041F40061016072B62068416941
:1023F00081690091016821F48061016062B690E01A
:10240000032868D801280CD002284B464FF0000260
:102410004146204600960FD001F0EAFFB0BB10E025
:102420008AE032464946204602F061F870BB2068D7
:102430000069616A08706BE001F0DAFF30BB72B6C8
:1024400034E02068016821F48061016072B6206880
:102450000069616A0870606A401C6062208D401EDD
:102460002085608D401E6085374846F2A8110068BF
:10247000B0FBF1F0C0EBC00000EB80000090401E0C
:10248000009008D020684069C04300E029E0400780
:102490000CD50098F3E744F8305F6773A5732069A3
:1024A00040F02000206162B625731AE020680168C0
:1024B00041F40071016020680069616A0870606A17
:1024C000401C6062218D491E2185618D491E6185F8
:1024D00062B621681AE032464946204602F007F803
:1024E00010B10120BDE8F88F20680069616A0870AA
:1024F000606A401C6062218D491E2185618D491EE4
:10250000618521684A69D24352070AD4096901707A
:10251000606A401C6062208D401E2085608D401ED8
:102520006085208D00287FF46BAF84F83D7084F8BF
:102530003E5084F83C50D5E70220D3E7020010005B
:102540000000FFFF04000100F00000202DE9F84F1B
:102550001F4690468A460446DDF82890FFF70AFE9B
:10256000054694F83D0020287FD1192301224049D7
:102570002046009501F03CFF002876D194F83C00FD
:10258000012872D0012084F83C0020680168C90746
:1025900003D1016841F0010101602068016821F464
:1025A00000610160212084F83D00102084F83E0085
:1025B00000262664C4F824806785608D20852D4818
:1025C000E0622B464A465146204601F0CBFD90B9C9
:1025D000206841698069009036E02A4649462046D5
:1025E00001F0B8FF50B1206C042804D120680168C4
:1025F00041F4007101600120BDE8F88F606A216834
:1026000000780861606A401C6062618D491E6185C6
:10261000218D491E89B2218522685369DB435B07FE
:102620000BD451B100781061606A401C6062608D0B
:10263000401E6085208D401E20852A464946204642
:1026400001F0B0FE0028CED1208D0028C5D154F86D
:102650003D0B016841F400710160202004F81E095F
:10266000E67766770020C7E7FFE70220C4E70000AF
:10267000020010000000FFFF2DE9FF4F83B000258E
:10268000DDE910799A4693460446DDF848800095C6
:10269000FFF770FD064694F83D0020287CD11923F1
:1026A000012285492046009601F0A2FE0028F5D1BE
:1026B00094F83C0001286FD0012084F83C00206889
:1026C0000168C90703D1016841F001010160206878
:1026D000016821F400610160222084F83D0040205F
:1026E00084F83E0025646762A4F82A90608D2085F6
:1026F0007248E062CDE9008653465A462046049966
:1027000001F07EFD00287DD1208DDFF8B4912027D7
:1027100068B1012814D00228206801681ED041F455
:10272000806101602068416980690090B6E020689E
:10273000416981690091016841F400710160ADE077
:102740002068016821F48061016072B620684169E7
:1027500081690091016841F400710AE041F400616F
:10276000016072B62068416981690091016821F4B5
:102770008061016062B691E0032868D801280CD01E
:10278000022843464FF000024946204600960FD0EB
:1027900001F02EFEB0BB10E08BE0324641462046F1
:1027A00001F0A5FE70BB20680069616A08706CE0EA
:1027B00001F01EFE30BB72B634E02068016821F4DF
:1027C0008061016072B620680069616A0870606AA1
:1027D000401C6062208D401E2085608D401E6085FB
:1027E000384846F2A8110068B0FBF1F0C0EBC00019
:1027F00000EB80000090401E009008D020684069E7
:10280000C04300E029E040070CD50098F3E744F806
:10281000305F6773A573206940F02000206162B6C5
:1028200025731AE02068016841F400710160206896
:102830000069616A0870606A401C6062218D491EEF
:102840002185618D491E618562B621681BE0324693
:102850004146204601F04BFE18B1012007B0BDE80B
:10286000F08F20680069616A0870606A401C6062CD
:10287000218D491E2185618D491E618521684A6926
:10288000D24352070AD409690170606A401C606231
:10289000208D401E2085608D401E6085208D002883
:1028A0007FF46AAF84F83D7084F83E5084F83C5061
:1028B000D4E70220D2E70000020010000000FFFF72
:1028C00004000100F00000202DE9FF4F83B09A467C
:1028D000DDE9119793460446DDF84080FFF74AFC96
:1028E000054694F83D0020287FD119230122404954
:1028F0002046009501F07CFD002876D194F83C003C
:10290000012872D0012084F83C0020680168C907C2
:1029100003D1016841F0010101602068016821F4E0
:1029200000610160212084F83D00402084F83E00D1
:1029300000262664C4F82480A4F82A90608D20859F
:102940002C48E062CDE9007553465A46204604996A
:1029500001F0D4FC70B930E02A463946204601F037
:10296000F9FD58B1206C042804D12068016841F4B5
:1029700000710160012007B0BDE8F08F606A216836
:1029800000780861606A401C6062218D491E89B22E
:102990002185628D521E628522685369DB435B0785
:1029A0000BD469B100781061606A401C6062208DB0
:1029B000401E2085608D401E6085208D0028CBD173
:1029C0002A463946204601F0EDFC0028CAD154F8C9
:1029D0003D0B016841F400710160202004F81E09DC
:1029E000E67766770020C6E7FFE70220C3E700002E
:1029F000020010000000FFFF10B586B0002100911A
:102A000001910291039100680F4988421AD10F4C3D
:102A1000A06940F00800A061A069694600F00800C4
:102A20000490C020009012200190032003900848D9
:102A3000FFF7A6FAE06940F40010E061E06900F4F5
:102A40000010049006B010BD005400400010024079
:102A5000000C01400248816802781144816070478F
:102A6000E4000020074810B5016841F01001016042
:102A7000032000F085F80F2000F006F800F024F89D
:102A8000002010BD0020024070B50D4D04464FF4EB
:102A90007A712878B1FBF0F00A490968B1FBF0F0CF
:102AA00001F0A4F848B9102C07D200222146501E8C
:102AB00000F046F800206C6070BD012070BD000081
:102AC000E4000020F00000200C4808B5816941F0C6
:102AD00001018161816901F001010091C16941F049
:102AE0008051C161C06900F0805000900448416885
:102AF00021F0E06141F00071416008BD001002402A
:102B00000000014000280DDB00F01F020121914070
:102B10004009800000F1E020C0F88011BFF34F8F22
:102B2000BFF36F8F7047002809DB00F01F020121FF
:102B300091404009800000F1E020C0F8001170478A
:102B4000F0B40E4B1B680C46C3F30223C3F1070518
:102B5000042D00D90425191D072901D2002300E006
:102B6000DB1E012606FA05F1491E214099409E40D0
:102B7000761E16403143F0BC03F0B9BC0CED00E00A
:102B8000064900F0070208684FF6FF03184040EAC4
:102B90000220034A10430860704700000CED00E07B
:102BA0000000FA0510B50C0607D501F0070101EB8E
:102BB000810100EBC100283005E001EB810100EB51
:102BC000C10000F5B47099B232B1012202730181E3
:102BD000190C4181002010BD00220273C180F9E769
:102BE000704701EB810200EBC202D0F8E802D26B21
:102BF00002F07BBB01EB810200EBC202D0F8E802DD
:102C0000D2F87C2102F0D4BB70B504460B0601F06B
:102C1000070000EB800104EBC1014FF001024FF00F
:102C2000000503D581F82920283103E081F8695196
:102C300001F5B471087094F8A802012808D084F84E
:102C4000A822206802F0F4FF84F8A852002070BD8A
:102C5000022070BD70B5044601F00F00626890421A
:102C600001D9012070BD0B0601F0070000EB8001C7
:102C700004EBC1014FF001024FF0000503D581F8CC
:102C80002920283103E081F8695101F5B4718D7074
:102C9000087094F8A802012808D084F8A8222068B7
:102CA00003F063F884F8A852002070BD022070BDC4
:102CB0002DE9F05F04685FEA424C0B788D69B4F847
:102CC00050C04FF000064BF68F7948F2800A48F664
:102CD0008F7B48F2C00E4FF480672AD54FF0020870
:102CE00008EBC308C44407EB4C07E45BC4F30904D6
:102CF000A54203D32D1B8D6101D00BE08E610668C8
:102D000036F8235005EA090585F4005545EA0A0519
:102D100026F82350520609D50D78036833F825208C
:102D200002EA0B0242EA0E0223F8252084B30A8944
:102D300029E04FF0060808EBC308C44407EB4C0732
:102D4000E45BC4F30904A54203D32D1B8D6101D0BC
:102D50000BE08E61066836F8235005EA090585F414
:102D6000005545EA0A0526F82350520609D40B7887
:102D7000056835F8232002EA0B0242EA0E0225F824
:102D800023202CB14A8949690068234603F05CFB83
:102D90002046BDE8F09F2DE9F05F054600680C462F
:102DA0005FEA426C16468B692278B0F850C048F64C
:102DB0008F774CF280094FF6FF7B4FF4004E4FF4B3
:102DC000806A4FF000017BD54FF0020808EBC20883
:102DD000E0440AEB480C30F80C00C0F309008342D1
:102DE00011D91B1AA3610FD0730407D52E6836F8CA
:102DF00022303B4043EA090326F8223094F824208D
:102E0000012A50D04EE1A161607810B1012813D0A1
:102E10001AE02868B0F85030184400EB0210B0F8FF
:102E2000042422F4F842A0F80424B0F8042442F464
:102E30000042A0F8042407E02868B0F85030184495
:102E400000EB0210A0F804146278286812B1012A7D
:102E500011D018E0B0F850100844217800EB0110B0
:102E6000B0F80C1421F4F841A0F80C14B0F80C14CC
:102E700041F4004105E0B0F850201044227800EB06
:102E80000210A0F80C1421782846FFF7AAFE70045F
:102E9000B8D521782A6832F82100384040EA090084
:102EA00022F82100FEE0626902446261E2690244A4
:102EB000E2612369226A9A4203D31846111A04E098
:102EC00038E084F824100AB110462162617811B10B
:102ED000012923D02BE02968B1F850201144227831
:102EE00001EB021101F2044148B13E280FD842081B
:102EF000C30700D0521C0BEA82220A8017E00A881E
:102F000022F4F8420A800A8842F40042F5E74209B6
:102F1000C30600D1521E4EEA8222EEE72968B1F8BC
:102F200050201144227801EB0211A1F8040483B26D
:102F30002289B3E04FF0060808EBC208E0440AEB30
:102F4000480C30F80C00C0F30900834211D31B1A5F
:102F5000A3610FD0730407D42E6836F822303B40AB
:102F600043EA090326F8223094F82420012A50D09D
:102F700098E0A161607810B1012813D01AE02868A8
:102F8000B0F85030184400EB0210B0F8042422F4DA
:102F9000F842A0F80424B0F8042442F40042A0F857
:102FA000042407E02868B0F85030184400EB021001
:102FB000A0F804146278286812B1012A11D018E030
:102FC000B0F850100844217800EB0110B0F80C1450
:102FD00021F4F841A0F80C14B0F80C1441F40041AD
:102FE00005E0B0F850201044227800EB0210A0F861
:102FF0000C1421782846FFF7F4FD700452D422788F
:10300000296831F82200384040EA090021F82200FE
:1030100048E0626902446261E2690244E261236954
:10302000226A9A4203D31846111A216204E00AB1B7
:103030001046216284F824106278296812B1012AAE
:1030400022D029E0B1F850201144227801EB02117E
:1030500001F20C4148B13E280FD84208C30700D006
:10306000521C0BEA82220A8016E00A8822F4F842F7
:103070000A800A8842F40042F5E74209C30600D1FB
:10308000521E4EEA8222EEE7B1F850201144227817
:1030900001EB0211A1F80C04628983B2616928680E
:1030A00003F0F0F921782A6832F8210048F6BF735E
:1030B000184080F0300048F28003184322F82100C5
:1030C0000020BDE8F09F01F0070101EB810100EB5A
:1030D000C100D0F8840170472DE9F04104460F0685
:1030E00001F0070000EB800104EBC1014FF0010685
:1030F0004FF0000503D581F82960283103E081F8FD
:10310000695101F5B47108700A61CB704A7802B157
:10311000C881022B00D10D7194F8A802012809D0B2
:1031200084F8A862206802F055FC284684F8A8526A
:10313000BDE8F0810220FBE770B50C4601F0070501
:1031400005EB850100EBC101C1E95F230022C1F855
:10315000842181F8692181F8685101F5B471620711
:10316000006802F057FE002070BD70B504460D46A1
:1031700001F007006168884201D9012070BD29066D
:103180004FF000064FF0010207D500EB800104EB81
:10319000C10181F82920283107E005EB850104EB06
:1031A000C10181F8696101F5B4718A70087094F801
:1031B000A802012807D084F8A822206802F011FE96
:1031C000680702D006E0022070BD04F52C7120686B
:1031D00002F0C9FD84F8A862002070BD70B50C46ED
:1031E00001F0070505EB850100EBC101C1E90F23E3
:1031F000012281F84C208B6400234B6481F8292044
:1032000001F8285F6207006802F004FE002070BD2C
:103210001FB50446006803F013F9000402D52046E8
:1032200001F05AFB206803F00BF940050CD520682B
:1032300030F8441F21F480610180204600F01EF91F
:103240000021204600F035F9206803F0F9F8400429
:1032500005D5206830F8441F21F4804101802068A2
:1032600003F0EEF8800405D5206830F8441F21F4FF
:1032700000510180206803F0E3F8C00414D52068F1
:1032800030F8401F21F004010180206830F8401F11
:1032900021F008010180204600F003F9206830F891
:1032A000441F21F480510180206803F0C9F8000513
:1032B0003ED522680020694632F8203021F81030CF
:1032C000401CC0B20828F7D332F8400F40F001008C
:1032D0001080206830F8402F22F001020280206820
:1032E000B0F844205205FBD530F8442F22F4806218
:1032F00002800020236831F8102023F82020401C91
:10330000C0B20828F6D3206830F8401F41F0080109
:103310000180206830F8441F21F40061018020689A
:1033200030F8401F41F004010180204600F0F6F81B
:10333000206803F085F8800508D5206830F8441F20
:1033400021F400710180204600F0AFF8206803F0FE
:1033500077F8C00505D5206830F8441F21F4807146
:1033600001801FBD2DE9F04186B0040004D094F81F
:10337000A902002520B108E0012006B0BDE8F081D7
:1033800084F8A852204600F05BF8032084F8A902D4
:10339000206802F0E1FC04F110011422884668461E
:1033A000FDF752F894E80F0002F040FC0226D0BB73
:1033B0000021206803F05EF8002001270FE000BF25
:1033C00000EB800104EBC10181F8297001F8280F9E
:1033D000C881CD700D614D61401CC0B28D616168C6
:1033E0008142EDD8002011E000EB800104EBC10127
:1033F00081F8695181F8680181F86B51C1F8785101
:10340000C1F87C51401CC0B2C1F880516168814252
:10341000EAD8142241466846FDF716F894E80F00F2
:1034200002F091FC10B184F8A962A5E784F8245059
:1034300084F8A972206802F084FC00209DE7000057
:1034400008B500680B49884212D10B48C16941F4A4
:103450000001C161C069002200F400000090114623
:103460001420FFF76DFBBDE808401420FFF75BBB9D
:1034700008BD0000005C00400010024070B504462A
:1034800080680125022801D0FEF7FAF92946D4F810
:10349000E80202F076F8D4F8E802BDE8704002F0E5
:1034A00032B8D0F8E80202F056B8D0F8E80202F0DC
:1034B0005CB810B5044690F8A80201280BD0012092
:1034C00084F8A80284F82410206802F0D5FF0020B8
:1034D00084F8A80210BD022010BDD0F8E82200F543
:1034E0002C71104602F059B810B5044690F8A802A5
:1034F000012810D0012084F8A802206802F090FF73
:1035000001212046FFF76CFB206802F018FC002028
:1035100084F8A80210BD022010BD000010B50446BA
:10352000D0F8E80202F078F8A069002804D0034837
:10353000016841F00601016010BD000010ED00E0DF
:1035400010B529A401461DCC86B08DE81D002AA027
:103550002A4C006804900020012923D002293AD087
:1035600010291DD161682268D20119D5C1F38342A7
:10357000C9031DF8020009D5616804AAC1F34041DE
:10358000515C1F4AB2FBF1F1484301E01D49484339
:103590006168490204D440005FF00301B0FBF1F020
:1035A00006B010BD226AC2F30121012903D192079E
:1035B00001D5C803F4E7022905D1626A920702D552
:1035C00049F64040ECE70329EAD121688903E7D5B1
:1035D0004FF22440E4E700F033F96168C1F3813130
:1035E000491C4900DAE70000020304050607080940
:1035F0000A0B0C0D0E0F101001020000001002400B
:1036000000127A0000093D002DE9F84305460078D4
:10361000354CC00754D0E0690026C00008D4E069EA
:1036200040F08050E061E069012600F08050009099
:103630002E480168C90512D40168804641F48071A2
:103640000160FEF797FD074605E000BFFEF792FD1B
:10365000C01B642823D8D8F80000C005F6D5206A1E
:1036600010F4407021D0A98801F4407181421CD02F
:10367000206A1F49012220F440700A6000220A607B
:103680002062C00711D0FEF775FD074641F2883869
:1036900008E000BFFEF76EFDC11B414502D90320C3
:1036A000BDE8F883206A8007F4D5206A696820F4B1
:1036B0004070084320621EB1E06920F08050E06154
:1036C0002878800705D56068A96820F44040084341
:1036D00060602878C00605D56068E96820F480003D
:1036E000084360600020DBE70010024000700040EB
:1036F000400442422DE9F0470F46050061D0434E99
:10370000306800F00700B84209D2306820F00700A6
:1037100038433060306800F00700B84251D1286863
:103720003B4C810712D5400703D5606840F4E06048
:1037300060602878000703D5606840F460506060DE
:103740006068A96820F0F000084360602878C0072E
:1037500028D06868012810D02168022810D0890775
:1037600000292EDA616821F0030101436160FEF750
:1037700001FD804641F288390DE021688903EFE7B9
:103780008901EDE7FEF7F6FCA0EB0801494502D9F7
:103790000320BDE8F0876068696800F00C00B0EBBA
:1037A000810FEFD1306800F00700B8420BD93068C4
:1037B00020F0070038433060306800F00700B8425E
:1037C00001D00120E5E72878400705D56068E96861
:1037D00020F4E060084360602878000706D5606840
:1037E000296920F4605040EAC100606000F038F8B8
:1037F0006168084AC1F30311515CC840064908607A
:1038000006480068FFF740F90020C2E700200240A8
:1038100000100240DE980008F0000020E8000020C0
:103820000448054900684968044AC1F30221515C13
:10383000C8407047F000002000100240EE980008D9
:103840000448054900684968044AC1F3C221515C33
:10385000C8407047F000002000100240EE980008B9
:1038600012A185B00FC98DE80F0014A0144A00689A
:1038700004905168134801F00C03042B10D0082B5E
:103880000ED1C1F38343C9031DF803000AD5516863
:1038900004AAC1F34041515C0A4A5043B0FBF1F025
:1038A00005B0704708494843FAE7000002030405E1
:1038B000060708090A0B0C0D0E0F1010010200007C
:1038C0000010024000127A0000093D002DE9F84F77
:1038D000040070D02078C04DC00749D06868C0F39C
:1038E0008100012807D06868C0F38100022809D14F
:1038F0006868C00306D52868800339D56068002849
:10390000E7D035E06068B0F5803F0BD010B1B0F57E
:10391000A02F11D0286820F480302860286820F477
:10392000802002E0286840F480302860606890B110
:10393000FEF720FC06460AE0286840F48020286054
:10394000F0E700BFFEF716FC801B642873D82868D8
:103950008003F7D50CE0FEF70DFC064605E000BF3E
:10396000FEF708FC801B6428F0D828688003F7D491
:1039700020789A4E80074FF001094FF0000839D5A2
:10398000686810F00C0F07D06868C0F38100022847
:1039900009D16868C00306D42868800714D5206957
:1039A000012808D110E02069B0B1C6F80090FEF7F8
:1039B000E1FB074605E00AE1FEF7DCFBC01B02283D
:1039C000C4D828688007F7D52868616920F0F80016
:1039D00040EAC10028600DE0C6F80080FEF7CAFB8F
:1039E000074604E0FEF7C6FBC01B022823D8286860
:1039F0008007F7D4207800072CD57948A169D9B180
:103A0000C0F80090FEF7B6FB074604E0FEF7B2FBF5
:103A1000C01B02280FD8686A8007F7D571484FF499
:103A2000FA510068B0FBF1F0009000BF0098411E11
:103A30000091FAD20EE080E0C0F80080FEF79AFB19
:103A4000074604E0FEF796FBC01B022875D8686A9B
:103A50008007F7D42078400760D5E8690027C000C8
:103A600008D4E86940F08050E861E869012700F077
:103A7000805000905C480168C90513D401688346F2
:103A800041F480710160FEF775FB824606E000BFDD
:103A9000FEF770FBA0EB0A0064284ED8DBF80000AC
:103AA000C005F5D5E06801280AD008B1052813D073
:103AB000286A20F001002862286A20F0040002E051
:103AC000286A40F001002862E06841F2883B98B122
:103AD000FEF750FB82460BE0286A40F004002862A3
:103AE000EEE700BFFEF746FBA0EB0A0159455AD8A6
:103AF000286A8007F6D50CE0FEF73CFB824605E01D
:103B0000FEF738FBA0EB0A0159454CD8286A80071C
:103B1000F6D41FB1E86920F08050E861E06988B30D
:103B20006968C1F38101022944D00228C6F8608087
:103B300004D0FEF71FFB044638E034E0FEF71AFB22
:103B4000074604E0FEF716FBC01B02282BD82868A6
:103B50008001F7D4206AB0F5803F05D16868A1687C
:103B600020F4003008436860D4E90801084369681C
:103B700021F4741108436860C6F86090FEF7FAFA01
:103B8000044606E025E000BFFEF7F4FA001B022819
:103B900009D828688001F7D51BE000BFFEF7EAFAD4
:103BA000001B022802D90320BDE8F88F2868800195
:103BB000F4D40EE00128F7D06868226A00F480315E
:103BC000914204D1616A00F47010884201D0012052
:103BD000EAE70020E8E7000000100240000042424F
:103BE00080044242F00000200070004010B5401EEA
:103BF000B0F1807F01D3012010BD4FF0E02460615F
:103C00000F21601702F073FC0020A06107202061E3
:103C1000002010BD7047704770B590F83C20012A15
:103C200026D0012480F83C40022280F83D20036821
:103C30005A689D6822F070060A6832435A600D4B3C
:103C400002689A4208D0B2F1804F05D00A4B9A42DE
:103C500002D00A4B9A4204D1496825F080031943E7
:103C6000916080F83D40002180F83C10084670BD0E
:103C7000022070BD002C01400004004000080040FC
:103C800090F83D10012901D001207047022180F8F1
:103C90003D1000680B49884208D0B0F1804F05D034
:103CA0000949884202D00949884204D1816801F05B
:103CB0000701062903D0016841F0010101600020DD
:103CC00070470000002C0140000400400008004044
:103CD000704770B50446006801694FF00005C9439C
:103CE000890715D4C168C943890711D4E91E016148
:103CF00001202077206880698007204602D0FFF7E6
:103D0000E7FF04E000F098F8204600F0DFF82577A0
:103D100020680169C943490717D4C168C9434907E5
:103D200013D46FF0040101610220207720688069BC
:103D300010F4407F204602D0FFF7CAFF04E000F0F5
:103D40007BF8204600F0C2F8257720680169C94356
:103D5000090716D4C168C943090712D46FF00801D6
:103D60000161042020772068C0698007204602D0C6
:103D7000FFF7AEFF04E000F05FF8204600F0A6F881
:103D8000257720680169C943C90617D4C168C943AA
:103D9000C90613D46FF01001016108202077206854
:103DA000C06910F4407F204602D0FFF791FF04E085
:103DB00000F042F8204600F089F825772068016974
:103DC000C943C90708D1C168C943C90704D1891EBD
:103DD0000161204600F07CF820680169C9430906AA
:103DE00009D4C168C943090605D46FF08001016197
:103DF0002046FFF70FFF20680169C943490609D42F
:103E0000C168C943490605D46FF0400101612046ED
:103E100000F072F820680169C94389060BD4C168B3
:103E2000C943890607D46FF0200101612046BDE82F
:103E30007040FFF7F0BE70BD704770B50D460400CE
:103E400003D094F83D0010B107E0012070BD0020C0
:103E500084F83C00204600F01BF8022084F83D0066
:103E6000211D206800F00CFF2068016821F0080186
:103E7000016054F8460B016829430160012004F8F1
:103E80001F09E0752076E0762077A075002070BDD0
:103E900008B500680B49884212D10B48816941F48A
:103EA000006181618069002200F400600090114689
:103EB0001920FEF745FEBDE808401920FEF733BE85
:103EC00008BD0000002C01400010024070470000B7
:103ED000074988420BD101204FF0E022C105C2F80A
:103EE0008011BFF34F8FBFF36F8F02498872704705
:103EF000F8020020500000207047FEE72DE9FC5F2B
:103F000002F072FD04F0CEF8494FDFF8289100244A
:103F1000A9F10C052646A7F10E08385D062808D23F
:103F2000DFE800F00703030303038021204603F0CA
:103F300081F845F8246098F80410601C824681429C
:103F400003D149F8246088F8046059F8241055F822
:103F5000240005F0AFFB45F82400395D49B305F0B6
:103F60005BF9CDE9000104EBC40000EB041098F804
:103F70000110444601EB80022E482FA14A306432E2
:103F8000FCF752F9FEF7F6F840F6B83BA06205E000
:103F9000FEF7F0F8A16A411A59450AD825484A3077
:103FA000FCF733FA81B223484A30FDF729FC002898
:103FB000EED10AF0FF04032CAFD398F80400444676
:103FC000042803D1A078401CA0702671A078022894
:103FD00000D9A67001202070A07855F8200002F0CA
:103FE000A9FB184D4FF48046002231462846FEF7C3
:103FF000BCF86F14002239462846FEF7B6F84FF495
:104000008058002241462846FEF7AFF8A07828B134
:1040100001284FF0010204D0414603E0012231465D
:1040200000E0394602B02846BDE8F05FFEF79DB8D3
:104030005E0000201402002023256423252E346610
:10404000230A0000000C014001684A69D24352056E
:104050000FD46FF480624A61002140F8301F2022A3
:1040600042738173026942F004020261017301200C
:1040700070470020704700002DE9F84F0446C06AE1
:104080001E4693460D4621680A6842F480620A6023
:10409000082807D0012805D010F5803F02D0206BFA
:1040A000112804D12068016841F4807101604FF04B
:1040B00001195B46002249462046009600F098F917
:1040C0004FF4007840B120680068C00501D5C4F8FD
:1040D00040800320BDE8F88F2069DFF884A0B0F5A8
:1040E000804F0FD00620216800EAD51747F0F00076
:1040F000086133465A460AF10601204600F0ACF941
:1041000058BB03E0E8B240F001001CE02168E8B2CF
:10411000086133465A465146204600F09DF9E0B901
:104120002068416981690091016841F480710160F2
:104130005B46002249462046009600F059F90028C7
:10414000C1D147F0F1002168086133465A46514613
:10415000204600F081F90028BCD00120BAE7000019
:1041600002000100F8B50446C06A1E460D46174617
:10417000082807D0012805D010F5803F02D0206B19
:10418000122804D12068016841F48071016013464F
:1041900000224FF001112046009600F029F940B1AD
:1041A00020680068C00502D54FF400702064032029
:1041B000F8BD2069B0F5804F0ED00620216800EAD6
:1041C000D51040F0F000086133463A460B492046CE
:1041D00000F042F978B902E005F0FE0000E0E8B234
:1041E00021680861054933463A46891F204600F098
:1041F00033F90028DCD00120F8BD000008000100E0
:104200002DE9F84F0446006889460B9D01689846E1
:10421000174641F4806101602068016841F48071B3
:10422000016000954FF0011B0022594620460A9B71
:1042300000F0DEF84FF4007A40B120680068C00555
:1042400001D5C4F840A00320BDE8F88F216809F02B
:10425000FE0008612B46284920460A9A00F0FCF827
:10426000F0BB20684169806900902A4620460A997F
:1042700000F070F940B1206C04283AD12068016840
:1042800041F40071016034E0FEB2B8F1010F09D0D1
:104290002168380A08612A4620460A9900F05AF92E
:1042A0000028E8D1206806612A4620460A9900F0D5
:1042B00051F90028DFD12068016841F48071016064
:1042C00000950022594620460A9B00F091F80028EC
:1042D000B3D1216809F0FF0040F00100086100E05F
:1042E00007E02B46044920460A9A00F0B5F800285A
:1042F000AAD00120A8E70000020001002DE9F84340
:10430000044600680D46DDE90897016898461646A0
:1043100041F4807101604B4600224FF001112046AC
:10432000009700F065F848B120680068C00502D524
:104330004FF4007020640320BDE8F883216805F085
:10434000FE0008613B464A461549204600F084F8C5
:1043500088B920684169806900903A4649462046FC
:1043600000F0F8F848B1206C042804D120680168F6
:1043700041F4007101600120DEE7F5B2B8F1010FF0
:1043800009D02168300A08613A464946204600F0C3
:10439000E1F80028E7D1206805610020CCE70000A3
:1043A0000200010070B516460D4604460DE0204699
:1043B000FFF74AFE08B1012070BD681C05D0FDF76B
:1043C000D9FE801BA84207D835B120684069C04398
:1043D0004007ECD4002070BD002044F8300F2021AD
:1043E0006173A073216941F0200121612073E2E72C
:1043F0002DE9F0471E4690460D460446C1F3074797
:10440000DDF8209008E0701C06D0FDF7B3FEA0EBAD
:104410000900B0420FD876B12068012F18D080690A
:1044200025EA00000004000C14D000214145EAD028
:104430000020BDE8F087002044F8300F2021617390
:10444000A073216941F02001216120730120F0E770
:104450004069E5E70121E9E72DE9F0479A469146F1
:104460000E46044600254FF02008C1F3074725E01B
:1044700020684069C043400514D42068016841F4B5
:104480000071016021686FF480604861256384F8E1
:104490003D8084F83E50206C40F00400206484F895
:1044A0003C501FE0B9F1FF3F08D0FDF763FEA0EBE1
:1044B0000A0149450CD8B9F1000F09D02068012F35
:1044C00013D0806926EA00000004000C0BD0CFE76F
:1044D00044F8305F84F80D80A573206940F0200017
:1044E000206125730120BDE8F0874069EAE72DE9E6
:1044F000F041002590460E460446202717E040690B
:10450000C043C0060CD454F8301B6FF01000486153
:1045100044F810596777A577206A2062257717E05D
:10452000FDF728FEA0EB0800B04208D83EB1206895
:104530004169C9434906E2D40020BDE8F08144F84E
:10454000305F6773A573206940F0200020612573F8
:104550000120F2E770B516460D4604460DE02046F0
:10456000FFF772FD08B1012070BD681C05D0FDF792
:1045700001FE801BA84207D835B120684069C043BE
:104580000006ECD4002070BD002044F8300F20213C
:104590006173A073216941F0200121612073E2E77A
:1045A000F0B500230A24302537261F4611E000BF4E
:1045B000B4EB107F02D905EB107C01E006EB107C18
:1045C00001F813C001EB430C00015B1C8CF8017077
:1045D000DBB29342ECD3F0BDFEB500241B4800943F
:1045E00001941949029401608915816004730125C1
:1045F000057503264FF460214460C0E90661066139
:10460000FDF706FA08B1FDF73BF9CDE9004569462B
:104610000E480294FDF77AF908B1FDF731F902244A
:10462000CDE9005469460948FDF770F908B1FDF776
:1046300027F9CDE9004669460448FDF767F90028E7
:1046400001D0FDF71DF9FEBD0024014074020020D9
:104650002DE9F04F85B000255F4800950195029542
:104660000395816941F010018161816901F01001B8
:104670000491816941F020018161816901F020018B
:104680000491816941F004018161816901F00401B3
:104690000491816941F00801816180694F4F00F008
:1046A00008004FF460440490002221463846FDF78C
:1046B0005CFDDFF82CA1002240215046FDF755FD9E
:1046C000DFF820B100224FF238015846FDF74DFDCA
:1046D000009401240226CDE9014669463846039636
:1046E000FDF74EFC38270097CDE901566946504644
:1046F000FDF746FC40204FF003088DE85101694664
:104700005046FDF73DFCDFF8E0908020CDE9000940
:10471000694602945046FDF733FC40F60300CDE9AC
:104720000009694602945846FDF72AFCA002CDE92B
:104730000005694658460295FDF722FC4FF470408B
:104740008DE8710069465846FDF71AFC200200907A
:104750002648CDE9010669465046FDF711FC4FF4A5
:104760000640CDE90005694602945046FDF708FC75
:1047700001AA009782E8500169465846FDF700FCFF
:104780004FF44070CDE90005694602945846FDF7A4
:10479000F7FB002211460620FEF7D2F90620FEF7AD
:1047A000C2F9002211460720FEF7CAF90720FEF7DA
:1047B000BAF9002211461720FEF7C2F91720FEF7BA
:1047C000B2F9002211462820FEF7BAF92820FEF798
:1047D000AAF905B0BDE8F08F0010024000100140BA
:1047E00000080140000C01400000211000001110E1
:1047F0000D4810B50B4901600C49416000214FF490
:1048000080428160C0E9031241618161C16101623E
:10481000FDF7B6FC002803D0BDE81040FDF730B826
:1048200010BD000000540040A4020020A08601003A
:104830001CB50024114800940F490194016041F611
:104840001F41C0E9011440F2E731C0E9031444619B
:1048500008218461FFF7F1FA08B1FDF711F8202073
:10486000CDE9000469460548FFF7D6F9002801D0D4
:10487000FDF706F81CBD0000002C0140F8020020E6
:1048800010B500220F49104800F008FD08B1FCF7F0
:10489000F7FF0E490C4800F0E5FE08B1FCF7F0FF09
:1048A0000B49094800F006FB08B1FCF7E9FF064890
:1048B00000F02EFF002803D0BDE81040FCF7E0BF59
:1048C00010BD00008400002040030020D001002023
:1048D000D4000020FEE7FEE72DE9F84F044640F63D
:1048E0008F7B48F60F7A4FF002094FF4806874E12D
:1048F000B0F8441011F00F063AD030F826703904A1
:104900007DD530F8261001EA0B0141F0800120F836
:10491000261006EB860004EBC00595F8740105F53A
:10492000B47500286CD0E87802286AD0287822680C
:1049300032F8201048F68F73194048F2C00319432B
:1049400022F820102878D4F800C03CF82010BCF8D9
:10495000502049047ED509EBC000111808EB410036
:104960003CF800008005800D009074D02A89D8E0C2
:10497000C9062DD4018801EA0A0141F400410180F1
:10498000216804F12805B1F850202B7809EBC30009
:10499000024408EB4200085AC0F309006064E16B6E
:1049A0000844E06300212046FEF71BF994F8240038
:1049B00000289CD0A869002899D194F82400216887
:1049C00040F08000A1F84C00002084F8240004E1AD
:1049D000018804F5B4750A0521D5B0F850202B786C
:1049E000062101EBC3010A4408EB4201405A04F5D9
:1049F0002C71C0F30903EB61EA88206802E0ACE0A7
:104A000068E07AE001F020FD2168088800EA0B00E8
:104A100040F0800008802046FEF75FFDDDE00904DD
:104A2000D5D5018801EA0B0141F0800101802068A1
:104A3000B0F850202B78062101EBC3010A4408EBA3
:104A40004201405A83059B0DEB6110D0696971B139
:104A5000EA8801E058E056E0206801F0F5FCE969D9
:104A600068690844686100212046FEF7C3F82068A1
:104A7000018809052DD4B0F850100844296900F2C6
:104A80000C4051B13E2910D84A08C90700D0521C29
:104A90004FF6FF7101EA82210FE0018821F4F8410D
:104AA0000180018841F4004107E04A09C90600D1AC
:104AB000521E4FF4004141EA8221018020680188A2
:104AC0004BF68F72114081F4405148F2800211433D
:104AD000018082E0D4F800C0BCF850102A7806208B
:104AE00000EBC200014408EB41003CF800008005E7
:104AF000800D00901AD0EA8813E03A4629462046F5
:104B0000FEF7D6F8009011E0062101EBC000111865
:104B100008EB41003CF800008005800D009005D0B6
:104B20006A8903466046696901F08EFCE96900986C
:104B30000844E8616969009808446861A86918B187
:104B400029690098814204D929782046FEF752F855
:104B500003E02946206801F05DF938063DD506EBF3
:104B6000860004EBC001206830F8262002EA0A0221
:104B700042F4004220F8262091F82B002831032827
:104B800004D018B1022824D1F80522D42368B3F840
:104B900050200D7809EBC500024408EB4200185A7A
:104BA0008A69C0F3090082420CD9121A8A610BD0BB
:104BB0004A6902444A61CA691044C861206801F028
:104BC00029F90AE000208861E9B22046FEF709F8D9
:104BD00003E03A462046FEF7DEF82068B0F84410BD
:104BE00009043FF585AE0020BDE8F88F7047704797
:104BF000FDF730BF30B593B028216846FBF756FC6F
:104C000014210AA8FBF752FC002401200F941094F1
:104C10001194010412948DE8130004904FF4E010F5
:104C2000CDE90810022507956846FEF74FFE08B14A
:104C300072B6FEE70F20CDE90A054FF48060CDE99A
:104C40000C4002210AA80E94FEF754FD08B172B67A
:104C5000FEE712200F904FF40040CDE911040FA899
:104C6000FEF7D2FC002801D072B6FEE713B030BDCB
:104C7000704700000148FFF72CB80000F802002040
:104C8000F0B50268164B174C174D4FF0804798420D
:104C900005D0B84203D0A04201D0A84203D122F0EF
:104CA00070064A683243984205D0B84203D0A04209
:104CB00001D0A84203D122F44074CA6822434C694F
:104CC00022F08002224302608A68C2620A6882621D
:104CD000984201D10969016301214161F0BD0000E1
:104CE000002C014000040040000800402DE9F04184
:104CF000D0F8C032D0F8B822CAB101EB810500EB80
:104D000085040026E7693FB103EBC5039B6BB7FB46
:104D1000F3F503FB157323B1C2F814620020BDE85C
:104D2000F08100231A46E66100F07FFCF6E70220DE
:104D3000F5E770B50546D0F8B84200F07AFBC4F844
:104D40000C02D5F8B80248B1D5F8BC12D4F8040268
:104D5000CA6804F503719047002070BD022070BD41
:104D600070B504460026812100F0B6FA0025012125
:104D70002046E56200F0B0FA82212046C4F86C516A
:104D800000F0AAFA2564D4F8B80248B1D4F8BC02FD
:104D900004F52E7440688047206800F016FE2560F8
:104DA000304670BD10B5D0E9AE4159B194F800025B
:104DB000FF2807D08B6894F8012221469847FF20EE
:104DC00084F80002002010BD0A21018000487047CD
:104DD000F80000204321018000487047480100206E
:104DE00043210180004870470401002043210180D5
:104DF000004870478C0100202DE9F0410446002650
:104E0000007C4FF40077012590B3402302228121DA
:104E1000204600F063FB4023E56202220121204688
:104E200000F05CFB0823032282212046C4F86C5169
:104E300000F054FB4FF40770256400F0C7FDC4F880
:104E4000B802F8B10546D4F8BC02006880470020DB
:104E5000C5F81402C5F81802207CD5F8042298B1D0
:104E600040230121204600F045FB3046BDE8F0819B
:104E7000FFE73B4602228121204600F02FFB3B4604
:104E8000E562CAE70126F0E73B46EAE710B5D0F84D
:104E9000B81269B1027C002AD1F8042205D040235F
:104EA000012100F027FB002010BD4FF40073F7E74D
:104EB000022010BD02460220002902D00020C2F8C4
:104EC000BC127047D0F8B802C0F804120020704736
:104ED000D0F8B802C0F81022C0F8081200207047BD
:104EE0002DE9FC410546D0F8B87200208DF800008D
:104EF000ADF80400064608780C4610F0600121D099
:104F000020293BD1E288AAB10006607807D5D5F800
:104F1000BC128B6839469847E288394626E087F804
:104F20000002A07987F80102E2883946284600F09D
:104F30006AF828E0D5F8BC12607800228B68214618
:104F4000984720E0607820B10A2809D00B2815D1B5
:104F500010E095F89C02032810D1022201A905E077
:104F600095F89C02032809D101226946284600F0E1
:104F700064F808E095F89C02032804D021462846EE
:104F800000F036F802263046BDE8FC8110B5D0F8B6
:104F9000B812A1B1D1F814220AB1012010BD01222A
:104FA000C1F81422D1F810220263B1F8102293B292
:104FB000D1F80822812100F038FB002010BD02202A
:104FC00010BD10B5D0F8B42252689047002010BD33
:104FD000134610B50A46002100F08CFA002010BDDF
:104FE000134610B50A46002100F01FFB002010BD3B
:104FF00010B50446802100F0FDFA2046BDE81040BF
:10500000002100F0F7BA10B50323C0F85C21C0F806
:105010009432C0F8602113460A46002100F06AFA73
:10502000002010BD10B505210023C0F894121A46C7
:10503000194600F05FFA002010BD10B50223C261CE
:10504000C0F89432026213460A46002100F0EDFADD
:10505000002010BD10B504210023C0F894121A4698
:10506000194600F0E2FA002010BD000010B50A4613
:10507000024903A000F0E2F8004810BD0406002039
:1050800043444320436F6E66696700001220088026
:1050900000487047A400002010B50A46024903A04A
:1050A00000F0CCF8004810BD040600204344432023
:1050B000496E7465726661636500000004200880B3
:1050C00000487047A000002010B50A46024903A01E
:1050D00000F0B4F8004810BD0406002053544D6998
:1050E00063726F656C656374726F6E6963730000E1
:1050F00010B50A46024903A000F0A0F8004810BD10
:105100000406002053544D33322056697274756181
:105110006C20436F6D506F727400000010B51A2040
:1051200008800A480168001D0468001D006808180E
:1051300009D008220649FFF733FA05490422103145
:105140002046FFF72DFA0248801E10BDE8F7FF1F2A
:10515000BA000020F8B504460020ADF800004888E9
:105160000D46010A082948D2DFE801F04704091773
:1051700047473C45D4F8B012207C0A6819E0207CEF
:1051800002260028D4F8B40205D0C16A68468847D0
:10519000014646703EE0816AF8E7C0B206282CD28C
:1051A000DFE800F0030A1014181CD4F8B0024268BB
:1051B00005E0694690471CE0D4F8B0028268E2B18D
:1051C000207CF6E7D4F8B002C268F8E7D4F8B00261
:1051D0000269F4E7D4F8B0024269F0E7D4F8B0020B
:1051E0008269ECE7207C40B9D4F8B402416B684690
:1051F000884701460EE0207C20B129462046FFF773
:10520000F7FEF8BDD4F8B402016B68468847014642
:1052100007204870BDF8000048B1EA8852B18242C8
:1052200000D90246ADF800202046FFF706FFE888C7
:105230000028E6D12046FFF70DFFF8BD70B500232A
:1052400000281ED00446002502E06D1CEDB2641C4F
:105250002678002EF9D1022404EB4504148012783C
:10526000CA545B1C0322CA5400245B1C06E0CA54C7
:105270005B1CDAB28C54521CD3B2401C0278002A58
:10528000F5D170BD01004FF0000004D0012901D01C
:10529000022901D0022070470120704710B580B16B
:1052A000D0F8B43213B10023C0F8B43209B1C0F859
:1052B000B012012180F89C12027000F0BFF80020AB
:1052C00010BD022010BD10B5D0F8C002FDF7C2FC21
:1052D000BDE81040FFF7D6BF10B5D0F8C002FDF70B
:1052E00093FCBDE81040FFF7CDBF2DE9F041174614
:1052F000044651B1D4F8B40242691AB194F89C0240
:10530000032851D00220BDE8F081D4F89432002562
:1053100004F11400022B03D0042B3AD0C3B33CE0B9
:10532000D0E903639E4207D9F11AC1608AB23946B7
:105330002046FFF755FE12E08068B0FBF3F103FB57
:10534000110199B9984211D3D4F8981288420DD21C
:10535000002211462046FFF743FEC4F8985200236E
:105360001A461946204600F0C5F816E0D4F8B402F3
:10537000C16829B194F89C02032801D120468847CE
:105380008021204600F036F92046FFF74BFE04E06E
:10539000FFE78021204600F02DF994F8A0020128B3
:1053A00004D184F8A05201E0204690470020AAE7EB
:1053B00070B51546044649B1D4F8B40282691AB1F1
:1053C00094F89C02032830D0022070BDD4F89412C7
:1053D00004F5AA70032902D005291ED027E0D0E9E0
:1053E00003218A420BD9531AC3600846834200D373
:1053F00003469AB229462046FFF7EAFD17E0D4F8A3
:10540000B402016929B194F89C02032801D1204615
:1054100088472046FFF71EFE09E000200146C4F839
:105420009402204600F0E6F801E020469047002074
:1054300070BDD0F8C002FDF746BE000010B50446AE
:105440001C481D49C0F8E842C4F8C00201600821A8
:1054500041600221816000218161C1610162FDF72B
:1054600081FF08B1FCF70CFA0022D4F8C00218231F
:10547000114604F53074FDF795FB58230022802176
:105480002068FDF78FFBC023002281212068FDF7F3
:1054900089FB4FF48873002201212068FDF782FB0D
:1054A0004FF48073002282212068FDF77BFB0020EF
:1054B00010BD0000F4110020005C00400A0601F05D
:1054C0007F01D0F8C00201EB810100EBC10002D5E1
:1054D00090F82A00704790F86A01704710B51C4692
:1054E0001346D0F8C0022246FDF7F6FDBDE8104095
:1054F000FFF7C8BE10B5D0F8C002FDF71DFEBDE82D
:105500001040FFF7BFBE70B500220446402311468D
:10551000FFF7E4FF40260125C4F86461334600220A
:1055200080212046C4F85851FFF7D8FF6662A56174
:1055300084F89C520020C4F894026060C4F8A4026D
:10554000D4F8B80228B1D4F8B40200214268204649
:105550009047002070BD90F89C12042903D190F868
:105560009D1280F89C120020704710B590F89C1294
:10557000032904D1D0F8B412C96901B188470020C9
:1055800010BD01740020704710B5D0F8C002FDF7BF
:1055900090FFBDE81040FFF775BE70B5044600F5FA
:1055A0002A70054600F04AF80120C4F89402B4F8C5
:1055B000AE02C4F8980294F8A80210F01F010AD0B5
:1055C00001290DD0022910D000F08001204600F002
:1055D00011F8002070BD2946204600F09EF8F8E73B
:1055E0002946204600F0CAF9F3E72946204600F094
:1055F0001DF9EEE710B5D0F8C002FDF7B6FDBDE825
:105600001040FFF73FBE10B5D0F8C002FDF76CFFA9
:10561000BDE81040FFF736BE90F89C1280F89D124E
:10562000042180F89C120020704710B5D0F8C00209
:10563000FDF7D4FDBDE81040FFF724BE0A780270E4
:105640004A7842708A78CB7802EB032242800A794A
:105650004B7902EB032282808A79C97902EB01211E
:10566000C18070470246002011B1C2F8B4127047E1
:105670000220704710B5D0F8B42202241AB1126883
:10568000904700B90024204610BD000070B50E46BA
:105690001E4D897804462970012931D894F89C025E
:1056A00002280BD003280FD031462046FFF7A0FC7C
:1056B00029782046BDE87040FFF783BCD9B10320AC
:1056C000616084F89C0209E071B16068884212D080
:1056D000C1B22046FFF775FC297861602046FFF7CC
:1056E000C9FF02280CD006E0022084F89C02204664
:1056F0006160FFF766FC2046BDE87040FFF7AABC7A
:1057000031462046BDE87040FFF772BCF40000202F
:1057100010B5FFF778FF002010BD2DE9F0410A78A1
:10572000002612F0600208D0202A01D0402A70D151
:10573000D0F8B422926890476DE04B7800220125A2
:105740000A2B66D2DFE803F0405D65576508056502
:105750002C29FFF7FFFC5EE004468888D8B9C8888A
:10576000C8B94888802816D200F07F0794F89C02B8
:10577000032810D084F89E7239462046FFF704FFB4
:105780002046FFF767FC1FB1022084F89C0242E02C
:1057900084F89C523FE020463BE0FFF777FF3AE079
:1057A000CB88012B35D190F89C32012B04D0022BF1
:1057B00002D0032B2DD104E08260012200F1080108
:1057C00016E00122011D13E090F89C22012A03D06B
:1057D000022A01D0032A1CD1CA88022A19D1C56025
:1057E000D0F8A41209B10321C160022200F10C011A
:1057F000FFF723FC0FE0498801290CD1C0F8A4521F
:1058000011E090F89C32012B08D0022B06D0032B1C
:1058100004D0FFF7EDFB3046BDE8F081498801294F
:10582000F9D1C0F8A422FFF715FCF4E72DE9F04107
:105830000A46044610780027097910F060030AD060
:10584000202B01D0402B50D1D4F8B40211468368EC
:10585000204698478FE0C0F34110012806D05078C9
:10586000D0B301282AD003283FD107E0D4F8B402EE
:10587000114683682046BDE8F041184794F89C0221
:10588000022802D0032872D10AE071B380296ED0B9
:105890002046FFF7AFFE80212046FFF7ABFE6AE00F
:1058A000508838B931B1802904D0D08810B9204649
:1058B000FFF7A0FE2046FFF7CDFB5CE094F89C02CA
:1058C0000228E2D0032852D1508898BB4806F1D074
:1058D0002046FFF7F8FCEDE7FFE794F89C0200266E
:1058E000022803D0032842D112E040E009B1802908
:1058F0003DD1080601F07F0000EB800004EB800141
:1059000001D5143101E001F5AA7102220E602AE0EE
:10591000080601F00F0000EB800004EB80000AD5C0
:10592000806920B301F07F0000EB800004EB80056C
:1059300014350BE01FE0D0F85801C0B101F07F0032
:1059400000EB800004EB800505F5AA7541B18029C4
:1059500006D02046FFF7B2FD10B10120286000E01C
:105960002E60022229462046FFF767FB03E011461E
:105970002046FFF73DFB3846BDE8F08170B505468F
:1059800008780C4610F0600003D0202801D0402891
:1059900016D195F89C02012803D0022801D00328D3
:1059A0000ED1207901280BD8D5F8B4028268284698
:1059B0009047E188014306D12846FFF74BFB02E000
:1059C0002846FFF715FB002070BD70470048704760
:1059D000D40F00202DE9F0470C78002630F8243051
:1059E00048F68F121340CA78002A7DD0012A7CD055
:1059F000022A02D0032A7FD0012648F280021343F4
:105A000020F824300D7830F8254048F68F731C407C
:105A10002C43144320F825400D7B48F2C00C48F677
:105A2000BF744CF280074BF68F79EDB391F800808C
:105A3000C24630F8285048F280181D4045EA080553
:105A400020F82A50B0F8505091F80080054405EB3A
:105A50000815B1F8088028F00108A5F80084B0F80E
:105A6000505091F80080054405EB0815B1F80A8004
:105A700028F00108A5F808844D78002D0D7830F83D
:105A800025804FEA48487DD0B8F1000F07DA30F89A
:105A9000258008EA030848EA070820F825800F78DF
:105AA00030F827506D0600E02CE006D530F827507E
:105AB0001D4045EA0C0520F82750CB780D78012BC6
:105AC00030F8253003EA040301D083F020031343A8
:105AD00020F825300B7830F8231001EA0901114332
