:020000040800F2
:10000000F81A0020C9010008CB2600086523000863
:10001000C9260008090400089F43000800000000EA
:10002000000000000000000000000000E3290008BC
:100030005104000800000000E1290008E52900083B
:10004000E3010008E3010008E3010008E301000800
:10005000E3010008E30100085304000861040008FC
:10006000E3010008E3010008E3010008E3010008E0
:10007000E3010008E3010008E3010008E3010008D0
:10008000E3010008E3010008E3010008E3010008C0
:1000900029430008E3010008E301000867040008A1
:1000A000E3010008E3010008E3010008E3010008A0
:1000B000E3010008E3010008E3010008E301000890
:1000C000E3010008E3010008E3010008E301000880
:1000D000E3010008E3010008E3010008E301000870
:1000E00059040008E3010008E301000800F002F8E9
:1000F00000F05AF80AA090E8000C82448344AAF168
:100100000107DA4501D100F04FF8AFF2090EBAE865
:100110000F0013F0010F18BFFB1A43F0010318473B
:100120000C5100002C5100000A444FF0000C10F854
:10013000013B13F0070408BF10F8014B1D1108BF65
:1001400010F8015B641E05D010F8016B641E01F805
:10015000016BF9D113F0080F1EBF10F8014BAD1C55
:100160000C1B09D16D1E58BF01F801CBFAD505E073
:1001700014F8016B01F8016B6D1EF9D59142D6D3CD
:10018000704700000023002400250026103A28BFF5
:1001900078C1FBD8520728BF30C148BF0B607047F9
:1001A0001FB51FBD10B510BD00F08EF81146FFF74A
:1001B000F7FF04F02DFA00F0ACF803B4FFF7F2FFFC
:1001C00003BC00F0AFF80000094880470948004729
:1001D000FEE7FEE7FEE7FEE7FEE7FEE7FEE7FEE7F7
:1001E000FEE7FEE704480549054A064B7047000054
:1001F000652A0008ED000008F8140020F81A002015
:10020000F8160020F816002010B5203AC0F00B8038
:10021000B1E81850203AA0E81850B1E81850A0E80A
:100220001850BFF4F5AF5FEA027C24BFB1E8185064
:10023000A0E8185044BF18C918C0BDE810405FEAD4
:10024000827C24BF51F8043B40F8043B08BF704750
:10025000D20728BF31F8023B48BF11F8012B28BF55
:1002600020F8023B48BF00F8012B70474FF0000216
:1002700000B5134694469646203922BFA0E80C509C
:10028000A0E80C50B1F12001BFF4F7AF090728BF77
:10029000A0E80C5048BF0CC05DF804EB890028BFF3
:1002A00040F8042B08BF704748BF20F8022B11F01C
:1002B000804F18BF00F8012B704770477047704798
:1002C00000487047941400207546FFF7F9FFAE46CA
:1002D00005006946534620F00700854618B020B552
:1002E000FFF780FFBDE820404FF000064FF0000709
:1002F0004FF000084FF0000B21F00701AC46ACE8CE
:10030000C009ACE8C009ACE8C009ACE8C0098D463A
:10031000704710B50446AFF300802046BDE810409A
:10032000FFF74BBF01491820ABBEFEE726000200D5
:100330007047000070B5044600688168C943C9076A
:1003400017D1816821F00101816000F00BFD0546A5
:100350000AE000BF00F006FD401B022804D9206817
:100360008068C043C00706D020688068C043C007CB
:10037000F0D0002070BDA06A40F01000A062E06ADA
:1003800040F00100E062012070BD0000F8B50026D9
:100390000446009600688168C943C9072DD081686A
:1003A00041F001018160164816490068B0FBF1F088
:1003B00000E0401E00900028FBD100F0D3FC054671
:1003C00016E000BF00F0CEFC401B022810D92068C8
:1003D0008068C043C0070BD0A06A40F01000A06244
:1003E000E06A40F00100E06284F824600120F8BD7A
:1003F00020688068C043C007E4D10020F8BD000039
:10040000A400002040420F00FEE7002070470020BB
:100410007047000010B500220449054802F0EEFCC8
:100420000449034802F0E4FC002010BDA00B0020AA
:10043000F4020020B807002010B50146034802F07E
:10044000D7FC024802F0B8FC002010BDF4020020E6
:100450007047012000F084BB4FF4006000F080BBC7
:10046000022000F07DBB802000F07ABB72B6FEE770
:10047000F8B500250446009590F82400012808D01E
:10048000012084F824002046FFF754FF060002D024
:1004900053E00220F8BDA06A20F4885040F002002A
:1004A000A062022001F0CCFA26490968B1FBF0F005
:1004B000400000E0401E00900028FBD12046FFF7DE
:1004C00065FF2068816841F00801816000F04AFC06
:1004D000074608E000F046FCC01B0A2803D9206844
:1004E0008068000715D4206880680007F2D420686F
:1004F000816841F00401816000F034FC074612E09D
:1005000000F030FCC01B0A280DD920688068400725
:1005100009D5A06A20F0020040F01000A06284F823
:1005200024500120F8BD206880684007E8D4A06A04
:1005300020F0020040F00100A06284F82450304610
:10054000F8BD0000A4000020F8B50024009490F845
:1005500024202546012A12D0012280F824204A684E
:100560001F23072A0DD20668776B521E02EB820208
:1005700093409F430B6893401F43776319E0022029
:10058000F8BD06680D2A0AD2376BD21F02EB820231
:1005900093409F430B6893401F43376309E0F76A1A
:1005A0000D3A02EB820293409F430B6893401F4336
:1005B000F7620A68072306680A2A0AD3F7680A3A24
:1005C00002EB420293409F438B6893401F43F760C6
:1005D00008E0376902EB420293409F438B689340E7
:1005E0001F4337610A68102A01D0112A20D1124B0B
:1005F00002689A4217D193681B0219D4936843F496
:10060000000393600968102912D10C490C4A09684B
:10061000B1FBF2F101EB8101490000E0491E0091BC
:100620000029FBD104E0816A41F0200181620124AC
:1006300080F824502046F8BD00240140A40000208A
:1006400040420F000068C06C704700002DE9F04187
:100650004FF0000704003D467ED0A06A002628B96E
:10066000E66284F82460204600F07EF82046FFF71A
:1006700061FEA16AC90600D420B1A06A40F0100052
:10068000A06269E0A16A21F4885141F00201A162EF
:100690006268E169237B0A4347EA43010A43A16890
:1006A0004FF48077B94209D0012907D05FF00001EB
:1006B00094F814C0BCF1010F02D00AE03946F7E704
:1006C000F3B1A36A43F02003A362E36A43F001039A
:1006D000E3622368D3F804C02CF4694C4CEA010CA3
:1006E000C3F804C021688B68DFF870C003EA0C030C
:1006F00013438B60A168B9420BD0012909D00CE0EB
:10070000DFF85CC0A3690CEB43330B4343F4006197
:10071000DFE7218A0D05A5F580152168CB6A23F452
:1007200070032B43CB62216889680E4B19409142BC
:1007300008D1E662A16A21F0020141F00101A16243
:10074000BDE8F081A06A20F0020040F01000A06235
:10075000E06A40F00100E0620120F1E7FDF7E1FF0F
:1007600000E0FFFFFE0E1FFF00B585B000210091E5
:1007700001910291039100680E49884218D10E48F8
:10078000816941F400718161816901F40071049112
:10079000816941F0040181618069694600F00400CB
:1007A00004900720009003200190044800F0E4F931
:1007B00005B000BD002401400010024000080140C7
:1007C0002DE9F84300270D460446009700F0CAFAC9
:1007D000804620688168C90508D5A06A40F02000DD
:1007E000A06284F824700120BDE8F8834168C9053F
:1007F00003D4C06A10F4700F2AD0022001F020F94F
:100800003B490968B1FBF0F62068036939490B429E
:100810004FEA61014FEAA1121FD1C3684FEA611C80
:1008200013EA0C0F19D103690B4225D1C06810429D
:1008300022D1142023E0681C0AD02DB100F092FAD6
:10084000A0EB0800A84203D920680068800725D5DE
:10085000206800688007EED52DE003690B4202D1C5
:10086000C168114206D0026923490A4206D1C06814
:10087000084203D1542002E0292000E0FC20464336
:10088000009816E0681C11D02DB100F06BFAA0EBB7
:100890000800A8420AD90098B04207D2A06A40F0E6
:1008A0000400A06284F8247003209DE70098401C97
:1008B0000090B042E6D321686FF012000860A06A91
:1008C00040F40070A06220688068C0F342400728AE
:1008D0000CD1207B50B9A06A20F48070A062A06A7D
:1008E000C00403D4A06A40F00100A06200207BE7AE
:1008F000A4000020244992244992240070B50446A3
:1009000090F8240001280DD0012084F8240020460E
:10091000FFF73CFD02004FF0000005D084F82400F2
:10092000104670BD022070BDA16A40F201239943B8
:1009300041F48071A1621F4D23681F49AB4218D159
:100940000E6816F4702F14D0A66A46F48016A662BC
:100950000E68760505D5A66A26F4005646F480563C
:10096000A662A66AF6040AD5E66A26F00606E662DC
:1009700006E0A66A26F48016A6625E68E9E7E062F1
:1009800084F824006FF00200186020688368C3F3C5
:100990004243072B05D1A84208D1096811F4702FF2
:1009A00004D0816841F480118160B9E7816841F425
:1009B000A001F9E7002801400424014070B5044675
:1009C00000F0D0F90546601C02D0044800780444C9
:1009D00000F0C8F9401BA042FAD370BD9800002077
:1009E0002DE9F0430023374F0F2566E001229A409E
:1009F0000A4060D023F00304E619D6F808809C076B
:100A00004FEA147C05FA0CF909EA0804DFF8B8800B
:100A1000404502D14FF0000816E0DFF8B0804045B5
:100A200002D14FF001080FE0DFF8A480404502D169
:100A30004FF0020808E0DFF89C80404502D14FF0FB
:100A4000030801E04FF0040808FA0CF8A04515D19E
:100A5000D6F808C02CEA090CC6F808C01E4E346847
:100A600094433460341D266896432660241D26680E
:100A700096432660241D266896432660FF2A01D8E7
:100A8000064601E000F104064FEA830401D9A4F10F
:100A90002004D6F800C005FA04F82CEA080C4FF040
:100AA000040808FA04F84CEA080CC6F800C0C46848
:100AB00024EA0204C46003F1010331FA03F295D180
:100AC000BDE8F0830000014000080140000C014037
:100AD00000100140001401400004014070B51E4C9C
:100AE00005460020E0700126802D04D0012D04D0A1
:100AF000022D04D005E0E67003E0022100E00321AE
:100B0000E170E071062000F07DFA072000F07AFA2B
:100B1000172000F077FA282000F074FAA67100F090
:100B200021F9216A401AE06100F01CF92062207965
:100B30000A280AD200F016F9A1692279401A074959
:100B400041F822002079401C2071B5F5006F02D1D8
:100B50000420E070E67170BD00000020E00100207C
:100B6000044910B50A68024202D00860FFF7B6FFD8
:100B700010BD0000140401402DE9F84FDFF8B891D2
:100B8000002409F1040A0AF1040B23460F270BF194
:100B9000040EC9E00125A5402A40AA427DD1674E36
:100BA000D1F804C0ACEB0608B44532D014DCBCF17B
:100BB000030F3AD009DCBCF1000F2AD0BCF1010FC1
:100BC0001CD0BCF1020F31D11DE0BCF1110F17D0C8
:100BD000BCF1120F2AD119E0B8F5881F19D006DC34
:100BE000B8F5803F15D0B8F5801F1FD111E0B8F5DA
:100BF000001F0ED0B8F5041F18D10AE0CB6815E02D
:100C0000CB681B1D12E0CB6808330FE0CB680C33B8
:100C10000CE08B682BB1012B4FF0080303D045612A
:100C200004E0042302E0056100E00023FF2A01D86C
:100C3000064601E000F104064FEA840501D9A5F15A
:100C40002005D6F8008007FA05FC28EA0C0803FA0C
:100C500005F548EA0508C6F800804D68ED0062D544
:100C6000374DAE6946F00106AE61AD6924F003066A
:100C700005F001050095334D06EB050CDCF8085036
:100C8000A607360F07FA06F825EA0805DFF8B88048
:100C9000404503D14FF0000817E044E0DFF8AC8096
:100CA000404502D14FF001080FE0DFF8A480404535
:100CB00002D14FF0020808E0DFF89880404502D1E9
:100CC0004FF0030801E04FF0040808FA06F848EA7C
:100CD0000508CCF808804D68D9F80060ED034D4652
:100CE00001D5164300E096432E604D68DAF80060A7
:100CF000AD03554601D5164300E096432E604D687E
:100D0000DBF80060ED025D4601D5164300E0964336
:100D10002E604D68DEF80060AD02754601D51643C1
:100D200000E096432E60641C0D682A46E5407FF47F
:100D300031AFBDE8F88F0000000401400000111041
:100D4000001002400000014000080140000C01407A
:100D500000100140001401400AB10161704709040C
:100D6000FBE7000001488068704700009800002001
:100D700070B5040025D094F83D00002520B984F812
:100D80003C50204600F0B8F8242084F83D0020684C
:100D9000016821F0010101602068016841F400410F
:100DA00001602068016821F40041016000F0B8FF93
:100DB0004D4A6168914201D84C4900E04C49884253
:100DC00001D2012070BD4B492368B0FBF1F15E6890
:100DD00026F03F060E435E606368934206D94FF4E7
:100DE000967359434FF47A73B1FBF3F12368491CAE
:100DF0001E6A26F03F06314319626168914210D89D
:100E00004900401EB0FBF1F2521CC2F30B02042A4F
:100E100001D2042022E0B0FBF1F0401CC0F30B0033
:100E20001CE0A268F2B301EBC10303EB0116431E01
:100E3000B3FBF6F35B1C43F480431B0549D092B32C
:100E400001EBC10202EB0111401EB0FBF1F0401CAE
:100E5000C0F30B0040F4804040F400402168CA69B0
:100E60004CF6FF739A431043C861D4E9071001435D
:100E70002068026822F0C00211430160D4E9030136
:100E800001432068826848F2FF339A43114381602E
:100E9000D4E9050108432168CA6822F0FF02104323
:100EA000C86001E00EE016E02068016841F0010131
:100EB00001602564202084F83D00256384F83E50BD
:100EC000002070BD01EB4106431EB3FBF6F35B1C33
:100ED000B3E70120C2E701EB4101401EB0FBF1F096
:100EE000401CC0F30B00B7E7A086010080841E0001
:100EF00000093D0040420F0010B586B0002100916E
:100F000001910291039100680F4988421AD10F4C58
:100F1000A06940F00800A061A069694600F00800DF
:100F20000490C020009012200190032003900848F4
:100F3000FFF722FEE06940F40010E061E06900F490
:100F40000010049006B010BD005400400010024094
:100F5000000C0140024881680278114481607047AA
:100F600098000020074810B5016841F010010160A9
:100F7000032000F085F80F2000F006F800F024F8B8
:100F8000002010BD0020024070B50D4D04464FF406
:100F90007A712878B1FBF0F00A490968B1FBF0F0EA
:100FA00001F0A4F848B9102C07D200222146501EA7
:100FB00000F046F800206C6070BD012070BD00009C
:100FC00098000020A40000200C4808B5816941F079
:100FD00001018161816901F001010091C16941F064
:100FE0008051C161C06900F08050009004484168A0
:100FF00021F0E06141F00071416008BD0010024045
:101000000000014000280DDB00F01F02012191408B
:101010004009800000F1E020C0F88011BFF34F8F3D
:10102000BFF36F8F7047002809DB00F01F0201211A
:1010300091404009800000F1E020C0F800117047A5
:10104000F0B40E4B1B680C46C3F30223C3F1070533
:10105000042D00D90425191D072901D2002300E021
:10106000DB1E012606FA05F1491E214099409E40EB
:10107000761E16403143F0BC03F092B90CED00E04F
:10108000064900F0070208684FF6FF03184040EADF
:101090000220034A10430860704700000CED00E096
:1010A0000000FA0510B50C0607D501F0070101EBA9
:1010B000810100EBC100283005E001EB810100EB6C
:1010C000C10000F5B47099B232B1012202730181FE
:1010D000190C4181002010BD00220273C180F9E784
:1010E000704701EB810200EBC202D0F8E802D26B3C
:1010F00002F075B801EB810200EBC202D0F8E80201
:10110000D2F87C2102F0CEB870B504460B0601F08F
:10111000070000EB800104EBC1014FF001024FF02A
:10112000000503D581F82920283103E081F86951B1
:1011300001F5B471087094F8A802012808D084F869
:10114000A822206802F0EEFC84F8A852002070BDAE
:10115000022070BD70B5044601F00F006268904235
:1011600001D9012070BD0B0601F0070000EB8001E2
:1011700004EBC1014FF001024FF0000503D581F8E7
:101180002920283103E081F8695101F5B4718D708F
:10119000087094F8A802012808D084F8A8222068D2
:1011A00002F05DFD84F8A852002070BD022070BDE1
:1011B0002DE9F05F04685FEA424C0B788D69B4F862
:1011C00050C04FF000064BF68F7948F2800A48F67F
:1011D0008F7B48F2C00E4FF480672AD54FF002088B
:1011E00008EBC308C44407EB4C07E45BC4F30904F1
:1011F000A54203D32D1B8D6101D00BE08E610668E3
:1012000036F8235005EA090585F4005545EA0A0534
:1012100026F82350520609D50D78036833F82520A7
:1012200002EA0B0242EA0E0223F8252084B30A895F
:1012300029E04FF0060808EBC308C44407EB4C074D
:10124000E45BC4F30904A54203D32D1B8D6101D0D7
:101250000BE08E61066836F8235005EA090585F42F
:10126000005545EA0A0526F82350520609D40B78A2
:10127000056835F8232002EA0B0242EA0E0225F83F
:1012800023202CB14A8949690068234603F056F8A7
:101290002046BDE8F09F2DE9F05F054600680C464A
:1012A0005FEA426C16468B692278B0F850C048F667
:1012B0008F774CF280094FF6FF7B4FF4004E4FF4CE
:1012C000806A4FF000017BD54FF0020808EBC2089E
:1012D000E0440AEB480C30F80C00C0F309008342EC
:1012E00011D91B1AA3610FD0730407D52E6836F8E5
:1012F00022303B4043EA090326F8223094F82420A8
:10130000012A50D04EE1A161607810B1012813D0BC
:101310001AE02868B0F85030184400EB0210B0F81A
:10132000042422F4F842A0F80424B0F8042442F47F
:101330000042A0F8042407E02868B0F850301844B0
:1013400000EB0210A0F804146278286812B1012A98
:1013500011D018E0B0F850100844217800EB0110CB
:10136000B0F80C1421F4F841A0F80C14B0F80C14E7
:1013700041F4004105E0B0F850201044227800EB21
:101380000210A0F80C1421782846FFF7AAFE70047A
:10139000B8D521782A6832F82100384040EA09009F
:1013A00022F82100FEE0626902446261E2690244BF
:1013B000E2612369226A9A4203D31846111A04E0B3
:1013C00038E084F824100AB110462162617811B126
:1013D000012923D02BE02968B1F85020114422784C
:1013E00001EB021101F2044148B13E280FD8420836
:1013F000C30700D0521C0BEA82220A8017E00A8839
:1014000022F4F8420A800A8842F40042F5E74209D1
:10141000C30600D1521E4EEA8222EEE72968B1F8D7
:1014200050201144227801EB0211A1F8040483B288
:101430002289B3E04FF0060808EBC208E0440AEB4B
:10144000480C30F80C00C0F30900834211D31B1A7A
:10145000A3610FD0730407D42E6836F822303B40C6
:1014600043EA090326F8223094F82420012A50D0B8
:1014700098E0A161607810B1012813D01AE02868C3
:10148000B0F85030184400EB0210B0F8042422F4F5
:10149000F842A0F80424B0F8042442F40042A0F872
:1014A000042407E02868B0F85030184400EB02101C
:1014B000A0F804146278286812B1012A11D018E04B
:1014C000B0F850100844217800EB0110B0F80C146B
:1014D00021F4F841A0F80C14B0F80C1441F40041C8
:1014E00005E0B0F850201044227800EB0210A0F87C
:1014F0000C1421782846FFF7F4FD700452D42278AA
:10150000296831F82200384040EA090021F8220019
:1015100048E0626902446261E2690244E26123696F
:10152000226A9A4203D31846111A216204E00AB1D2
:101530001046216284F824106278296812B1012AC9
:1015400022D029E0B1F850201144227801EB021199
:1015500001F20C4148B13E280FD84208C30700D021
:10156000521C0BEA82220A8016E00A8822F4F84212
:101570000A800A8842F40042F5E74209C30600D116
:10158000521E4EEA8222EEE7B1F850201144227832
:1015900001EB0211A1F80C04628983B26169286829
:1015A00002F0EAFE21782A6832F8210048F6BF737B
:1015B000184080F0300048F28003184322F82100E0
:1015C0000020BDE8F09F01F0070101EB810100EB75
:1015D000C100D0F8840170472DE9F04104460F06A0
:1015E00001F0070000EB800104EBC1014FF00106A0
:1015F0004FF0000503D581F82960283103E081F818
:10160000695101F5B47108700A61CB704A7802B172
:10161000C881022B00D10D7194F8A802012809D0CD
:1016200084F8A862206802F04FF9284684F8A8528E
:10163000BDE8F0810220FBE770B50C4601F007051C
:1016400005EB850100EBC101C1E95F230022C1F870
:10165000842181F8692181F8685101F5B47162072C
:10166000006802F051FB002070BD70B504460D46C5
:1016700001F007006168884201D9012070BD290688
:101680004FF000064FF0010207D500EB800104EB9C
:10169000C10181F82920283107E005EB850104EB21
:1016A000C10181F8696101F5B4718A70087094F81C
:1016B000A802012807D084F8A822206802F00BFBBA
:1016C000680702D006E0022070BD04F52C71206886
:1016D00002F0C3FA84F8A862002070BD70B50C4611
:1016E00001F0070505EB850100EBC101C1E90F23FE
:1016F000012281F84C208B6400234B6481F829205F
:1017000001F8285F6207006802F0FEFA002070BD51
:101710001FB50446006802F00DFE000402D5204605
:1017200000F0D4FF206802F005FE40050CD52068CB
:1017300030F8441F21F480610180204600F01EF93A
:101740000021204600F035F9206802F0F3FD400446
:1017500005D5206830F8441F21F4804101802068BD
:1017600002F0E8FD800405D5206830F8441F21F41C
:1017700000510180206802F0DDFDC00414D520680E
:1017800030F8401F21F004010180206830F8401F2C
:1017900021F008010180204600F003F9206830F8AC
:1017A000441F21F480510180206802F0C3FD000530
:1017B0003ED522680020694632F8203021F81030EA
:1017C000401CC0B20828F7D332F8400F40F00100A7
:1017D0001080206830F8402F22F00102028020683B
:1017E000B0F844205205FBD530F8442F22F4806233
:1017F00002800020236831F8102023F82020401CAC
:10180000C0B20828F6D3206830F8401F41F0080124
:101810000180206830F8441F21F4006101802068B5
:1018200030F8401F41F004010180204600F0F6F836
:10183000206802F07FFD800508D5206830F8441F3D
:1018400021F400710180204600F0AFF8206802F01A
:1018500071FDC00505D5206830F8441F21F4807162
:1018600001801FBD2DE9F04186B0040004D094F83A
:10187000A902002520B108E0012006B0BDE8F081F2
:1018800084F8A852204600F05BF8032084F8A902EF
:10189000206802F0DBF904F1100114228846684642
:1018A000FEF7B2FC94E80F0002F03AF90226D0BB32
:1018B0000021206802F058FD002001270FE000BF42
:1018C00000EB800104EBC10181F8297001F8280FB9
:1018D000C881CD700D614D61401CC0B28D616168E1
:1018E0008142EDD8002011E000EB800104EBC10142
:1018F00081F8695181F8680181F86B51C1F878511C
:10190000C1F87C51401CC0B2C1F88051616881426D
:10191000EAD8142241466846FEF776FC94E80F00A8
:1019200002F08BF910B184F8A962A5E784F824507D
:1019300084F8A972206802F07EF900209DE700007B
:1019400008B500680B49884212D10B48C16941F4BF
:101950000001C161C069002200F40000009011463E
:101960001420FFF76DFBBDE808401420FFF75BBBB8
:1019700008BD0000005C00400010024070B5044645
:1019800080680125022801D0FEF770FD2946D4F8B1
:10199000E80201F070FDD4F8E802BDE8704001F003
:1019A0002CBDD0F8E80201F050BDD0F8E80201F0FB
:1019B00056BD10B5044690F8A80201280BD00120AE
:1019C00084F8A80284F82410206802F0CFFC0020DC
:1019D00084F8A80210BD022010BDD0F8E82200F55E
:1019E0002C71104601F053BD10B5044690F8A802C2
:1019F000012810D0012084F8A802206802F08AFC97
:101A000001212046FFF76CFB206802F012F900204C
:101A100084F8A80210BD022010BD000010B50446D5
:101A2000D0F8E80201F072FDA069002804D0034854
:101A3000016841F00601016010BD000010ED00E0FA
:101A400010B529A401461DCC86B08DE81D002AA042
:101A50002A4C006804900020012923D002293AD0A2
:101A600010291DD161682268D20119D5C1F38342C2
:101A7000C9031DF8020009D5616804AAC1F34041F9
:101A8000515C1F4AB2FBF1F1484301E01D49484354
:101A90006168490204D440005FF00301B0FBF1F03B
:101AA00006B010BD226AC2F30121012903D19207B9
:101AB00001D5C803F4E7022905D1626A920702D56D
:101AC00049F64040ECE70329EAD121688903E7D5CC
:101AD0004FF22440E4E700F033F96168C1F381314B
:101AE000491C4900DAE7000002030405060708095B
:101AF0000A0B0C0D0E0F1010010200000010024026
:101B000000127A0000093D002DE9F84305460078EF
:101B1000354CC00754D0E0690026C00008D4E06905
:101B200040F08050E061E069012600F080500090B4
:101B30002E480168C90512D40168804641F48071BD
:101B40000160FFF70FF9074605E000BFFFF70AF94C
:101B5000C01B642823D8D8F80000C005F6D5206A39
:101B600010F4407021D0A98801F4407181421CD04A
:101B7000206A1F49012220F440700A6000220A6096
:101B80002062C00711D0FFF7EDF8074641F2883810
:101B900008E000BFFFF7E6F8C11B414502D903206A
:101BA000BDE8F883206A8007F4D5206A696820F4CC
:101BB0004070084320621EB1E06920F08050E0616F
:101BC0002878800705D56068A96820F4404008435C
:101BD00060602878C00605D56068E96820F4800058
:101BE000084360600020DBE7001002400070004006
:101BF000400442422DE9F0470F46050061D0434EB4
:101C0000306800F00700B84209D2306820F00700C1
:101C100038433060306800F00700B84251D128687E
:101C20003B4C810712D5400703D5606840F4E06063
:101C300060602878000703D5606840F460506060F9
:101C40006068A96820F0F000084360602878C00749
:101C500028D06868012810D02168022810D0890790
:101C600000292EDA616821F0030101436160FFF76A
:101C700079F8804641F288390DE021688903EFE761
:101C80008901EDE7FFF76EF8A0EB0801494502D99D
:101C90000320BDE8F0876068696800F00C00B0EBD5
:101CA000810FEFD1306800F00700B8420BD93068DF
:101CB00020F0070038433060306800F00700B84279
:101CC00001D00120E5E72878400705D56068E9687C
:101CD00020F4E060084360602878000706D560685B
:101CE000296920F4605040EAC100606000F038F8D3
:101CF0006168084AC1F30311515CC8400649086095
:101D000006480068FFF740F90020C2E700200240C3
:101D10000010024012520008A40000209C00002085
:101D20000448054900684968044AC1F30221515C2E
:101D3000C8407047A4000020001002402252000852
:101D40000448054900684968044AC1F3C221515C4E
:101D5000C8407047A4000020001002402252000832
:101D600012A185B00FC98DE80F0014A0144A0068B5
:101D700004905168134801F00C03042B10D0082B79
:101D80000ED1C1F38343C9031DF803000AD551687E
:101D900004AAC1F34041515C0A4A5043B0FBF1F040
:101DA00005B0704708494843FAE7000002030405FC
:101DB000060708090A0B0C0D0E0F10100102000097
:101DC0000010024000127A0000093D002DE9F84F92
:101DD000040070D02078C04DC00749D06868C0F3B7
:101DE0008100012807D06868C0F38100022809D16A
:101DF0006868C00306D52868800339D56068002864
:101E0000E7D035E06068B0F5803F0BD010B1B0F599
:101E1000A02F11D0286820F480302860286820F492
:101E2000802002E0286840F480302860606890B12B
:101E3000FEF798FF06460AE0286840F480202860F4
:101E4000F0E700BFFEF78EFF801B642873D8286878
:101E50008003F7D50CE0FEF785FF064605E000BFDE
:101E6000FEF780FF801B6428F0D828688003F7D431
:101E700020789A4E80074FF001094FF0000839D5BD
:101E8000686810F00C0F07D06868C0F38100022862
:101E900009D16868C00306D42868800714D5206972
:101EA000012808D110E02069B0B1C6F80090FEF713
:101EB00059FF074605E00AE1FEF754FFC01B022860
:101EC000C4D828688007F7D52868616920F0F80031
:101ED00040EAC10028600DE0C6F80080FEF742FF2E
:101EE000074604E0FEF73EFFC01B022823D82868FF
:101EF0008007F7D4207800072CD57948A169D9B19B
:101F0000C0F80090FEF72EFF074604E0FEF72AFF18
:101F1000C01B02280FD8686A8007F7D571484FF4B4
:101F2000FA510068B0FBF1F0009000BF0098411E2C
:101F30000091FAD20EE080E0C0F80080FEF712FFB8
:101F4000074604E0FEF70EFFC01B022875D8686A3A
:101F50008007F7D42078400760D5E8690027C000E3
:101F600008D4E86940F08050E861E869012700F092
:101F7000805000905C480168C90513D4016883460D
:101F800041F480710160FEF7EDFE824606E000BF7D
:101F9000FEF7E8FEA0EB0A0064284ED8DBF800004C
:101FA000C005F5D5E06801280AD008B1052813D08E
:101FB000286A20F001002862286A20F0040002E06C
:101FC000286A40F001002862E06841F2883B98B13D
:101FD000FEF7C8FE82460BE0286A40F00400286243
:101FE000EEE700BFFEF7BEFEA0EB0A0159455AD846
:101FF000286A8007F6D50CE0FEF7B4FE824605E0BD
:10200000FEF7B0FEA0EB0A0159454CD8286A8007BC
:10201000F6D41FB1E86920F08050E861E06988B328
:102020006968C1F38101022944D00228C6F86080A2
:1020300004D0FEF797FE044638E034E0FEF792FE47
:10204000074604E0FEF78EFEC01B02282BD8286846
:102050008001F7D4206AB0F5803F05D16868A16897
:1020600020F4003008436860D4E908010843696837
:1020700021F4741108436860C6F86090FEF772FEA0
:10208000044606E025E000BFFEF76CFE001B0228B8
:1020900009D828688001F7D51BE000BFFEF762FE73
:1020A000001B022802D90320BDE8F88F28688001B0
:1020B000F4D40EE00128F7D06868226A00F4803179
:1020C000914204D1616A00F47010884201D001206D
:1020D000EAE70020E8E7000000100240000042426A
:1020E00080044242A40000200070004010B5401E51
:1020F000B0F1807F01D3012010BD4FF0E02460617A
:102100000F21601702F04CF90020A0610720206128
:10211000002010BD10B590F83C20012A22D00122E9
:1021200080F83C20CA688C6822F4407222434C68D4
:1021300022F4806222430C6822F4006222430C697C
:1021400022F4805222434C6922F400522243C9698E
:10215000002322F480420A4301684A6480F83C303C
:10216000002010BD022010BD70B590F83C20012A5F
:1021700026D0012480F83C40022280F83D200368EC
:102180005A689D6822F070060A6832435A600D4B07
:1021900002689A4208D0B2F1804F05D00A4B9A42A9
:1021A00002D00A4B9A4204D1496825F080031943B2
:1021B000916080F83D40002180F83C10084670BDD9
:1021C000022070BD002C01400004004000080040C7
:1021D00000B585B000210091019102910391006842
:1021E0000B49884212D10B48816941F00401816199
:1021F0008069694600F0040004904FF480700090FC
:102200000220019003900448FEF7B6FC05B000BD23
:10221000002C0140001002400008014070B5044647
:1022200090F83C000D4601280AD0012084F83C00BB
:1022300042B1042A18D0082A2AD00C2A4DD139E0FC
:10224000022070BD206800F045FC2068816941F0E3
:10225000080181612068816921F0040181612068A1
:1022600081692A69114311E0206800F05BFC206855
:10227000816941F4006181612068816921F4806194
:102280008161206881692A6941EA0221816124E033
:10229000206800F073FC2068C16941F00801C16149
:1022A0002068C16921F00401C1612068C1692A69FF
:1022B000114311E0206800F08DFC2068C16941F4F1
:1022C0000061C1612068C16921F48061C161206839
:1022D000C1692A6941EA0221C161002084F83C00F9
:1022E00070BD10B5040003D094F83D0010B107E0B4
:1022F000012010BD002084F83C00204600F01EF8AC
:10230000022084F83D00211D206800F0ADFB012073
:1023100084F8460084F83E0084F83F0084F84000CA
:1023200084F8410084F8420084F8430084F84400B3
:1023300084F8450084F83D00002010BD08B5006811
:102340000649884208D10648816941F400618161EB
:10235000806900F40060009008BD0000002C01407E
:1023600000100240FEE70000F0B500230A243025EB
:1023700037261F4611E000BFB4EB107F02D905EBF2
:10238000107C01E006EB107C01F813C001EB430C5C
:1023900000015B1C8CF80170DBB29342ECD3F0BD02
:1023A000FEB500251B48009501951949029501606D
:1023B00089158160057301240475032606614FF4B5
:1023C00060214560C0E90641FEF740F908B1FEF71B
:1023D0004DF8CDE9005469460E480295FEF7B4F871
:1023E00008B1FEF743F800940224694609480194B5
:1023F000FEF7AAF808B1FEF739F8CDE900466946BC
:102400000448FEF7A1F8002801D0FEF72FF8FEBD22
:1024100000240140280200202DE9F04F85B000255E
:1024200056480095019502950395816941F0100188
:102430008161816901F010010491816941F02001FD
:102440008161816901F020010491816941F00401F9
:102450008161816901F004010491816941F0080101
:1024600081618069464F00F008004FF46044049099
:10247000002221463846FEF76FFCDFF808A1002253
:1024800008215046FEF768FCDFF8FCB04FF238092F
:10249000002249465846FEF75FFC009401240226BC
:1024A000CDE90146694638460396FEF765FB0820EC
:1024B00003278DE8D10069465046FEF75DFB70208A
:1024C0008DE8610069465046FEF756FBDFF8BC8098
:1024D0008020CDE90008694602945046FEF74CFB87
:1024E00040F60300CDE90008694602945846FEF71D
:1024F00043FBA002CDE90005694658460295FEF768
:102500003BFB01AACDF8009082E8D000694658460E
:10251000FEF732FB4FF40640CDE900056946029410
:102520005046FEF729FB3802CDE9000569460294C2
:102530005846FEF721FB002211460620FEF780FDDB
:102540000620FEF770FD002211460720FEF778FDF9
:102550000720FEF768FD002211461720FEF770FDE8
:102560001720FEF760FD002211462820FEF768FDC7
:102570002820FEF758FD05B0BDE8F08F001002409E
:102580000010014000080140000C01400000211033
:102590000D4810B50B4901600C49416000214FF412
:1025A00080428160C0E9031241618161C1610162C1
:1025B000FEF7DEFB002803D0BDE81040FDF756BF54
:1025C00010BD00000054004058020020A086010009
:1025D00010B592B000240F941C2108A81094FDF7A8
:1025E00045FE20216846FDF741FE21481F49016054
:1025F0000121C0E901144821C0E903144461846148
:10260000FFF76FFE08B1FDF731FF2020CDE90F0481
:102610000FA91748FFF7A8FD08B1FDF727FF6020B5
:1026200008902420CDE909040B940C940D94002209
:1026300008A90F480E94FFF7F1FD08B1FDF716FF4A
:1026400000944FF40050CDE90440029401940394A7
:10265000694607480794FFF75DFD08B1FDF706FFDF
:102660000348FFF7B5FD12B010BD0000002C01407B
:10267000AC02002010B500220F49104800F088FD80
:1026800008B1FDF7F3FE0E490C4800F065FF08B1F4
:10269000FDF7ECFE0B49094800F0A2FB08B1FDF77D
:1026A000E5FE064800F0AEFF002803D0BDE810406C
:1026B000FDF7DCBE10BD000038000020F402002051
:1026C0008401002088000020FEE7FEE72DE9F84F96
:1026D000044640F68F7B48F60F7A4FF002094FF41C
:1026E000806874E1B0F8441011F00F063AD030F869
:1026F000267039047DD530F8261001EA0B0141F02F
:10270000800120F8261006EB860004EBC00595F842
:10271000740105F5B47500286CD0E87802286AD0F9
:102720002878226832F8201048F68F73194048F252
:10273000C003194322F820102878D4F800C03CF8D0
:102740002010BCF8502049047ED509EBC0001118B8
:1027500008EB41003CF800008005800D009074D02B
:102760002A89D8E0C9062DD4018801EA0A0141F47A
:1027700000410180216804F12805B1F850202B7830
:1027800009EBC300024408EB4200085AC0F30900F9
:102790006064E16B0844E06300212046FEF7A1FC81
:1027A00094F8240000289CD0A869002899D194F8B6
:1027B0002400216840F08000A1F84C00002084F83B
:1027C000240004E1018804F5B4750A0521D5B0F8A8
:1027D00050202B78062101EBC3010A4408EB42018B
:1027E000405A04F52C71C0F30903EB61EA882068B4
:1027F00002E0ACE068E07AE001F0A0FD2168088822
:1028000000EA0B0040F0800008802046FFF7E5F862
:10281000DDE00904D5D5018801EA0B0141F0800112
:1028200001802068B0F850202B78062101EBC3010D
:102830000A4408EB4201405A83059B0DEB6110D01E
:10284000696971B1EA8801E058E056E0206801F05A
:1028500075FDE96968690844686100212046FEF752
:1028600049FC2068018809052DD4B0F850100844AF
:10287000296900F20C4051B13E2910D84A08C90715
:1028800000D0521C4FF6FF7101EA82210FE001884F
:1028900021F4F8410180018841F4004107E04A0930
:1028A000C90600D1521E4FF4004141EA8221018045
:1028B000206801884BF68F72114081F4405148F234
:1028C00080021143018082E0D4F800C0BCF85010AF
:1028D0002A78062000EBC200014408EB41003CF8D6
:1028E00000008005800D00901AD0EA8813E03A4677
:1028F00029462046FEF75CFC009011E0062101EB22
:10290000C000111808EB41003CF800008005800D64
:10291000009005D06A8903466046696901F00EFDA2
:10292000E96900980844E8616969009808446861A9
:10293000A86918B129690098814204D929782046EC
:10294000FEF7D8FB03E02946206801F0DDF93806E0
:102950003DD506EB860004EBC001206830F8262048
:1029600002EA0A0242F4004220F8262091F82B00E5
:102970002831032804D018B1022824D1F80522D424
:102980002368B3F850200D7809EBC500024408EB2A
:102990004200185A8A69C0F3090082420CD9121AFF
:1029A0008A610BD04A6902444A61CA691044C8610D
:1029B000206801F0A9F90AE000208861E9B2204608
:1029C000FEF78FFB03E03A462046FEF764FC2068E2
:1029D000B0F8441009043FF585AE0020BDE8F88F3B
:1029E00070477047FEF7B6BA30B593B028216846F5
:1029F000FDF73CFC14210AA8FDF738FC0024012057
:102A00000F9410941194010412948DE81300049013
:102A10004FF4E010CDE90810022507956846FFF74E
:102A2000D5F908B172B6FEE70F20CDE90A054FF4DB
:102A30008060CDE90C4002210AA80E94FFF7DAF875
:102A400008B172B6FEE712200F904FF40040CDE9B6
:102A500011040FA8FFF758F8002801D072B6FEE75E
:102A600013B030BD70470000F0B50268164B174C2C
:102A7000174D4FF08047984205D0B84203D0A0428E
:102A800001D0A84203D122F070064A68324398422E
:102A900005D0B84203D0A04201D0A84203D122F40D
:102AA0004074CA6822434C6922F0800222430260CB
:102AB0008A68C2620A688262984201D10969016328
:102AC00001214161F0BD0000002C014000040040E4
:102AD0000008004030B5026A22F001020262026A78
:102AE0004368846924F073050C682C4322F00205C6
:102AF0008A682A430A4DA8420BD122F00805CA6809
:102B000023F440732A434D6922F004021D438B696C
:102B10002B434360846149684163026230BD000019
:102B2000002C014030B5026A22F010020262026AF3
:102B3000436884690D6824F4E64444EA05248D68FA
:102B400022F0200242EA05120B4DA8420ED1CD68B8
:102B500022F0800242EA05124D6923F4406343EA01
:102B600085038D6922F0400243EA85034360846156
:102B700049688163026230BD002C014030B5026AB1
:102B800022F480720262036A4268C46923F400730B
:102B900024F073050C682C438D6843EA05230C4D23
:102BA000A8420ED1CD6823F4006343EA05234D69A2
:102BB00022F4405242EA05128D6923F4806342EA0E
:102BC00005124260C4614968C163036230BD000000
:102BD000002C014030B5026A22F480520262046A7D
:102BE0004268C3690D6823F4E64343EA05238D6810
:102BF00024F4005444EA0534064DA84204D14D693A
:102C000022F4804242EA85124260C361496801644D
:102C1000046230BD002C01402DE9F041D0F8C032F3
:102C2000D0F8B822CAB101EB810500EB850400267B
:102C3000E7693FB103EBC5039B6BB7FBF3F503FB00
:102C4000157323B1C2F814620020BDE8F08100239F
:102C50001A46E66100F063FCF6E70220F5E770B57E
:102C60000546D0F8B84200F05EFBC4F80C02D5F877
:102C7000B80248B1D5F8BC12D4F80402CA6804F509
:102C800003719047002070BD022070BD70B50446EE
:102C90000026812100F09AFA002501212046E562F4
:102CA00000F094FA82212046C4F86C5100F08EFAAC
:102CB0002564D4F8B80248B1D4F8BC0204F52E74E7
:102CC00040688047206800F0FAFD2560304670BDFE
:102CD00010B5D0E9AE4159B194F80002FF2807D0F1
:102CE0008B6894F8012221469847FF2084F800025F
:102CF000002010BD0A21018000487047AC00002070
:102D00004321018000487047FC00002043210180DE
:102D100000487047B80000204321018000487047F8
:102D2000400100202DE9F04104460026007C4FF4CC
:102D30000077012590B3402302228121204600F034
:102D400047FB4023E56202220121204600F040FBC0
:102D50000823032282212046C4F86C5100F038FB7E
:102D60004FF40770256400F0ABFDC4F8B802F8B169
:102D70000546D4F8BC02006880470020C5F814025C
:102D8000C5F81802207CD5F8042298B1402301210F
:102D9000204600F029FB3046BDE8F081FFE73B46C6
:102DA00002228121204600F013FB3B46E562CAE780
:102DB0000126F0E73B46EAE710B5D0F8B81269B152
:102DC000027C002AD1F8042205D04023012100F022
:102DD0000BFB002010BD4FF40073F7E7022010BD7D
:102DE00002460220002902D00020C2F8BC1270471F
:102DF000D0F8B802C0F8041200207047D0F8B8022A
:102E0000C0F81022C0F80812002070472DE9FC41DC
:102E10000546D0F8B87200208DF80000ADF8040027
:102E2000064608780C4610F0600121D020293BD1DD
:102E3000E288AAB10006607807D5D5F8BC128B6885
:102E400039469847E288394626E087F80002A0799B
:102E500087F80102E2883946284600F04FF828E05A
:102E6000D5F8BC12607800228B682146984720E094
:102E7000607820B10A2809D00B2815D110E095F808
:102E80009C02032810D1022201A905E095F89C02BA
:102E9000032809D101226946284600F049F808E0D4
:102EA00095F89C02032804D02146284600F01BF820
:102EB00002263046BDE8FC8110B5D0F8B422526835
:102EC0009047002010BD134610B50A46002100F0BF
:102ED0008BFA002010BD134610B50A46002100F001
:102EE0001EFB002010BD10B50446802100F0FCFA46
:102EF0002046BDE81040002100F0F6BA10B50323CB
:102F0000C0F85C21C0F89432C0F8602113460A462C
:102F1000002100F069FA002010BD10B50521002342
:102F2000C0F894121A46194600F05EFA002010BD4F
:102F300010B50223C261C0F89432026213460A46F9
:102F4000002100F0ECFA002010BD10B50421002390
:102F5000C0F894121A46194600F0E1FA002010BD9C
:102F600010B50A46024903A000F0E2F8004810BD7F
:102F7000B805002043444320436F6E666967000034
:102F800012200880004870475800002010B50A46FB
:102F9000024903A000F0CCF8004810BDB80500209D
:102FA00043444320496E74657266616365000000A6
:102FB00004200880004870475400002010B50A46DD
:102FC000024903A000F0B4F8004810BDB805002085
:102FD00053544D6963726F656C656374726F6E698B
:102FE0006373000010B50A46024903A000F0A0F880
:102FF000004810BDB805002053544D3332205669A7
:10300000727475616C20436F6D506F7274000000B4
:1030100010B51A2008800A480168001D0468001DC8
:103020000068081809D008220649FFF79DF90549EC
:10303000042210312046FFF797F90248801E10BD88
:10304000E8F7FF1F6E000020F8B504460020ADF839
:10305000000048880D46010A082948D2DFE801F03F
:103060004704091747473C45D4F8B012207C0A684A
:1030700019E0207C02260028D4F8B40205D0C16AE9
:1030800068468847014646703EE0816AF8E7C0B26C
:1030900006282CD2DFE800F0030A1014181CD4F81C
:1030A000B002426805E0694690471CE0D4F8B002DF
:1030B0008268E2B1207CF6E7D4F8B002C268F8E793
:1030C000D4F8B0020269F4E7D4F8B0024269F0E73C
:1030D000D4F8B0028269ECE7207C40B9D4F8B4029D
:1030E000416B6846884701460EE0207C20B12946A6
:1030F0002046FFF7F8FEF8BDD4F8B402016B68462D
:103100008847014607204870BDF8000048B1EA88AA
:1031100052B1824200D90246ADF800202046FFF7A6
:1031200007FFE8880028E6D12046FFF70EFFF8BD2C
:1031300070B5002300281ED00446002502E06D1C57
:10314000EDB2641C2678002EF9D1022404EB45046C
:1031500014801278CA545B1C0322CA5400245B1CDE
:1031600006E0CA545B1CDAB28C54521CD3B2401C29
:103170000278002AF5D170BD01004FF0000004D0A4
:10318000012901D0022901D0022070470120704797
:1031900010B580B1D0F8B43213B10023C0F8B43206
:1031A00009B1C0F8B012012180F89C12027000F041
:1031B000BFF8002010BD022010BD10B5D0F8C0022D
:1031C000FDF7C8FFBDE81040FFF7D6BF10B5D0F837
:1031D000C002FDF799FFBDE81040FFF7CDBF2DE914
:1031E000F0411746044651B1D4F8B40242691AB10D
:1031F00094F89C02032851D00220BDE8F081D4F855
:103200009432002504F11400022B03D0042B3AD091
:10321000C3B33CE0D0E903639E4207D9F11AC16011
:103220008AB239462046FFF756FE12E08068B0FBAE
:10323000F3F103FB110199B9984211D3D4F8981214
:1032400088420DD2002211462046FFF744FEC4F802
:10325000985200231A461946204600F0C5F816E099
:10326000D4F8B402C16829B194F89C02032801D1B2
:10327000204688478021204600F036F92046FFF797
:103280004CFE04E0FFE78021204600F02DF994F881
:10329000A002012804D184F8A05201E02046904702
:1032A0000020AAE770B51546044649B1D4F8B40227
:1032B00082691AB194F89C02032830D0022070BDB4
:1032C000D4F8941204F5AA70032902D005291ED05F
:1032D00027E0D0E903218A420BD9531AC36008467C
:1032E000834200D303469AB229462046FFF7EBFDFE
:1032F00017E0D4F8B402016929B194F89C020328BC
:1033000001D1204688472046FFF71FFE09E0002034
:103310000146C4F89402204600F0E6F801E0204699
:103320009047002070BDD0F8C002FEF74CB90000F5
:1033300010B504461C481D49C0F8E842C4F8C00254
:103340000160082141600221816000218161C16129
:103350000162FEF787FA08B1FDF788F80022D4F879
:10336000C0021823114604F53074FDF79BFE582364
:10337000002280212068FDF795FEC02300228121D4
:103380002068FDF78FFE4FF488730022012120682A
:10339000FDF788FE4FF48073002282212068FDF73C
:1033A00081FE002010BD0000A8110020005C00403C
:1033B0000A0601F07F01D0F8C00201EB810100EBA9
:1033C000C10002D590F82A00704790F86A01704752
:1033D00010B51C461346D0F8C0022246FEF7FCF892
:1033E000BDE81040FFF7C8BE10B5D0F8C002FEF728
:1033F00023F9BDE81040FFF7BFBE70B500220446B8
:1034000040231146FFF7E4FF40260125C4F864611C
:103410003346002280212046C4F85851FFF7D8FFD8
:103420006662A56184F89C520020C4F89402606032
:10343000C4F8A402D4F8B80228B1D4F8B402002128
:10344000426820469047002070BD90F89C120429E5
:1034500003D190F89D1280F89C120020704710B59F
:1034600090F89C12032904D1D0F8B412C96901B1B3
:103470008847002010BD01740020704710B5D0F8B7
:10348000C002FEF796FABDE81040FFF775BE70B5B2
:10349000044600F52A70054600F04AF80120C4F8F9
:1034A0009402B4F8AE02C4F8980294F8A80210F09E
:1034B0001F010AD001290DD0022910D000F080018F
:1034C000204600F011F8002070BD2946204600F08B
:1034D0009EF8F8E72946204600F0CAF9F3E72946A6
:1034E000204600F01DF9EEE710B5D0F8C002FEF757
:1034F000BCF8BDE81040FFF73FBE10B5D0F8C002E1
:10350000FEF772FABDE81040FFF736BE90F89C1245
:1035100080F89D12042180F89C120020704710B59D
:10352000D0F8C002FEF7DAF8BDE81040FFF724BE7D
:103530000A7802704A7842708A78CB7802EB0322CC
:1035400042800A794B7902EB032282808A79C97919
:1035500002EB0121C18070470246002011B1C2F880
:10356000B41270470220704710B5D0F8B42202247C
:103570001AB11268904700B90024204610BD00001F
:1035800070B50E461E4D897804462970012931D840
:1035900094F89C0202280BD003280FD03146204615
:1035A000FFF7A1FC29782046BDE87040FFF784BCF6
:1035B000D9B10320616084F89C0209E071B16068B0
:1035C000884212D0C1B22046FFF776FC29786160AC
:1035D0002046FFF7C9FF02280CD006E0022084F83D
:1035E0009C0220466160FFF767FC2046BDE8704002
:1035F000FFF7ABBC31462046BDE87040FFF773BC17
:10360000A800002010B5FFF778FF002010BD2DE9BD
:10361000F0410A78002612F0600208D0202A01D07A
:10362000402A70D1D0F8B422926890476DE04B7870
:10363000002201250A2B66D2DFE803F0405D6557C2
:10364000650805652C29FFF7FFFC5EE004468888C5
:10365000D8B9C888C8B94888802816D200F07F0732
:1036600094F89C02032810D084F89E7239462046B4
:10367000FFF704FF2046FFF768FC1FB1022084F823
:103680009C0242E084F89C523FE020463BE0FFF77A
:1036900077FF3AE0CB88012B35D190F89C32012B93
:1036A00004D0022B02D0032B2DD104E08260012232
:1036B00000F1080116E00122011D13E090F89C22A0
:1036C000012A03D0022A01D0032A1CD1CA88022A67
:1036D00019D1C560D0F8A41209B10321C16002223A
:1036E00000F10C01FFF724FC0FE0498801290CD1FF
:1036F000C0F8A45211E090F89C32012B08D0022BA4
:1037000006D0032B04D0FFF7EEFB3046BDE8F08176
:1037100049880129F9D1C0F8A422FFF716FCF4E783
:103720002DE9F0410A46044610780027097910F087
:1037300060030AD0202B01D0402B50D1D4F8B40222
:1037400011468368204698478FE0C0F34110012856
:1037500006D05078D0B301282AD003283FD107E003
:10376000D4F8B402114683682046BDE8F0411847FA
:1037700094F89C02022802D0032872D10AE071B3A7
:1037800080296ED02046FFF7AFFE80212046FFF74C
:10379000ABFE6AE0508838B931B1802904D0D088B6
:1037A00010B92046FFF7A0FE2046FFF7CEFB5CE0F5
:1037B00094F89C020228E2D0032852D1508898BB8A
:1037C0004806F1D02046FFF7F8FCEDE7FFE794F854
:1037D0009C020026022803D0032842D112E040E0D8
:1037E00009B180293DD1080601F07F0000EB80007F
:1037F00004EB800101D5143101E001F5AA71022228
:103800000E602AE0080601F00F0000EB800004EBD8
:1038100080000AD5806920B301F07F0000EB8000B2
:1038200004EB800514350BE01FE0D0F85801C0B15F
:1038300001F07F0000EB800004EB800505F5AA7520
:1038400041B1802906D02046FFF7B2FD10B101201A
:10385000286000E02E60022229462046FFF768FB20
:1038600003E011462046FFF73EFB3846BDE8F081F5
:1038700070B5054608780C4610F0600003D020288B
:1038800001D0402816D195F89C02012803D00228C7
:1038900001D003280ED1207901280BD8D5F8B40225
:1038A000826828469047E188014306D12846FFF701
:1038B0004CFB02E02846FFF716FB002070BD704766
:1038C00000487047880F00202DE9F0470C7800264B
:1038D00030F8243048F68F121340CA78002A7DD081
:1038E000012A7CD0022A02D0032A7FD0012648F286
:1038F0008002134320F824300D7830F8254048F634
:103900008F731C402C43144320F825400D7B48F254
:10391000C00C48F6BF744CF280074BF68F79EDB3BC
:1039200091F80080C24630F8285048F280181D40B7
:1039300045EA080520F82A50B0F8505091F8008068
:10394000054405EB0815B1F8088028F00108A5F832
:103950000084B0F8505091F80080054405EB08153C
:10396000B1F80A8028F00108A5F808844D78002DE8
:103970000D7830F825804FEA48487DD0B8F1000F27
:1039800007DA30F8258008EA030848EA070820F833
:1039900025800F7830F827506D0600E02CE006D522
:1039A00030F827501D4045EA0C0520F82750CB7809
:1039B0000D78012B30F8253003EA040301D083F0A1
:1039C0002003134320F825300B7830F8231001EA48
:1039D0000901114320F82310304602E003E008E01B
:1039E00004E0BDE8F08743F4007380E743F4C0636C
:1039F0007DE743F480637AE74D782DB3B0F85050FB
:103A00000F78054405EB0715CF8827F00107A5F8C7
:103A100000740F7830F827506D0606D530F827501F
:103A20001D4045EA0C0520F82750CB78012B06D025
:103A30000B7830F82310214081F02001C9E70B7882
:103A400030F823102140C4E7B0F850400D7804440A
:103A500004EB0514CD8825F00105A4F80854B0F84E
:103A600050400D78044404EB05140D6904F20C4435
:103A700075B13E2D14D800E030E04FEA550CED074B
:103A800001D00CF1010C4FF6FF7505EA8C2511E011
:103A9000258825F4F8452580258845F4004509E06A
:103AA0004FEA551CED0601D1ACF1010C4FF4004575
:103AB00045EA8C2525800D7830F82540640405D52D
:103AC00030F825401C403C4320F825400B7830F866
:103AD000231001EA090181F440517AE7B8F1000F9F
:103AE00007DA30F8258008EA030848EA070820F8D2
:103AF00025800F7830F827506D0606D530F827500E
:103B00001D4045EA0C0520F827500D7830F8253087
:103B100003EA090383F44053134320F825308EE76A
:103B2000002070472DE9F04391F80C804F780A7817
:103B300048F6BF7C4BF68F7948F2800348F2C00507
:103B40004CF2800648F68F74B8F1000F28D0002F91
:103B500030F822704FEA474748D0002F05DA30F896
:103B600022702740374320F822700A7830F82270FC
:103B70007F0605D530F8227027402F4320F82270A9
:103B80000D7830F825202240324320F825200C788B
:103B900030F8242002EA0C021A4320F824201AE00C
:103BA0007FB130F82260760605D530F822602640D5
:103BB0002E4320F822600A7830F8221001EA0C0126
:103BC0000EE030F822506D0405D530F82250254023
:103BD000354320F822500A7830F8221001EA090112
:103BE000194320F822100020BDE8F083002F05DAE9
:103BF00030F822702740374320F822700A7830F8D6
:103C00002260760605D530F8226026402E4320F843
:103C100022600E7830F8262022402A4320F8262001
:103C20000C7830F8242002EA09021A4320F82420F4
:103C3000C1E70020704700207047012120F8401F95
:103C400000210180818001820846704730F8401FC2
:103C500021F43F410180002070470020704730B5BB
:103C60000A7BB2BB4A7848F68F7548F28004C2B12D
:103C70000B7830F82320520607D530F823202A404D
:103C800048F2C0052A4320F82320CA78012A20D010
:103C90000A7830F8221048F6BF73194081F02001ED
:103CA00014E00A7830F822305B0407D530F822306F
:103CB0002B404CF280052B4320F822300A7830F854
:103CC00022104BF68F73194081F44051214320F8A4
:103CD0002210002030BD10B54A780978002A48F239
:103CE000800330F8212005D048F6BF74224082F0CE
:103CF000100204E04BF68F74224082F480521A4383
:103D000020F82120002010BD2DE9F0470E464B7809
:103D1000097B04464FF0000948F68F7248F2800A8A
:103D20004FF6FF774FF40048012B09D000296ED0E1
:103D3000F07802286CD001286BD00120BDE8F08714
:103D4000B5693069854200D90546C9B1F17848F2B4
:103D50008013022923D0317834F821001040184311
:103D600024F82100306A401B3062307834F820108B
:103D7000490671787ED500297DD001297CD03FE1AC
:103D8000ABB2F2882046716900F0F6FAB4F8500040
:103D90003178204400EB0110A0F80454EAE0316AC5
:103DA00081426AD9317834F821001040184324F850
:103DB0002100306A401B3062307834F82010490608
:103DC00071786CD511B1012924D02AE0B4F85010D3
:103DD000214401EB001000F20C404DB13E2D0FD8F4
:103DE0006908EA0700D0491C07EA8121018018E030
:103DF000018821F4F8410180018841F40041F5E790
:103E00006909EA0600D1491E48EA8121EEE79CE1F2
:103E1000BCE126E2B4F85020111901EB0010A0F823
:103E20000C547289ABB22046716900F0A5FA706932
:103E3000284470613169306A884202D9401B30627F
:103E400002E00546C6F82090707800287CD1B4F8CE
:103E500050003178204400EB011000F204406DB1B5
:103E60003E2D13D86908EA0700D0491C07EA8121D2
:103E7000018012E001E19BE0BBE084E0018821F4D5
:103E8000F8410180018841F40041F1E76909EA063F
:103E900000D1491E48EA8121EAE7328965E011B183
:103EA000012921D027E0B4F85010214401EB001083
:103EB00000F204404DB13E2D0FD86908EA0700D04A
:103EC000491C07EA8121018015E0018821F4F841AD
:103ED0000180018841F40041F5E76909EA0600D153
:103EE000491E48EA8121EEE7B4F85010214401EB65
:103EF0000010A0F804543289ABB22046716900F07A
:103F00003BFA7069284470613169306A884202D98D
:103F1000401B306202E00546C6F820907078002809
:103F20007ED1B4F850003178204400EB011000F24B
:103F30000C4055B13E2D10D86908EA0700D0491C45
:103F400007EA812101800FE072E0018821F4F84145
:103F50000180018841F40041F4E76909EA0600D1D3
:103F6000491E48EA8121EDE77289ABB220467169AA
:103F700000F002FA317834F8210048F6BF721040A0
:103F800080F03000C0E1327834F8220048F68F63C8
:103F9000184040EA0A0024F82200B4F850003278B1
:103FA000204400EB02108BB2A0F804343289DDE724
:103FB000B4F85010214401EB001000F20C404DB158
:103FC0003E2D0FD86908EA0700D0491C07EA812175
:103FD000018015E0018821F4F8410180018841F455
:103FE0000041F5E76909EA0600D1491E48EA812146
:103FF000EEE7B4F85020111901EB0010A0F80C54B2
:104000007289ABB22046716900F0B6F97069284434
:1040100070613169306A884203D9401B306203E025
:104020006EE00546C6F82090002DA3D0707858B1F8
:1040300001287FF41EAFB4F850003178204400EB23
:104040000110A0F8045428E7B4F850003178204457
:1040500000EB011101F204413E2D06D86808EA0781
:1040600000D0401C07EA802005E06809EA0600D17C
:10407000401E48EA802008800FE711B1012921D0B5
:1040800027E0B4F85010214401EB001000F2044086
:104090004DB13E2D0FD86908EA0700D0491C07EA48
:1040A0008121018015E0018821F4F8410180018817
:1040B00041F40041F5E76909EA0600D1491E48EAE2
:1040C0008121EEE7B4F85010214401EB0010A0F874
:1040D00004543289ABB22046716900F04DF9706921
:1040E000284470613169306A884202D9401B3062CD
:1040F00002E00546C6F82090002D96D0707858B1A1
:1041000001287FF420AFB4F850100819317800EB83
:104110000110A0F80C5427E7B4F85000317820447F
:1041200000EB011101F20C413E2D06D86808EA07A8
:1041300000D0401C07EA802005E06809EA0600D1AB
:10414000401E48EA802008800EE7B169306981424C
:1041500002D9091AB161B5E00846C6F81890B1E075
:10416000088820F4F8400880088840F400400BE0FC
:104170003E2875D84208C00700D0521C07EA8220AA
:1041800002E000BF48EA82200880B5E093B9B4F8A5
:1041900050003178204400EB0110316900F20440F6
:1041A00069B13E2913D84B08C90700D05B1C07EA48
:1041B00083210180707888B1012832D03AE00188EB
:1041C00021F4F8410180018841F40041F1E74B09F5
:1041D000C90600D15B1E48EA8321EAE7B4F8500023
:1041E0003178204400EB0110316900F20C4049B1F4
:1041F0003E290FD84B08C90700D05B1C07EA832172
:10420000018017E0018821F4F8410180018841F420
:104210000041F5E74B09C90600D15B1E48EA83213E
:10422000EEE7B4F850100819317800EB0110318A2C
:10423000A0F80C14F069A8B3317834F821004304D5
:1042400001D5430603D444F24003184254D134F854
:104250002100104048F2C002104324F821004BE036
:104260003CE0B1693069814202D9091AB16102E0CA
:104270000846C6F818908BB9B4F85010327821442B
:1042800001EB021101F2044168B13E2813D8420843
:10429000C30700D0521C07EA82220A80717889B1D4
:1042A000012921D028E00A8822F4F8420A800A88ED
:1042B00042F40042F1E74209C30600D1521E48EA27
:1042C0008222EAE7B4F850103278214401EB02115F
:1042D00001F20C4100287FF44BAF41E74209C006D0
:1042E0007FF450AF521E4DE7B4F8502011193278C8
:1042F00001EB0211A1F80C04317834F821004BF6DF
:104300008F72104080F4405040EA0A0024F82100E7
:10431000002013E50021A0F844104FF43F41A0F81D
:1043200040100020704700000148FDF7F1B900007F
:10433000A8110020B0F844007047000010B500EB51
:1043400042005C0800F5806009D000BF30F8042B03
:1043500001F8012B120A01F8012B641EF6D1DA07CD
:1043600001D00088087010BD0020704711B980216D
:10437000A0F84C100020704710B55B1C00EB420009
:104380005B0800F5806009D011F8012B11F8014B92
:1043900042EA042220F8042B5B1EF5D110BDFEE793
:1043A0000907090E002804DB00F1E02080F8001462
:1043B000704700F00F0000F1E02080F8141D7047F6
:1043C0002DE9F0470F484589002D19D000240E4EE5
:1043D0008146274600F1300856F82400B0FBF5F07E
:1043E00000F075FA00F048F900F044FA28F81400DB
:1043F00046F82470641CE4B2032CEDD3A9F80A70CB
:10440000BDE8F08700000020D401002070B5094D00
:1044100000240948FCF772FA64210748FCF7D0F938
:104420000548FCF70FF925F81400641CE4B2032CCE
:10443000EFD370BD30000020280200200B4910B5DA
:104440004889401C4881FFF7E1FF084A00200849DD
:1044500012F1300251F8203032F81040234441F874
:104460002030401CC0B20328F4D310BD000000204F
:10447000D401002070B50546FCF774FC044601E049
:10448000FFF7DCFFFCF76EFC001BA842F8D3BDE889
:104490007040FFF795BF00002DE9F05F264D0646FE
:1044A0004FF4805B002259462846FCF755FC4FF438
:1044B0000049012249462846FCF74EFC00244FF4EF
:1044C000804A6F144FF6FF78300405D5012251461B
:1044D0002846FCF741FC07E0002251462846FCF73D
:1044E0003BFC0120FCF76AFA012239462846FCF71A
:1044F00033FC08EA46060120FCF760FA0022394640
:104500002846FCF729FC641CE4B2102CDCD3012201
:1045100059462846FCF720FC00224C4649462846CE
:10452000FCF71AFC012000F009F821462846BDE8F6
:10453000F05F0122FCF710BC000C01400449054A61
:104540000968B1FBF2F14143491EFDD270470000FA
:10455000A4000020405489002DE9F041294C01209D
:10456000294FA081C6034FF42F7804F130050022B3
:1045700031463846FCF7F0FBA089032804D201221B
:1045800031463846FCF7E8FBA08940F44050FFF77D
:1045900083FF0A20FFF76EFF2888404502D2A089DA
:1045A0001F300AE0B0F5617F02D2A0890F3004E02D
:1045B000B0F5966F0BD2A089143080B2401C80B247
:1045C00040F6FF71A0818842D1D3BDE8F08164201C
:1045D000FFF750FFA089074600F0C6FC0646288872
:1045E00000F0C2FC314600F0FDFB4FF07E5100F0C0
:1045F0009BFD6061032FE8D2044900F0C9FC6061B3
:10460000E3E7000000000020000C0140000004422D
:10461000FCF7A8FCFEF7E8F9FDF7FEFEFDF7C0FE8B
:10462000FDF7B6FFFDF7D4FFFEF724F800F00CF815
:104630000348FBF71DFF034CFFF78EFF6062FBE7AB
:10464000280200200000002010B54FF480610948C6
:10465000FCF7C6F90748001D016841F4407101608C
:10466000016841F480610160016821F4006101602A
:1046700010BD0000000C01402DE9F04D07460E462C
:1046800000F0FEF904460D463A46334600F052FA71
:10469000DFF86CA0DFF86CB01B4B0746884616F0BD
:1046A000004F4FF000020AD000F024F90AD900228E
:1046B0005B463846414600F0ADF91BD212E000F0EF
:1046C00019F908D2002253462046294600F03EFA46
:1046D00004460D460EE000225B463846414600F097
:1046E00099F907D8002253462046294600F00EF8D3
:1046F00004460D463146204665F31E01BDE8F08DA7
:104700000000F03F0000E03F0000E0BF10B591EA7C
:10471000030F48BF83F0004300F12082841A71EB3D
:10472000030C05D2121943EB0C03001B61EB0C01C7
:10473000DFF824E14FEA1154A4EB135C1EEA430FA7
:1047400018BF9EEA445F73D023EA0E03DCF1200E0B
:1047500021EA045143F4801332D322FA0CFE10EB09
:104760000E0023FA0CFE41EB0E01CCF1200E03FAF1
:104770000EFE10EB0E0051F10001B1F5801FCCF1DF
:10478000200E32D201EB045112FA0EF2BDE81040B5
:1047900058BF7047401C38BF5FEA420218BF7047DD
:1047A000002814BF20F0010041F100014FEA41034D
:1047B00013F5001F38BF7047A1F1C04100F024B9C4
:1047C000012A43EB0302ACF1200CDCF11F0E32BFD7
:1047D0004FF0000E23FA0CF310EB030041EB0451F1
:1047E000B4EB115FD0D0A1EB045101F58011490861
:1047F0005FEA300001EB04510ED350F1000038BFE6
:1048000012FA0EFE08D1BDE81040C9E7401C38BFBF
:104810005FEA4202CAD1C3E7BDE810404FEA410354
:1048200013F5001F38BF7047A1F1C04100F0ECB88C
:104830009EEA445F08D011EA5E0FBDE8104004BF55
:1048400001F0004100207047BDE8104070B500F055
:104850008DF800BF64FBBE3E0000E0FF491058BF6A
:10486000C1F140415B1058BFC3F140438B42EFF3AD
:10487000008070474FEA1153A3F58063D3F11E0304
:10488000A8BFD3F1200C08DB4FF0004242EAC1225E
:1048900052EA505232FA03F0704709420BD4102BFF
:1048A000C4BF0020704703F5787CBCF1FF3F05D002
:1048B0004FF0FF3070474FF00000704770B500F0C8
:1048C00055F800BF4992248000207047F0E7B0FA05
:1048D00080F310FA03F10AD0C3F11D0303F58063DE
:1048E0004FEA41504FEA035202EBD12170474FF09B
:1048F0000000704751EA030C17D41CF5801F58BF05
:10490000BCF5801F00F10680994218BF704708BFB0
:104910009042704707D711F5801F58BF13F5801FCD
:1049200019D499427047894270471CF5801F08D5F9
:10493000BCF5801FF7D58B4218BF704708BF824275
:1049400070474FF4001C1CEB410F38BF1CEB430FAA
:1049500001D28B42704770B500F008F892244900EC
:104960004FF000514FF08053FFF778BF0EF1020E69
:104970002EF0030E5EF8046B364205D4012A43EB99
:10498000030515F5001F12D8012841EB010C1CF599
:10499000001F0CD80ED14FEAD17C15F5001F0CEB8F
:1049A0004C0C0CF1020C08BF4CEBD37C04E04FF034
:1049B000080C01E04FEAD37C0CEB4C0526FA05F617
:1049C00006F00706B6F1040C06D20EEB860CBDE825
:1049D00070404CF0010C6047DFE80CF0090B02025C
:1049E0004FF000414FF00000A1F5002170BD1946C5
:1049F0001046012851EB010418BFD4F5001484BF00
:104A0000002001F0004170BD0808A0F500114FEA38
:104A10003101704753EA010C17D41CF5801F58BFB1
:104A2000BCF5801F00F106808B4218BF704708BF9D
:104A30008242704707D713F5801F58BF11F5801FBA
:104A400019D48B4270479B4270471CF5801F08D5D4
:104A5000BCF5801FF7D5994218BF704708BF904238
:104A600070474FF4001C1CEB430F38BF1CEB410F89
:104A700001D2994270470FB40CBC03BCFFF76BBF67
:104A80005FEA410C5FEA5C5CACF580635B1C39D487
:104A9000D3F1340240F34580B2F1200314DA4FF031
:104AA000010C0CFA02FCACF101030340B3EB5C0215
:104AB00020EA030008BF10EA0C0F98BF704710EB04
:104AC0000C0041F1000170470AD0C3F1200201FA45
:104AD00002FC012821FA03F101FA03F14CF1000074
:104AE0004FF0010C0CFA03FCACF10103B0F1004FE4
:104AF00021EA030108BF11EA0C0F4FF0000088BF44
:104B000061447047B3F1FF3F28BF50EAC12C01F068
:104B100000414FF0000084BF41F07C5141F470012E
:104B20007047B3F5806FB8BF704770B5FFF71EFFD1
:104B300040DBB6BE91EA030F10B581F000413FF5AE
:104B4000EDAD83F0004300F009B8000010B591EA24
:104B5000030F48BF83F000433FF5E0AD841A71EBCB
:104B6000030C07D212198CF0004C43EB0C03001B12
:104B700061EB0C01DFF8A4E14FEA1154A4EB135CE4
:104B80001EEA430F18BF9EEA445F00F0B08023EA9C
:104B90006E03524221EA0451C3EB6E0338BF5B1E21
:104BA000DCF1200E25D322FA0CFE10EB0E0043FAA6
:104BB0000CFE41EB0E01CCF1200E03FA0EFE10EBC1
:104BC0000E0051F10001CCF1200E29D412FA0EF2A0
:104BD00001EB0451BDE8104058BF7047401C1CBF9A
:104BE000B2F1004F704700280CBF491C20F00100B3
:104BF000704712EB020E43EB030218BF4FF0010E99
:104C00004EEA4202ACF1200CDCF11E0E54D943FAFC
:104C10000CFE10EB0E0051F1FF31CCF11E0ED5D57C
:104C20000EF1010E12FA0EFE404141EB010101EBC3
:104C3000445C5FEA5C5C10D910EBDE7001EB045160
:104C400038BFBEF1004FBDE8104018BF70470028C4
:104C50000CBF491C20F00100704730D24FEAD42C21
:104C600011F5001124F400641BD0B1FA81F20B3A63
:104C7000A41AA41ED2F12003914030FA03F3194381
:104C8000904001EBCC71002C01EB0451BDE81040C9
:104C9000A8BF704701F1C0414FF0000001F0004192
:104CA0007047B0FA80F310FA03F100D110BDE41A96
:104CB000173C4805C90AE4E701EB045110BD49104F
:104CC00001EB0451BDE810404FEA300002E04FF024
:104CD000000170474A0008BF0042F8D0B2F5001F3B
:104CE00028BF704701F000414FF0000070479EEA76
:104CF000445F07D011EA5E0FBDE8104004BF0021F9
:104D000000207047BDE8104070B5FFF72FFE00BFD0
:104D100040DFF63E83F00041104670470000E0FFA0
:104D200090EA010F48BF81F0004100F10482421A6D
:104D30003CBF801A89184FEAD0524FF07F4C1CEAD2
:104D4000410FA2EBD15318BF9CEA026F00F03B80E9
:104D50004FF0004C4CEA00204CEA012121FA03FC00
:104D600010EB0C0C1ED202F1FF325FEA1C2040EB6C
:104D7000C25038BF70471CF07F0F4FEA400C18BF7D
:104D8000BCF17F4F38BF7047C3F12003994008BF83
:104D900020F00100BCF17F4F38BF7047A0F1C04048
:104DA00000F0BDB94FEA3C00000A40EBC25028BFFA
:104DB0001CF0FF0F4FEA400CE6D018BFBCF17F4F4C
:104DC00038BF7047EAE79CEA026F05D010EA5C0F33
:104DD00008BF00F00040704710B500F05AF900BF5E
:104DE00064FBBE3E4FF47F0C1CEAD0121EBF1CEACF
:104DF000D11392EA0C0F93EA0C0F00F0858090EA31
:104E0000010F48BF42F4807240F4000C41F40000EE
:104E10002CF07F4120F07F4000B58142A2EB0302DD
:104E20000FF2081CACEB504EC0F100009EF800E001
:104E30004FEA4E0E00FB0EFC38BF49004FEA2C1C17
:104E400002F5FA020CFB0EF34FEACE1E4FEA112CCC
:104E50004FEAC1210EEB635E42EB22420EFB0CFCDB
:104E60004FEA1C5300FB03114FEA112C4FEA0131AA
:104E70000EFB0CFC4FEADC4C00FB0C11C14228BFBE
:104E800009184CEB03335DF804EB10EB410143EBE5
:104E9000C250B2F57C0F38BF704729D512F0F00F21
:104EA0001CBF00F1C04000F00040704700818283C9
:104EB0008485868788898B8C8D8E8F919293959629
:104EC00097999A9C9D9FA0A2A3A5A7A8AAACAEB0B3
:104ED000B2B3B5B7B9BCBEC0C2C5C7C9CCCED1D4B8
:104EE000D7D9DCDFE2E6E9ECF0F3F7FAFE000000E8
:104EF0004FEA400C0CF1807CBCF17E4F28BF70471C
:104F0000B0F1C04000F00BB990EA010F0CEAD113E8
:104F100048BF42F48072624538BF634507D213F43C
:104F20007F0F16D080EA010000F00040704710B5F6
:104F300000F0AFF8097EFC3E00F005B880EA010001
:104F400000F00040704780EA010000F0004000F0EF
:104F5000E6B812F47F0F04BF0248704780EA0100F0
:104F600000F0DDB80000C07FB0FA80F310FA03F261
:104F7000C3F19D030AD0D90501EB1220530638BFB7
:104F8000704700F1010008BF20F0010070470000E9
:104F90004FF47F0C1CEAD0121EBF1CEAD11392EA18
:104FA0000C0F93EA0C0F00F0478090EA010F48BF06
:104FB00042F480724FF0004C4CEA00204CEA012190
:104FC00002EB0302A0FB0113A2F50002002918BFA7
:104FD00043F001035B0028BF4FEA330342EB224258
:104FE0005FEA132C4CEBC2502EBFBCEB436FB2F503
:104FF0007C0F70474FEA036CBCF1004F08BF20F0F4
:105000000100B2F57C0F38BF70470BD582F0FF026C
:1050100012F5803FC8BF704700F1C040D8BF00F014
:105020000040704700F5000C5FEA4C0C48BF704729
:10503000B0F1C04000F073B890EA010F0CEAD11350
:1050400048BF42F48072624538BF634504D280EAAB
:10505000010000F00040704710B500F01AF800BFE2
:105060008900013E00F007B800F009B85FEA410C82
:105070005FEA1C6C08D080EA010000F050B85FEADB
:10508000400C5FEA1C6CF6D14FF00040A0F58000A8
:1050900070470EF1020E2EF0030E5EF8044B244210
:1050A00004D44FEA4102B2F17F4F11D84FEA4003D6
:1050B000B3F17F4F0CD80ED14FEAD07CB2F17F4FC5
:1050C0000CEB4C0C0CF1020C08BF4CEBD17C04E057
:1050D0004FF0080C01E04FEAD17C0CEB4C0324FAB2
:1050E00003F404F00704B4F1040C06D20EEB840CB4
:1050F000BDE810404CF0010C6047DFE80CF00708F9
:1051000002024FF00040A0F5800010BD08464200AA
:1051100018BFD2F1807288BF00F0004010BDFF219F
:1051200041EAD050C005704790EA010F48BF81F0B6
:1051300000413FF5FCAD421A04D882F00042A0EBDA
:10514000020011444FEAD0524FF07F4C1CEA410F4D
:10515000A2EBD15318BF9CEA026F4AD04FF0004C2B
:105160004CEA00204CEA012121FA03FCB0EB0C0CC4
:105170000FD412F0FE0F36D05FEA4C001DD500129E
:1051800040EBC25038BF70471CF03F0F18BF70474C
:105190000BE0A2F101025FEA1C2040EBC25038BFD5
:1051A00070471CF07F0F18BF7047C3F12003994070
:1051B00014BF401E20F00100704780084FEA122300
:1051C00008BF7047B0FA80FCA2EB0C02CCF1280CAF
:1051D00060FA0CF093EA122F04BF00EBC250704744
:1051E0004FEAC3707047130A5FEADC1008BF7047CC
:1051F000F6E79CEA026F04D010EA5C0F08BF0020BB
:10520000704710B5FFF745FF40DFF63E81F00040E4
:1052100070470000000000000000010203040607C0
:105220000809000000000102030400004C520008BD
:1052300000000020BC0100002801000810530008F5
:10524000BC0100203C19000084010008717A0105AE
:10525000012713812F1B08B1041ABD041AE504139A
:1052600011301B0861081A8D041704030904120188
:10527000140202021640830440571D020102035D1E
:10528000031A1A031315041B080F041A0B041A3906
:1052900004298C82105324F4130A0632022A401C7B
:1052A0001C09024357111DC0320904B91A020B131D
:1052B0000524161001052401100901042402020529
:1052C0002406170107058203081C1009048D320A01
:1052D0001D07050102432C070581070938442A40B0
:1052E000072A8107112B0907440A3B044413252D83
:1052F00014088D2C14080D2E42081AD10C1A19040A
:105300001A5F04C11A0D281A01041A19041AF51C8F
:04000005080000ED02
:00000001FF
